{
  "contractName": "EquityTokenTransaction",
  "abi": [
    {
      "constant": false,
      "inputs": [
        {
          "name": "_name",
          "type": "bytes32"
        },
        {
          "name": "_key",
          "type": "string"
        },
        {
          "name": "_documentHash",
          "type": "bytes32"
        }
      ],
      "name": "setDocument",
      "outputs": [],
      "payable": true,
      "stateMutability": "payable",
      "type": "function"
    },
    {
      "constant": false,
      "inputs": [
        {
          "name": "_proposal",
          "type": "uint256"
        }
      ],
      "name": "vote",
      "outputs": [],
      "payable": false,
      "stateMutability": "nonpayable",
      "type": "function"
    },
    {
      "constant": true,
      "inputs": [
        {
          "name": "_name",
          "type": "bytes32"
        },
        {
          "name": "_documentsFrom",
          "type": "address"
        }
      ],
      "name": "getDocument",
      "outputs": [
        {
          "name": "",
          "type": "string"
        },
        {
          "name": "",
          "type": "bytes32"
        }
      ],
      "payable": false,
      "stateMutability": "view",
      "type": "function"
    },
    {
      "constant": true,
      "inputs": [],
      "name": "defaultOperators",
      "outputs": [
        {
          "name": "",
          "type": "address[2]"
        }
      ],
      "payable": false,
      "stateMutability": "view",
      "type": "function"
    },
    {
      "constant": true,
      "inputs": [],
      "name": "name",
      "outputs": [
        {
          "name": "",
          "type": "bytes32"
        }
      ],
      "payable": false,
      "stateMutability": "view",
      "type": "function"
    },
    {
      "constant": false,
      "inputs": [],
      "name": "enableERC20",
      "outputs": [],
      "payable": false,
      "stateMutability": "nonpayable",
      "type": "function"
    },
    {
      "constant": false,
      "inputs": [
        {
          "name": "_spender",
          "type": "address"
        },
        {
          "name": "_txamount",
          "type": "uint256"
        }
      ],
      "name": "approve",
      "outputs": [
        {
          "name": "success_",
          "type": "bool"
        }
      ],
      "payable": false,
      "stateMutability": "nonpayable",
      "type": "function"
    },
    {
      "constant": true,
      "inputs": [
        {
          "name": "",
          "type": "uint256"
        }
      ],
      "name": "TotalDistribution",
      "outputs": [
        {
          "name": "",
          "type": "address"
        }
      ],
      "payable": false,
      "stateMutability": "view",
      "type": "function"
    },
    {
      "constant": true,
      "inputs": [],
      "name": "getInfosEquityToken",
      "outputs": [
        {
          "name": "",
          "type": "uint256"
        },
        {
          "name": "",
          "type": "bytes32"
        },
        {
          "name": "",
          "type": "bytes32"
        },
        {
          "name": "",
          "type": "uint256"
        },
        {
          "name": "",
          "type": "uint256"
        }
      ],
      "payable": false,
      "stateMutability": "view",
      "type": "function"
    },
    {
      "constant": true,
      "inputs": [],
      "name": "totalSupply",
      "outputs": [
        {
          "name": "",
          "type": "uint256"
        }
      ],
      "payable": false,
      "stateMutability": "view",
      "type": "function"
    },
    {
      "constant": true,
      "inputs": [
        {
          "name": "_addr",
          "type": "address"
        }
      ],
      "name": "getBalanceOfInEth",
      "outputs": [
        {
          "name": "",
          "type": "uint256"
        }
      ],
      "payable": false,
      "stateMutability": "view",
      "type": "function"
    },
    {
      "constant": false,
      "inputs": [
        {
          "name": "_trancheId",
          "type": "uint256"
        },
        {
          "name": "_from",
          "type": "address"
        },
        {
          "name": "_amount",
          "type": "uint256"
        },
        {
          "name": "_operatorData",
          "type": "bytes"
        }
      ],
      "name": "burnByTranche",
      "outputs": [],
      "payable": false,
      "stateMutability": "nonpayable",
      "type": "function"
    },
    {
      "constant": false,
      "inputs": [
        {
          "name": "_addr",
          "type": "address"
        }
      ],
      "name": "setCompanyOwner",
      "outputs": [],
      "payable": false,
      "stateMutability": "nonpayable",
      "type": "function"
    },
    {
      "constant": true,
      "inputs": [],
      "name": "isIssuable",
      "outputs": [
        {
          "name": "",
          "type": "bool"
        }
      ],
      "payable": false,
      "stateMutability": "view",
      "type": "function"
    },
    {
      "constant": true,
      "inputs": [],
      "name": "decimals",
      "outputs": [
        {
          "name": "",
          "type": "uint8"
        }
      ],
      "payable": false,
      "stateMutability": "view",
      "type": "function"
    },
    {
      "constant": false,
      "inputs": [
        {
          "name": "_from",
          "type": "address"
        },
        {
          "name": "_amount",
          "type": "uint256"
        },
        {
          "name": "_operatorData",
          "type": "bytes"
        }
      ],
      "name": "burn",
      "outputs": [],
      "payable": false,
      "stateMutability": "nonpayable",
      "type": "function"
    },
    {
      "constant": false,
      "inputs": [
        {
          "name": "_advocate",
          "type": "address"
        }
      ],
      "name": "authorizeAdvocate",
      "outputs": [],
      "payable": false,
      "stateMutability": "nonpayable",
      "type": "function"
    },
    {
      "constant": true,
      "inputs": [],
      "name": "isControllable",
      "outputs": [
        {
          "name": "",
          "type": "bool"
        }
      ],
      "payable": false,
      "stateMutability": "view",
      "type": "function"
    },
    {
      "constant": false,
      "inputs": [
        {
          "name": "_name",
          "type": "bytes32"
        },
        {
          "name": "_key",
          "type": "string"
        },
        {
          "name": "_documentHash",
          "type": "bytes32"
        }
      ],
      "name": "uploadDocument",
      "outputs": [],
      "payable": true,
      "stateMutability": "payable",
      "type": "function"
    },
    {
      "constant": true,
      "inputs": [],
      "name": "granularity",
      "outputs": [
        {
          "name": "",
          "type": "uint256"
        }
      ],
      "payable": false,
      "stateMutability": "view",
      "type": "function"
    },
    {
      "constant": false,
      "inputs": [
        {
          "name": "_to",
          "type": "address"
        }
      ],
      "name": "delegate",
      "outputs": [],
      "payable": false,
      "stateMutability": "nonpayable",
      "type": "function"
    },
    {
      "constant": false,
      "inputs": [],
      "name": "winningProposal",
      "outputs": [
        {
          "name": "winnerName_",
          "type": "bytes32"
        }
      ],
      "payable": false,
      "stateMutability": "nonpayable",
      "type": "function"
    },
    {
      "constant": true,
      "inputs": [],
      "name": "getProposals",
      "outputs": [
        {
          "name": "",
          "type": "bytes32[]"
        }
      ],
      "payable": false,
      "stateMutability": "view",
      "type": "function"
    },
    {
      "constant": false,
      "inputs": [
        {
          "name": "_addr",
          "type": "address"
        }
      ],
      "name": "setGovernmentAddress",
      "outputs": [],
      "payable": false,
      "stateMutability": "nonpayable",
      "type": "function"
    },
    {
      "constant": false,
      "inputs": [
        {
          "name": "_adjustedLockup",
          "type": "uint256"
        }
      ],
      "name": "setLockup",
      "outputs": [],
      "payable": false,
      "stateMutability": "nonpayable",
      "type": "function"
    },
    {
      "constant": true,
      "inputs": [],
      "name": "accreditationFee",
      "outputs": [
        {
          "name": "",
          "type": "uint256"
        }
      ],
      "payable": false,
      "stateMutability": "view",
      "type": "function"
    },
    {
      "constant": true,
      "inputs": [
        {
          "name": "_addr",
          "type": "address"
        }
      ],
      "name": "balanceOf",
      "outputs": [
        {
          "name": "",
          "type": "uint256"
        }
      ],
      "payable": false,
      "stateMutability": "view",
      "type": "function"
    },
    {
      "constant": false,
      "inputs": [
        {
          "name": "_authorizedInvestor",
          "type": "address"
        }
      ],
      "name": "authorizeRequest",
      "outputs": [],
      "payable": false,
      "stateMutability": "nonpayable",
      "type": "function"
    },
    {
      "constant": false,
      "inputs": [
        {
          "name": "_operator",
          "type": "address"
        }
      ],
      "name": "authorizeOperator",
      "outputs": [],
      "payable": false,
      "stateMutability": "nonpayable",
      "type": "function"
    },
    {
      "constant": true,
      "inputs": [],
      "name": "symbol",
      "outputs": [
        {
          "name": "",
          "type": "bytes32"
        }
      ],
      "payable": false,
      "stateMutability": "view",
      "type": "function"
    },
    {
      "constant": false,
      "inputs": [
        {
          "name": "_amount",
          "type": "uint256"
        },
        {
          "name": "_userData",
          "type": "bytes"
        },
        {
          "name": "_operatorData",
          "type": "bytes"
        }
      ],
      "name": "mint",
      "outputs": [],
      "payable": false,
      "stateMutability": "nonpayable",
      "type": "function"
    },
    {
      "constant": true,
      "inputs": [
        {
          "name": "_index",
          "type": "uint256"
        }
      ],
      "name": "getVoteCount",
      "outputs": [
        {
          "name": "voteCount_",
          "type": "uint256"
        }
      ],
      "payable": false,
      "stateMutability": "view",
      "type": "function"
    },
    {
      "constant": false,
      "inputs": [],
      "name": "stopIssuance",
      "outputs": [],
      "payable": false,
      "stateMutability": "nonpayable",
      "type": "function"
    },
    {
      "constant": false,
      "inputs": [
        {
          "name": "_message",
          "type": "string"
        }
      ],
      "name": "sendAdHocMessage",
      "outputs": [],
      "payable": false,
      "stateMutability": "nonpayable",
      "type": "function"
    },
    {
      "constant": true,
      "inputs": [],
      "name": "getAllAddressesEquityToken",
      "outputs": [
        {
          "name": "",
          "type": "address[]"
        }
      ],
      "payable": false,
      "stateMutability": "view",
      "type": "function"
    },
    {
      "constant": false,
      "inputs": [
        {
          "name": "_from",
          "type": "address"
        },
        {
          "name": "_amount",
          "type": "uint256"
        },
        {
          "name": "_operatorData",
          "type": "bytes"
        }
      ],
      "name": "operatorBurn",
      "outputs": [],
      "payable": false,
      "stateMutability": "nonpayable",
      "type": "function"
    },
    {
      "constant": true,
      "inputs": [
        {
          "name": "",
          "type": "uint256"
        }
      ],
      "name": "Proposals",
      "outputs": [
        {
          "name": "name",
          "type": "bytes32"
        },
        {
          "name": "voteCount",
          "type": "uint256"
        }
      ],
      "payable": false,
      "stateMutability": "view",
      "type": "function"
    },
    {
      "constant": true,
      "inputs": [],
      "name": "governmentAddress",
      "outputs": [
        {
          "name": "",
          "type": "address"
        }
      ],
      "payable": false,
      "stateMutability": "view",
      "type": "function"
    },
    {
      "constant": true,
      "inputs": [
        {
          "name": "_operator",
          "type": "address"
        },
        {
          "name": "_tokenHolder",
          "type": "address"
        }
      ],
      "name": "isOperatorFor",
      "outputs": [
        {
          "name": "",
          "type": "bool"
        }
      ],
      "payable": false,
      "stateMutability": "view",
      "type": "function"
    },
    {
      "constant": true,
      "inputs": [],
      "name": "getCompanyOwner",
      "outputs": [
        {
          "name": "",
          "type": "address"
        }
      ],
      "payable": false,
      "stateMutability": "view",
      "type": "function"
    },
    {
      "constant": false,
      "inputs": [
        {
          "name": "_trancheId",
          "type": "uint256"
        },
        {
          "name": "_from",
          "type": "address"
        },
        {
          "name": "_amount",
          "type": "uint256"
        },
        {
          "name": "_operatorData",
          "type": "bytes"
        }
      ],
      "name": "operatorBurnByTranche",
      "outputs": [],
      "payable": false,
      "stateMutability": "nonpayable",
      "type": "function"
    },
    {
      "constant": true,
      "inputs": [
        {
          "name": "_owner",
          "type": "address"
        },
        {
          "name": "_spender",
          "type": "address"
        }
      ],
      "name": "allowance",
      "outputs": [
        {
          "name": "remaining",
          "type": "uint256"
        }
      ],
      "payable": false,
      "stateMutability": "view",
      "type": "function"
    },
    {
      "constant": false,
      "inputs": [
        {
          "name": "_companyName",
          "type": "bytes32"
        },
        {
          "name": "_tokenTicker",
          "type": "bytes32"
        },
        {
          "name": "_granularity",
          "type": "uint256"
        }
      ],
      "name": "createToken",
      "outputs": [],
      "payable": false,
      "stateMutability": "nonpayable",
      "type": "function"
    },
    {
      "constant": true,
      "inputs": [
        {
          "name": "_addr",
          "type": "address"
        }
      ],
      "name": "tranchesOf",
      "outputs": [
        {
          "name": "",
          "type": "uint256[]"
        }
      ],
      "payable": false,
      "stateMutability": "view",
      "type": "function"
    },
    {
      "constant": false,
      "inputs": [
        {
          "name": "_companyName",
          "type": "bytes32"
        }
      ],
      "name": "clearRequest",
      "outputs": [],
      "payable": false,
      "stateMutability": "nonpayable",
      "type": "function"
    },
    {
      "constant": true,
      "inputs": [
        {
          "name": "_addr",
          "type": "address"
        },
        {
          "name": "_trancheId",
          "type": "uint256"
        }
      ],
      "name": "balanceOfByTranche",
      "outputs": [
        {
          "name": "",
          "type": "uint256"
        }
      ],
      "payable": false,
      "stateMutability": "view",
      "type": "function"
    },
    {
      "constant": false,
      "inputs": [],
      "name": "disableERC20",
      "outputs": [],
      "payable": false,
      "stateMutability": "nonpayable",
      "type": "function"
    },
    {
      "constant": false,
      "inputs": [
        {
          "name": "_operator",
          "type": "address"
        }
      ],
      "name": "revokeOperator",
      "outputs": [],
      "payable": false,
      "stateMutability": "nonpayable",
      "type": "function"
    },
    {
      "constant": false,
      "inputs": [
        {
          "name": "proposalNames",
          "type": "bytes32[]"
        }
      ],
      "name": "startBallot",
      "outputs": [],
      "payable": false,
      "stateMutability": "nonpayable",
      "type": "function"
    },
    {
      "anonymous": false,
      "inputs": [
        {
          "indexed": false,
          "name": "operator",
          "type": "address"
        },
        {
          "indexed": false,
          "name": "from",
          "type": "address"
        },
        {
          "indexed": false,
          "name": "to",
          "type": "address"
        },
        {
          "indexed": false,
          "name": "amount",
          "type": "uint256"
        },
        {
          "indexed": false,
          "name": "userData",
          "type": "bytes"
        },
        {
          "indexed": false,
          "name": "operatorData",
          "type": "bytes"
        }
      ],
      "name": "Sent",
      "type": "event"
    },
    {
      "anonymous": false,
      "inputs": [
        {
          "indexed": false,
          "name": "fromTranche",
          "type": "uint256"
        },
        {
          "indexed": false,
          "name": "operator",
          "type": "address"
        },
        {
          "indexed": false,
          "name": "from",
          "type": "address"
        },
        {
          "indexed": false,
          "name": "to",
          "type": "address"
        },
        {
          "indexed": false,
          "name": "amount",
          "type": "uint256"
        },
        {
          "indexed": false,
          "name": "userData",
          "type": "bytes"
        },
        {
          "indexed": false,
          "name": "operatorData",
          "type": "bytes"
        }
      ],
      "name": "SentByTranche",
      "type": "event"
    },
    {
      "anonymous": false,
      "inputs": [
        {
          "indexed": false,
          "name": "_message",
          "type": "string"
        },
        {
          "indexed": false,
          "name": "_company",
          "type": "address"
        }
      ],
      "name": "adHocMessage",
      "type": "event"
    },
    {
      "anonymous": false,
      "inputs": [
        {
          "indexed": false,
          "name": "winnerName",
          "type": "bytes32"
        },
        {
          "indexed": false,
          "name": "countVotes",
          "type": "uint256"
        }
      ],
      "name": "votingSuccessful",
      "type": "event"
    },
    {
      "anonymous": false,
      "inputs": [
        {
          "indexed": false,
          "name": "_from",
          "type": "address"
        },
        {
          "indexed": false,
          "name": "_to",
          "type": "address"
        },
        {
          "indexed": false,
          "name": "_txamount",
          "type": "uint256"
        }
      ],
      "name": "Approval",
      "type": "event"
    },
    {
      "anonymous": false,
      "inputs": [
        {
          "indexed": false,
          "name": "companyName",
          "type": "bytes32"
        },
        {
          "indexed": false,
          "name": "tokenTicker",
          "type": "bytes32"
        },
        {
          "indexed": false,
          "name": "companyOwner",
          "type": "address"
        }
      ],
      "name": "newTokenIssuance",
      "type": "event"
    },
    {
      "anonymous": false,
      "inputs": [
        {
          "indexed": false,
          "name": "operator",
          "type": "address"
        },
        {
          "indexed": false,
          "name": "to",
          "type": "address"
        },
        {
          "indexed": false,
          "name": "amount",
          "type": "uint256"
        },
        {
          "indexed": false,
          "name": "userData",
          "type": "bytes"
        },
        {
          "indexed": false,
          "name": "operatorData",
          "type": "bytes"
        }
      ],
      "name": "Minted",
      "type": "event"
    },
    {
      "anonymous": false,
      "inputs": [
        {
          "indexed": false,
          "name": "operator",
          "type": "address"
        },
        {
          "indexed": false,
          "name": "from",
          "type": "address"
        },
        {
          "indexed": false,
          "name": "amount",
          "type": "uint256"
        },
        {
          "indexed": false,
          "name": "operatorData",
          "type": "bytes"
        }
      ],
      "name": "Burned",
      "type": "event"
    },
    {
      "anonymous": false,
      "inputs": [
        {
          "indexed": false,
          "name": "trancheId",
          "type": "uint256"
        },
        {
          "indexed": false,
          "name": "operator",
          "type": "address"
        },
        {
          "indexed": false,
          "name": "to",
          "type": "address"
        },
        {
          "indexed": false,
          "name": "amount",
          "type": "uint256"
        },
        {
          "indexed": false,
          "name": "userData",
          "type": "bytes"
        },
        {
          "indexed": false,
          "name": "operatorData",
          "type": "bytes"
        }
      ],
      "name": "MintedByTranche",
      "type": "event"
    },
    {
      "anonymous": false,
      "inputs": [
        {
          "indexed": false,
          "name": "trancheId",
          "type": "uint256"
        },
        {
          "indexed": false,
          "name": "operator",
          "type": "address"
        },
        {
          "indexed": false,
          "name": "from",
          "type": "address"
        },
        {
          "indexed": false,
          "name": "amount",
          "type": "uint256"
        },
        {
          "indexed": false,
          "name": "operatorData",
          "type": "bytes"
        }
      ],
      "name": "BurnedByTranche",
      "type": "event"
    },
    {
      "anonymous": false,
      "inputs": [
        {
          "indexed": false,
          "name": "newShareholder",
          "type": "address"
        },
        {
          "indexed": false,
          "name": "length",
          "type": "uint256"
        }
      ],
      "name": "newShareholder",
      "type": "event"
    },
    {
      "anonymous": false,
      "inputs": [
        {
          "indexed": false,
          "name": "_from",
          "type": "address"
        },
        {
          "indexed": false,
          "name": "_to",
          "type": "address"
        },
        {
          "indexed": false,
          "name": "_txamount",
          "type": "uint256"
        }
      ],
      "name": "Transfer",
      "type": "event"
    },
    {
      "anonymous": false,
      "inputs": [
        {
          "indexed": false,
          "name": "operator",
          "type": "address"
        },
        {
          "indexed": false,
          "name": "tokenHolder",
          "type": "address"
        }
      ],
      "name": "AuthorizedOperator",
      "type": "event"
    },
    {
      "anonymous": false,
      "inputs": [
        {
          "indexed": true,
          "name": "operator",
          "type": "address"
        },
        {
          "indexed": true,
          "name": "tokenHolder",
          "type": "address"
        }
      ],
      "name": "RevokedOperator",
      "type": "event"
    },
    {
      "constant": true,
      "inputs": [
        {
          "name": "_from",
          "type": "address"
        }
      ],
      "name": "getDefaultTranches",
      "outputs": [
        {
          "name": "",
          "type": "uint256[]"
        }
      ],
      "payable": false,
      "stateMutability": "view",
      "type": "function"
    }
  ],
  "bytecode": "0x60806040526301e133806016556017805460ff19166001179055600060185564e8d4a51000601955670de0b6b3a7640000601b5534801561003f57600080fd5b506138c48061004f6000396000f30060806040526004361061025b5763ffffffff7c0100000000000000000000000000000000000000000000000000000000600035041663010648ca81146102605780630121b93f1461027c5780630317b1da1461029457806306e485381461033857806306fdde0314610388578063070c87f9146103af578063095ea7b3146103c45780630b366df1146103fc5780631348bf221461043057806318160ddd1461047057806318d46718146104855780632a88511a146104a65780632d3d3f9c146105155780632f1cae8514610536578063313ce5671461054b57806344d17187146105765780634af3e63f146105df5780634c783bf5146106005780635547641b14610260578063556f0dc7146106155780635c19a95c1461062a578063609ff1bd1461064b57806362564c48146106605780636a137219146106c55780636ae6b459146106e65780636e4a2194146106fe57806370a08231146107135780638cbd5f4514610734578063959b8c3f1461075557806395d89b4114610776578063a3cba09a1461078b578063b2c2f2e814610827578063b8fe4c3f1461083f578063c018f1d014610854578063c073d836146108ad578063ce30b8d9146108c2578063d1dbe7d81461092b578063d570ab341461095c578063d95b637114610971578063dad3e6dd14610998578063dbb8299b146109ad578063dd62ed3e14610a1c578063dfa9429214610a43578063e3da9f8f14610a61578063e53286c514610a82578063e75b0cf514610a9a578063f3be07eb14610abe578063f922f21614610adf578063fad8b32a14610af4578063fc1865a014610b15575b600080fd5b61027a600480359060248035908101910135604435610b6a565b005b34801561028857600080fd5b5061027a600435610c7f565b3480156102a057600080fd5b506102b8600435600160a060020a0360243516610d5f565b604080516020808201849052828252845192820192909252835190918291606083019186019080838360005b838110156102fc5781810151838201526020016102e4565b50505050905090810190601f1680156103295780820380516001836020036101000a031916815260200191505b50935050505060405180910390f35b34801561034457600080fd5b5061034d610fb2565b6040518082600260200280838360005b8381101561037557818101518382015260200161035d565b5050505090500191505060405180910390f35b34801561039457600080fd5b5061039d610ff8565b60408051918252519081900360200190f35b3480156103bb57600080fd5b5061027a610ffe565b3480156103d057600080fd5b506103e8600160a060020a0360043516602435611071565b604080519115158252519081900360200190f35b34801561040857600080fd5b506104146004356111cb565b60408051600160a060020a039092168252519081900360200190f35b34801561043c57600080fd5b506104456111f3565b6040805195865260208601949094528484019290925260608401526080830152519081900360a00190f35b34801561047c57600080fd5b5061039d611209565b34801561049157600080fd5b5061039d600160a060020a036004351661120f565b3480156104b257600080fd5b50604080516020601f60643560048181013592830184900484028501840190955281845261027a94803594600160a060020a0360248035919091169560443595369560849493019181908401838280828437509497506112bf9650505050505050565b34801561052157600080fd5b5061027a600160a060020a0360043516611333565b34801561054257600080fd5b506103e86113b9565b34801561055757600080fd5b506105606113c2565b6040805160ff9092168252519081900360200190f35b34801561058257600080fd5b50604080516020600460443581810135601f810184900484028501840190955284845261027a948235600160a060020a031694602480359536959460649492019190819084018382808284375094975061144d9650505050505050565b3480156105eb57600080fd5b5061027a600160a060020a03600435166114bf565b34801561060c57600080fd5b506103e8611574565b34801561062157600080fd5b5061039d611596565b34801561063657600080fd5b5061027a600160a060020a036004351661159c565b34801561065757600080fd5b5061039d6117cc565b34801561066c57600080fd5b50610675611895565b60408051602080825283518183015283519192839290830191858101910280838360005b838110156106b1578181015183820152602001610699565b505050509050019250505060405180910390f35b3480156106d157600080fd5b5061027a600160a060020a03600435166118eb565b3480156106f257600080fd5b5061027a6004356119f9565b34801561070a57600080fd5b5061039d611a62565b34801561071f57600080fd5b5061039d600160a060020a0360043516611a68565b34801561074057600080fd5b5061027a600160a060020a0360043516611a83565b34801561076157600080fd5b5061027a600160a060020a0360043516611b47565b34801561078257600080fd5b5061039d611c39565b34801561079757600080fd5b5060408051602060046024803582810135601f810185900485028601850190965285855261027a95833595369560449491939091019190819084018382808284375050604080516020601f89358b018035918201839004830284018301909452808352979a999881019791965091820194509250829150840183828082843750949750611c3f9650505050505050565b34801561083357600080fd5b5061039d60043561219d565b34801561084b57600080fd5b5061027a6121c8565b34801561086057600080fd5b506040805160206004803580820135601f810184900484028501840190955284845261027a9436949293602493928401919081908401838280828437509497506122389650505050505050565b3480156108b957600080fd5b506106756122ee565b3480156108ce57600080fd5b50604080516020600460443581810135601f810184900484028501840190955284845261027a948235600160a060020a031694602480359536959460649492019190819084018382808284375094975061234e9650505050505050565b34801561093757600080fd5b506109436004356123df565b6040805192835260208301919091528051918290030190f35b34801561096857600080fd5b5061041461240b565b34801561097d57600080fd5b506103e8600160a060020a036004358116906024351661241a565b3480156109a457600080fd5b50610414612468565b3480156109b957600080fd5b50604080516020601f60643560048181013592830184900484028501840190955281845261027a94803594600160a060020a0360248035919091169560443595369560849493019181908401838280828437509497506124779650505050505050565b348015610a2857600080fd5b5061039d600160a060020a0360043581169060243516612509565b348015610a4f57600080fd5b5061027a6004356024356044356125ba565b348015610a6d57600080fd5b50610675600160a060020a03600435166126a4565b348015610a8e57600080fd5b5061027a600435612710565b348015610aa657600080fd5b5061039d600160a060020a036004351660243561272b565b348015610aca57600080fd5b50610675600160a060020a0360043516612753565b348015610aeb57600080fd5b5061027a612764565b348015610b0057600080fd5b5061027a600160a060020a03600435166127d4565b348015610b2157600080fd5b506040805160206004803580820135838102808601850190965280855261027a9536959394602494938501929182918501908490808284375094975061288b9650505050505050565b601b543414610be9576040805160e560020a62461bcd02815260206004820152602860248201527f6e6f7420656e6f75676820657468657220696e20666f722070617961626c652060448201527f66756e6374696f6e000000000000000000000000000000000000000000000000606482015290519081900360840190fd5b6040805160608101825285815281516020601f86018190048102820181019093528481526015928083019190879087908190840183828082843750505092845250505060209081018490528254600181810180865560009586529483902084516003909302019182558383015180519293610c6a93928501929101906136ed565b50604091909101516002909101555050505050565b336000908152601e60205260409020600181015460ff1615610ceb576040805160e560020a62461bcd02815260206004820152600d60248201527f416c726561647920766f74656400000000000000000000000000000000000000604482015290519081900360640190fd5b6001818101805460ff19169091179055600281018290558054601f8054610d3892919085908110610d1857fe5b90600052602060002090600202016001015461291390919063ffffffff16565b601f805484908110610d4657fe5b9060005260206000209060020201600101819055505050565b33600090815260076020526040812054606091908190606414610df2576040805160e560020a62461bcd02815260206004820152602760248201527f7265717569726573206164766f6361746520746f2073656520646f776e6c6f6160448201527f642066696c657300000000000000000000000000000000000000000000000000606482015290519081900360840190fd5b336000908152601d60209081526040808320600160a060020a038816845290915290205460ff161515610e95576040805160e560020a62461bcd02815260206004820152602c60248201527f6164766f63617465206973206e6f7420617574686f72697a656420746f20726560448201527f7472696576652066696c65730000000000000000000000000000000000000000606482015290519081900360840190fd5b5060005b601554811015610faa576015805486919083908110610eb457fe5b60009182526020909120600390910201541415610fa2576015805482908110610ed957fe5b9060005260206000209060030201600101601582815481101515610ef957fe5b60009182526020918290206002600390920201810154835460408051601f600019610100600186161502019093169490940491820185900485028401850190528083529092849190830182828015610f925780601f10610f6757610100808354040283529160200191610f92565b820191906000526020600020905b815481529060010190602001808311610f7557829003601f168201915b5050505050915092509250610faa565b600101610e99565b509250929050565b610fba61376b565b60408051808201918290529060109060029082845b8154600160a060020a03168152600190910190602001808311610fcf575b505050505090505b90565b600a5490565b600f54600160a060020a03163314611062576040805160e560020a62461bcd02815260206004820152602960248201526000805160206138398339815191526044820152600080516020613859833981519152606482015290519081900360840190fd5b601c805460ff19166001179055565b600081600d548181151561108157fe5b06156110d9576040805160e560020a62461bcd02815260206004820152603360248201526000805160206138798339815191526044820152600080516020613819833981519152606482015290519081900360840190fd5b601c5460ff16151561115b576040805160e560020a62461bcd02815260206004820152602560248201527f657263323020636f6d7061746962696c69747920686173206265656e2064697360448201527f61626c6564000000000000000000000000000000000000000000000000000000606482015290519081900360840190fd5b336000818152600660209081526040808320600160a060020a03891680855290835292819020879055805193845290830191909152818101859052517f8c5be1e5ebec7d5bd14f71427d1e84f3dd0314c0f7b2291e5b200ac8c7c3b9259181900360600190a15060019392505050565b60148054829081106111d957fe5b600091825260209091200154600160a060020a0316905081565b600954600a54600b54600d54600e549091929394565b600e5490565b600073__ConvertLib____________________________6396e4ee3d61123484611a68565b60036040518363ffffffff167c0100000000000000000000000000000000000000000000000000000000028152600401808381526020018281526020019250505060206040518083038186803b15801561128d57600080fd5b505af41580156112a1573d6000803e3d6000fd5b505050506040513d60208110156112b757600080fd5b505192915050565b8233600160a060020a03821614611320576040805160e560020a62461bcd02815260206004820152601560248201527f726571756972656d656e74206f6e6c794f776e65720000000000000000000000604482015290519081900360640190fd5b61132c85858585612925565b5050505050565b600f54600160a060020a03163314611397576040805160e560020a62461bcd02815260206004820152602960248201526000805160206138398339815191526044820152600080516020613859833981519152606482015290519081900360840190fd5b600f8054600160a060020a031916600160a060020a0392909216919091179055565b60175460ff1681565b601c5460009060ff161515611447576040805160e560020a62461bcd02815260206004820152602560248201527f657263323020636f6d7061746962696c69747920686173206265656e2064697360448201527f61626c6564000000000000000000000000000000000000000000000000000000606482015290519081900360840190fd5b50601290565b8233600160a060020a038216146114ae576040805160e560020a62461bcd02815260206004820152601560248201527f726571756972656d656e74206f6e6c794f776e65720000000000000000000000604482015290519081900360640190fd5b6114b9848484612cde565b50505050565b600160a060020a038116331415611545576040805160e560020a62461bcd028152602060048201526024808201527f6d73672e73656e6465722063616e6e6f7420617574686f72697a65642068696d60448201527f73656c6600000000000000000000000000000000000000000000000000000000606482015290519081900360840190fd5b600160a060020a03166000908152601d602090815260408083203384529091529020805460ff19166001179055565b601a54600090600160a060020a03161561159057506000610ff5565b50600190565b600d5490565b336000908152601e60205260408120600181015490919060ff161561160b576040805160e560020a62461bcd02815260206004820152601160248201527f596f7520616c726561647920766f746564000000000000000000000000000000604482015290519081900360640190fd5b600160a060020a03831633141561166c576040805160e560020a62461bcd02815260206004820152601d60248201527f53656c662d64656c65676174696f6e20697320646973616c6c6f776564000000604482015290519081900360640190fd5b600160a060020a038381166000908152601e60205260409020600101546101009004161561171757600160a060020a039283166000908152601e602052604090206001015461010090049092169133831415611712576040805160e560020a62461bcd02815260206004820152601a60248201527f466f756e642073656c662d64656c65676174696f6e206c6f6f70000000000000604482015290519081900360640190fd5b61166c565b506001818101805460ff1916821774ffffffffffffffffffffffffffffffffffffffff001916610100600160a060020a038616908102919091179091556000908152601e602052604090209081015460ff16156117b45781546002820154601f80546117879392908110610d1857fe5b601f826002015481548110151561179a57fe5b9060005260206000209060020201600101819055506117c7565b815481546114b99163ffffffff61291316565b505050565b60008080805b601f548210156118355782601f838154811015156117ec57fe5b906000526020600020906002020160010154111561182a57601f80548390811061181257fe5b90600052602060002090600202016001015492508190505b6001909101906117d2565b601f80548290811061184357fe5b6000918252602091829020600290910201546040805182815292830186905280519196507f64cc588a379a8af63188f3443e70b4fa4e3cdad188fd65e3b7b283c2084cddc7928290030190a150505090565b60608060005b601f548110156118e557601f8054829081106118b357fe5b90600052602060002090600202016000015482828151811015156118d357fe5b6020908102909101015260010161189b565b50919050565b600f54600160a060020a0316331461194f576040805160e560020a62461bcd02815260206004820152602960248201526000805160206138398339815191526044820152600080516020613859833981519152606482015290519081900360840190fd5b6119588161332c565b15156001146119d7576040805160e560020a62461bcd02815260206004820152603060248201527f5f61646472206164647265737320646f6573206e6f74206578697374206f722060448201527f69732030783020286275726e696e672900000000000000000000000000000000606482015290519081900360840190fd5b601a8054600160a060020a031916600160a060020a0392909216919091179055565b600f54600160a060020a03163314611a5d576040805160e560020a62461bcd02815260206004820152602960248201526000805160206138398339815191526044820152600080516020613859833981519152606482015290519081900360840190fd5b601655565b601b5481565b600160a060020a031660009081526020819052604090205490565b600160a060020a038116600090815260076020526040902054600211611b19576040805160e560020a62461bcd02815260206004820152602960248201527f696e766573746f7220616c726561647920617574686f72697a656420616e206160448201527f6363726564697465640000000000000000000000000000000000000000000000606482015290519081900360840190fd5b600160a060020a038116600090815260076020526040902054611b4390600163ffffffff61291316565b5050565b600160a060020a038116331415611bcd576040805160e560020a62461bcd028152602060048201526024808201527f6d73672e73656e6465722063616e6e6f7420617574686f72697a65642068696d60448201527f73656c6600000000000000000000000000000000000000000000000000000000606482015290519081900360840190fd5b600160a060020a0381166000818152601d602090815260408083203380855290835292819020805460ff1916600117905580519384529083019190915280517ff4caeb2d6ca8932a215a353d0703c326ec2d81fc68170f320eb2ab49e9df61f99281900390910190a150565b600b5490565b600083600d5481811515611c4f57fe5b0615611ca7576040805160e560020a62461bcd02815260206004820152603360248201526000805160206138798339815191526044820152600080516020613819833981519152606482015290519081900360840190fd5b600f54600160a060020a03163314611d0b576040805160e560020a62461bcd02815260206004820152602960248201526000805160206138398339815191526044820152600080516020613859833981519152606482015290519081900360840190fd5b600a5460009081526008602052604090205460ff161515600114611d9f576040805160e560020a62461bcd02815260206004820152602e60248201527f7265717569726573206368616e676564207374617475732066726f6d2070656e60448201527f64696e6720746f20616374697665000000000000000000000000000000000000606482015290519081900360840190fd5b60175460ff161515600114611dfe576040805160e560020a62461bcd02815260206004820152601a60248201527f746f6b656e2069737375616e63652069732066696e6973686564000000000000604482015290519081900360640190fd5b611e09600a5461334f565b604080516060810182528781524260208083019182526000838501818152868252600390925293909320915182555160018201559051600290910155600e54909250611e5b908663ffffffff61291316565b600e5533600090815260208190526040902054611e7e908663ffffffff61291316565b33600090815260208181526040808320939093556001815282822085835290522054611eb0908663ffffffff61291316565b33600081815260016020818152604080842088855282528084209590955583835260028152848320805492830181558352808320909101869055835183815280820184905293840189905260a06060850181815289519186019190915288517f2fe5be0146f74c5bce36c0b80911af6c7d86ff27e89d5cfa61fc681327954e5d9585948c948c948c949092608085019260c0860192908801918190849084905b83811015611f68578181015183820152602001611f50565b50505050905090810190601f168015611f955780820380516001836020036101000a031916815260200191505b50838103825284518152845160209182019186019080838360005b83811015611fc8578181015183820152602001611fb0565b50505050905090810190601f168015611ff55780820380516001836020036101000a031916815260200191505b5097505050505050505060405180910390a17fc8d64290e05791ddb8e7c779289e066d776a0630d8fb0adb646a94b9ae85b7728233338888886040518087815260200186600160a060020a0316600160a060020a0316815260200185600160a060020a0316600160a060020a031681526020018481526020018060200180602001838103835285818151815260200191508051906020019080838360005b838110156120ab578181015183820152602001612093565b50505050905090810190601f1680156120d85780820380516001836020036101000a031916815260200191505b50838103825284518152845160209182019186019080838360005b8381101561210b5781810151838201526020016120f3565b50505050905090810190601f1680156121385780820380516001836020036101000a031916815260200191505b509850505050505050505060405180910390a1601c5460ff161561132c57604080516000815233602082015280820187905290517fddf252ad1be2c89b69c2b068fc378daa952ba7f163c4a11628f55a4df523b3ef9181900360600190a15050505050565b6000601f828154811015156121ae57fe5b600091825260209091206001600290920201015492915050565b600f54600160a060020a0316331461222c576040805160e560020a62461bcd02815260206004820152602960248201526000805160206138398339815191526044820152600080516020613859833981519152606482015290519081900360840190fd5b6017805460ff19169055565b7f075025aecd552649e85b634e268857a6a478f698de831a3b01d0055e73888d208133604051808060200183600160a060020a0316600160a060020a03168152602001828103825284818151815260200191508051906020019080838360005b838110156122b0578181015183820152602001612298565b50505050905090810190601f1680156122dd5780820380516001836020036101000a031916815260200191505b50935050505060405180910390a150565b60606014805480602002602001604051908101604052809291908181526020018280548015610fed57602002820191906000526020600020908154600160a060020a03168152600190910190602001808311610fcf575050505050905090565b612358338461241a565b15156123d4576040805160e560020a62461bcd02815260206004820152603860248201527f73656e646572206973206e6f7420617574686f72697a656420746f206f70657260448201527f6174652077697468205f66726f6d2773206163636f756e740000000000000000606482015290519081900360840190fd5b6117c7838383612cde565b601f8054829081106123ed57fe5b60009182526020909120600290910201805460019091015490915082565b601a54600160a060020a031681565b600081600160a060020a031683600160a060020a031614806124615750600160a060020a038084166000908152601d602090815260408083209386168352929052205460ff165b9392505050565b600f54600160a060020a031690565b612481338461241a565b15156124fd576040805160e560020a62461bcd02815260206004820152603860248201527f73656e646572206973206e6f7420617574686f72697a656420746f206f70657260448201527f6174652077697468205f66726f6d2773206163636f756e740000000000000000606482015290519081900360840190fd5b6114b984848484612925565b601c5460009060ff16151561258e576040805160e560020a62461bcd02815260206004820152602560248201527f657263323020636f6d7061746962696c69747920686173206265656e2064697360448201527f61626c6564000000000000000000000000000000000000000000000000000000606482015290519081900360840190fd5b50600160a060020a03918216600090815260066020908152604080832093909416825291909152205490565b60018110156125c557fe5b6125ce8361334f565b600955600a839055600b829055600c8054604160ff19918216179091556000600e55600d829055601c80549091166001179055600f8054600160a060020a0319163390811790915560408051808201909152908152601a54600160a060020a03166020820152612642906010906002613786565b50612710601255620f4240601355612659336133fc565b50600a54600b546040805192835260208301919091523382820152517f9ae979c8e1266c2f250aee2ce3946e415bd909a9cf1821aab705834932fd12ad9181900360600190a1505050565b600160a060020a03811660009081526002602090815260409182902080548351818402810184019094528084526060939283018282801561270457602002820191906000526020600020905b8154815260200190600101908083116126f0575b50505050509050919050565b6000908152600860205260409020805460ff19166001179055565b600160a060020a03919091166000908152600160209081526040808320938352929052205490565b606061275e826126a4565b92915050565b600f54600160a060020a031633146127c8576040805160e560020a62461bcd02815260206004820152602960248201526000805160206138398339815191526044820152600080516020613859833981519152606482015290519081900360840190fd5b601c805460ff19169055565b600160a060020a038116331415612835576040805160e560020a62461bcd02815260206004820181905260248201527f6d73672e73656e6465722063616e6e6f74207265766f6b652068696d73656c66604482015290519081900360640190fd5b600160a060020a0381166000818152601d60209081526040808320338085529252808320805460ff19169055519092917f50546e66e5f44d728365dc3908c63bc5cfeeab470722c1677e3073a6ac294aa191a350565b60005b81518110156128f157601f604080519081016040528084848151811015156128b257fe5b6020908102909101810151825260009181018290528354600181810186559483529181902083516002909302019182559190910151908201550161288e565b3360009081526020818152604080832054601e90925290912055611b436134cd565b60008282018381101561246157600080fd5b81600d548181151561293357fe5b061561298b576040805160e560020a62461bcd02815260206004820152603360248201526000805160206138798339815191526044820152600080516020613819833981519152606482015290519081900360840190fd5b600160a060020a0384166000908152600160209081526040808320888452909152902054831115612a2c576040805160e560020a62461bcd02815260206004820152602b60248201527f6e6f7420656e6f756768207472616e6368652d73706563696669632066756e6460448201527f696e6720746f206275726e000000000000000000000000000000000000000000606482015290519081900360840190fd5b600e54612a3f908463ffffffff61360a16565b600e55600160a060020a038416600090815260208190526040902054612a6b908463ffffffff61360a16565b600160a060020a038516600090815260208181526040808320939093556001815282822088835290522054612aa6908463ffffffff61360a16565b507fa1c85a30dec08aa526dc5a3ca33087f723335ec5c1614ecf0036da150a6971c885338686866040518086815260200185600160a060020a0316600160a060020a0316815260200184600160a060020a0316600160a060020a0316815260200183815260200180602001828103825283818151815260200191508051906020019080838360005b83811015612b46578181015183820152602001612b2e565b50505050905090810190601f168015612b735780820380516001836020036101000a031916815260200191505b50965050505050505060405180910390a17fea01d24fee0ecbb349ab449ea41d11599fd91ba758653579b30d38d63e2adedb338585856040518085600160a060020a0316600160a060020a0316815260200184600160a060020a0316600160a060020a0316815260200183815260200180602001828103825283818151815260200191508051906020019080838360005b83811015612c1c578181015183820152602001612c04565b50505050905090810190601f168015612c495780820380516001836020036101000a031916815260200191505b509550505050505060405180910390a1600160a060020a0384166000908152602081905260409020541515612c8357612c8184613621565b505b601c5460ff161561132c5760408051600160a060020a03861681526000602082015280820185905290517fddf252ad1be2c89b69c2b068fc378daa952ba7f163c4a11628f55a4df523b3ef9181900360600190a15050505050565b600080606060008086600d5481811515612cf457fe5b0615612d4c576040805160e560020a62461bcd02815260206004820152603360248201526000805160206138798339815191526044820152600080516020613819833981519152606482015290519081900360840190fd5b600160a060020a038916600090815260208190526040902054881115612dbc576040805160e560020a62461bcd02815260206004820152601a60248201527f6e6f7420656e6f7567682066756e64696e6720746f206275726e000000000000604482015290519081900360640190fd5b60009550600194505b878610156131cd57600160a060020a03891660009081526002602090815260409182902080548351818402810184019094528084529091830182828015612e2b57602002820191906000526020600020905b815481526020019060010190808311612e17575b505050505093508385855103815181101515612e4357fe5b602090810290910101519250612e5f888763ffffffff61360a16565b600160a060020a038a1660009081526001602090815260408083208784529091529020541061302457612eaa612e9b898863ffffffff61360a16565b600e549063ffffffff61360a16565b600e55612ee5612ec0898863ffffffff61360a16565b600160a060020a038b166000908152602081905260409020549063ffffffff61360a16565b600160a060020a038a16600090815260208190526040902055612f41612f11898863ffffffff61360a16565b600160a060020a038b1660009081526001602090815260408083208884529091529020549063ffffffff61360a16565b507fa1c85a30dec08aa526dc5a3ca33087f723335ec5c1614ecf0036da150a6971c883338b8b8b6040518086815260200185600160a060020a0316600160a060020a0316815260200184600160a060020a0316600160a060020a0316815260200183815260200180602001828103825283818151815260200191508051906020019080838360005b83811015612fe1578181015183820152602001612fc9565b50505050905090810190601f16801561300e5780820380516001836020036101000a031916815260200191505b50965050505050505060405180910390a16131cd565b600160a060020a0389166000908152600160209081526040808320868452909152902054600e5490925061305e908363ffffffff61360a16565b600e55600160a060020a03891660009081526020819052604090205461308a908363ffffffff61360a16565b600160a060020a038a166000908152602081815260408083209390935560018152828220868352905220546130c5908363ffffffff61360a16565b506130d6868363ffffffff61291316565b95506130e985600163ffffffff61291316565b94507fa1c85a30dec08aa526dc5a3ca33087f723335ec5c1614ecf0036da150a6971c883338b8b8b6040518086815260200185600160a060020a0316600160a060020a0316815260200184600160a060020a0316600160a060020a0316815260200183815260200180602001828103825283818151815260200191508051906020019080838360005b8381101561318a578181015183820152602001613172565b50505050905090810190601f1680156131b75780820380516001836020036101000a031916815260200191505b50965050505050505060405180910390a1612dc5565b7fea01d24fee0ecbb349ab449ea41d11599fd91ba758653579b30d38d63e2adedb338a8a8a6040518085600160a060020a0316600160a060020a0316815260200184600160a060020a0316600160a060020a0316815260200183815260200180602001828103825283818151815260200191508051906020019080838360005b8381101561326557818101518382015260200161324d565b50505050905090810190601f1680156132925780820380516001836020036101000a031916815260200191505b509550505050505060405180910390a1600160a060020a03891660009081526020819052604090205415156132cc576132ca89613621565b505b601c5460ff16156133215760408051600160a060020a038b168152600060208201528082018a905290517fddf252ad1be2c89b69c2b068fc378daa952ba7f163c4a11628f55a4df523b3ef9181900360600190a15b505050505050505050565b600080600160a060020a038316151561334857600091506118e5565b50503b1590565b60185460408051602080820185905281830193909352815180820383018152606090910191829052805160009384939182918401908083835b602083106133a75780518252601f199092019160209182019101613388565b5181516020939093036101000a600019018019909116921691909117905260405192018290039091206018549094506133e69350915060019050612913565b50601954818115156133f457fe5b069392505050565b6000806134088361366a565b1561341657600091506118e5565b5060148054600180820183557fce6d7b5282bd9a3661ae061feed1dbda4e52ab073b1f9285be6e155d9c38d4ec82018054600160a060020a031916600160a060020a03871690811790915560008181526005602090815260408083208690556004825291829020805460ff19169094179093559354845191825291810191909152825191927f33dda5dca20a95bec563f7c6e810061b24d464536df0636a17d2d041b8b0c66d92918290030190a150600192915050565b60015b60145481101561360757601e60006014838154811015156134ed57fe5b6000918252602080832090910154600160a060020a031683528201929092526040019020541561358d576040805160e560020a62461bcd02815260206004820152602a60248201527f54686520726967687420746f20766f746520616c72656164792068617320626560448201527f656e206772616e74656400000000000000000000000000000000000000000000606482015290519081900360840190fd5b60008060148381548110151561359f57fe5b6000918252602080832090910154600160a060020a03168352820192909252604001812054601480549192601e92909190859081106135da57fe5b6000918252602080832090910154600160a060020a031683528201929092526040019020556001016134d0565b50565b6000808383111561361a57600080fd5b5050900390565b600160a060020a038116600090815260056020526040812054601480548290811061364857fe5b60009182526020909120018054600160a060020a031916905550600192915050565b60006136758261332c565b15156001146136ce576040805160e560020a62461bcd02815260206004820152601560248201527f6e6f74206120726567756c617220616464726573730000000000000000000000604482015290519081900360640190fd5b50600160a060020a031660009081526004602052604090205460ff1690565b828054600181600116156101000203166002900490600052602060002090601f016020900481019282601f1061372e57805160ff191683800117855561375b565b8280016001018555821561375b579182015b8281111561375b578251825591602001919060010190613740565b506137679291506137da565b5090565b60408051808201825290600290829080388339509192915050565b82600281019282156137ce579160200282015b828111156137ce5782518254600160a060020a031916600160a060020a03909116178255602090920191600190910190613799565b506137679291506137f4565b610ff591905b8082111561376757600081556001016137e0565b610ff591905b80821115613767578054600160a060020a03191681556001016137fa560061742074686973206772616e756c617269747900000000000000000000000000726571756972656d656e74206f6e6c794f776e6572206f6620436f6d70616e79206d6f6469666965720000000000000000000000000000000000000000000000756e61626c6520746f206d6f6469667920746f6b656e2062616c616e63657320a165627a7a72305820eeafbacf05c455ea735df11a340999017274748e20b69351554034153ec6bdb60029",
  "source": "pragma solidity ^0.4.24;\n\nimport \"./ConvertLib.sol\";\nimport \"./SafeMath.sol\";\nimport \"./EquityTokenFactory.sol\";\nimport \"./EquityToken.sol\";\n\ncontract EquityTokenTransaction is EquityToken {\n\n//-----TokenTransactions------------------------------------------------------------------------------------------------------------------\n  /* This section determines transaction protocolls of the issued equity token\n        - this section has the internal but executing send functions!\n        -\n        */  \n\n    ///@notice fires event of after regular token transfer defined by ERC777 or EIP1410\n    event Sent(address operator, address from, address to, uint amount, bytes userData, bytes operatorData);\n    event SentByTranche(uint fromTranche, address operator, address from, address to, uint amount, bytes userData, bytes operatorData);\n\n    ///@notice function actually performing the sending of tokens.\n    ///@param _trancheId tranche for transfer\n    ///@param _userData data generated by the user to be passed to the recipient. The rules determining if a security token can be sent may require off-chain inputs\n    /// therefore functions accept an additional bytes _userData parameter which can be signed by an approved party and used to validate a transfer (e.g signature).\n    ///@param _operatorData data generated by the operator to be passed to the recipient\n    ///@dev _preventLocking true if you want this function to throw when tokens are sent to or sent by a contract not implementing ERC777.\n    /// ERC777 native Send functions MUST set this parameter to true, and backwards compatible ERC20 transfer functions SHOULD set this parameter to false.\n    /// In this testing environment _preventLocking is not implemented stick to official ERC777 for further information and implementation of this feature.\n    function _doSend(uint _trancheId, address _from, address _to, uint _txamount, bytes _userData, address _operator, bytes _operatorData) \n    internal checkGranularity(_txamount) checkAccreditation(_to) returns(uint receiverTrancheId_) {\n        require((_isRegularAddress(_to) == true), \"_to address does not exist or is 0x0 (burning)\");\n        require((LevelOfAccreditation[_to] == 1), \"_to address is not authorized or accredited\");     \n        require((OwnerToTrancheToBalance[_from][_trancheId] >= _txamount), \"not enough tranche-specific funding for transaction on account\");\n        require((_isReady(_trancheId) == true),\"lockup period not over for this tranche\");\n        require((TotalDistribution.length <= regulationMaximumInvestors), \"max. amount of investors\");\n        \n        OwnerToBalance[_from] = OwnerToBalance[_from].sub(_txamount);\n        OwnerToBalance[_to] = OwnerToBalance[_to].add(_txamount);\n        require((OwnerToBalance[_to] <= regulationMaximumSharesPerInvestor), \"max. amount of shares by one investor (10%)\");\n\n        _toShareholderbook(_to);\n        \n        emit Sent(_operator, _from, _to, _txamount, _userData, _operatorData);\n        \n        receiverTrancheId_ = _generateRandomId();\n        IdToMetaData[receiverTrancheId_] = (TrancheMetaData(_txamount, block.timestamp, defaultLockupPeriod));\n\n        OwnerToTrancheToBalance[_from][_trancheId] = OwnerToTrancheToBalance[_from][_trancheId].sub(_txamount);\n        OwnerToTrancheToBalance[_to][receiverTrancheId_] = OwnerToTrancheToBalance[_to][receiverTrancheId_].add(_txamount);\n        OwnerToTranches[_to].push(uint(receiverTrancheId_));\n        emit SentByTranche(_trancheId, _operator, _from, _to, _txamount, _userData, _operatorData);\n        \n        if(OwnerToBalance[_from] == 0) {_deleteShareholder(_from);}\n        if(erc20compatible) {emit Transfer(_from, _to, _txamount);}\n\n        return receiverTrancheId_;\n    }\n\n    ///@notice private send function used if no tranche is initially defined, then uses default tranche\n    function _doSend(address _from, address _to, uint _txamount, bytes _userData, address _operator, bytes _operatorData) \n    internal {\n        require((OwnerToBalance[_from] >= _txamount), \"not enough general funding for transaction on account\");\n        uint[] memory tempSenderTranches = OwnerToTranches[_from];\n        uint sentAmount = 0;\n        uint counter = 1;\n        \n        while(sentAmount < _txamount) {\n            uint tempTrancheId = tempSenderTranches[tempSenderTranches.length - counter];\n                \n            if(OwnerToTrancheToBalance[_from][tempTrancheId] >= _txamount.sub(sentAmount)) {\n                _doSend(tempTrancheId, _from, _to, _txamount.sub(sentAmount), _userData, _operator, _operatorData);\n                break;\n            }\n            else {\n                uint sentTx = OwnerToTrancheToBalance[_from][tempTrancheId];\n                _doSend(tempTrancheId, _from, _to, sentTx, _userData, _operator, _operatorData);\n                sentAmount = sentAmount.add(sentTx);\n                counter = counter.add(1);\n            }\n        } \n    }\n    \n    ///@notice gets the tranches of a token holder, in general the default tranche for a transaction is the latest issued tranche an owner posseses\n    ///@dev mandatory for backward interoperability with ERC777 and ERC20\n    function getDefaultTranches(address _from) public view returns(uint[]) {\n        return tranchesOf(_from);\n    }\n\n//-----TokenTransactions------------------------------------------------------------------------------------------------------------------    \n\n}",
  "sourcePath": "D:\\BlockMarket\\solidity_eto-master\\contracts\\EquityTokenTransaction.sol",
  "compiler": {
    "name": "solc",
    "version": "0.4.24+commit.e67f0147.Emscripten.clang"
  },
  "schemaVersion": "3.4.13",
  "updatedAt": "2025-05-02T09:23:11.820Z",
  "networkType": "ethereum",
  "devdoc": {
    "methods": {
      "approve(address,uint256)": {
        "details": "sender can approve an amount to be withdrawn by spender"
      },
      "balanceOf(address)": {
        "details": "balance for any owner"
      },
      "balanceOfByTranche(address,uint256)": {
        "details": "balance for any owner for specific tranche"
      },
      "createToken(bytes32,bytes32,uint256)": {
        "details": "creates new token shell (status pending), safes information in storage",
        "params": {
          "_granularity": "ensures, that granularity of shares is always a positive natural figure, cannot be changed ever"
        }
      },
      "decimals()": {
        "details": "number of decimals token uses, divide token amount by number of decimals to get user representation"
      },
      "delegate(address)": {
        "details": "possibility to delegate your vote to another voter"
      },
      "getAllAddressesEquityToken()": {
        "details": "getter for TotalDistribution array",
        "return": "array with all addresses (owner)"
      },
      "getDefaultTranches(address)": {
        "details": "mandatory for backward interoperability with ERC777 and ERC20"
      },
      "getInfosEquityToken()": {
        "details": "returns Infos of equity token, as struct is not returnable in current solidity version"
      },
      "granularity()": {
        "details": "smallest part of token not divisible"
      },
      "isOperatorFor(address,address)": {
        "return": "true if _operator is authorized for _tokenHolder"
      },
      "sendAdHocMessage(string)": {
        "details": "possibility to broadcast adHocMessages for any size"
      },
      "setDocument(bytes32,string,bytes32)": {
        "details": "manage documents associated with token, using IPFS encrypted peer-to-peer filesharing"
      },
      "totalSupply()": {
        "details": "total amount of a token "
      },
      "tranchesOf(address)": {
        "details": "tranches of a tokenholder"
      },
      "uploadDocument(bytes32,string,bytes32)": {
        "details": "manage documents associated with investor"
      },
      "vote(uint256)": {
        "details": "give your vote for specific proposal"
      },
      "winningProposal()": {
        "details": "computes the winning proposal, gets proposal name from array and returns, fires event"
      }
    }
  },
  "userdoc": {
    "methods": {
      "allowance(address,address)": {
        "notice": "ERC20 mandatory"
      },
      "approve(address,uint256)": {
        "notice": "ERC20 mandatory"
      },
      "authorizeAdvocate(address)": {
        "notice": "authorize a third party _operator to manage (send) msg.sender's tokens. msg.sender always operator himself, thus requirementERC777 mandatory"
      },
      "authorizeOperator(address)": {
        "notice": "authorize a third party _operator to manage (send) msg.sender's tokens. msg.sender always operator himself, thus requirementERC777 mandatory"
      },
      "authorizeRequest(address)": {
        "notice": "advocate can approve investor to another level of accreditation; 0 = no investor, 1 = approved investor, 2 = advocate"
      },
      "balanceOf(address)": {
        "notice": "ERC20 mandatory, ERC777 mandatory"
      },
      "balanceOfByTranche(address,uint256)": {
        "notice": "EIP1410 proposal"
      },
      "burn(address,uint256,bytes)": {
        "notice": "process to burn equity_burn function can be used by Company AND private token holder, burn is a shell and important to fullfil onlyOwner requirementcompliant with ERC777 & EIP1410"
      },
      "burnByTranche(uint256,address,uint256,bytes)": {
        "notice": "burn function can be used by Company AND private token holder, important to fullfil onlyOwner requirement"
      },
      "clearRequest(bytes32)": {
        "notice": "advocate can clear a companies request, changing status pending into active token"
      },
      "decimals()": {
        "notice": "ERC20 optional, ERC777 mandatory to be 18"
      },
      "defaultOperators()": {
        "notice": "ERC777 mandatory"
      },
      "disableERC20()": {
        "notice": "disables the ERC20 interface. "
      },
      "enableERC20()": {
        "notice": "enables the ERC20 interface."
      },
      "getBalanceOfInEth(address)": {
        "notice": "convert balance of token in ETH or other currencies"
      },
      "getDefaultTranches(address)": {
        "notice": "gets the tranches of a token holder, in general the default tranche for a transaction is the latest issued tranche an owner posseses"
      },
      "getProposals()": {
        "notice": "for EVM could be possible to work with fixed array e.g. 3 proposals"
      },
      "granularity()": {
        "notice": "ERC777 mandatory"
      },
      "isControllable()": {
        "notice": "provides transparency wether defaultOperators can be adjusted by company: if government address is set company changed it and is thus not controllable (return false)"
      },
      "isOperatorFor(address,address)": {
        "notice": "check whether the _operator address is allowed to manage the tokens held by _tokenHolder address.ERC777 mandatory"
      },
      "mint(uint256,bytes,bytes)": {
        "notice": "process to mint new equitycompliant with ERC777 & EIP1410"
      },
      "name()": {
        "notice": "event quaterlyUpdate(uint _revenue, uint _revenueforecast);ERC20 optional, ERC777 mandatory"
      },
      "operatorBurn(address,uint256,bytes)": {
        "notice": "ERC777 mandatory"
      },
      "operatorBurnByTranche(uint256,address,uint256,bytes)": {
        "notice": "EIP1400 mandatory"
      },
      "revokeOperator(address)": {
        "notice": "revoke a third party _operator's rights to manage (send) msg.sender's tokens.ERC777 mandatory, EIP1400 & EIP1410 in discussionit may be that regulations require an issuer or a trusted third party to retain the power thus it can be that revoking an operator MUST NOT be allowed"
      },
      "setDocument(bytes32,string,bytes32)": {
        "notice": "EIP1400 proposal"
      },
      "startBallot(bytes32[])": {
        "notice": "create a new ballot, only possible for owner of company"
      },
      "stopIssuance()": {
        "notice": "owner can stop issuance, not revertable!EIP1400 mandatory"
      },
      "symbol()": {
        "notice": "ERC20 optional, ERC777 mandatory"
      },
      "totalSupply()": {
        "notice": "ERC20 mandatory, ERC777 mandatory"
      },
      "tranchesOf(address)": {
        "notice": "EIP1410 proposal"
      }
    }
  }
}