{
  "contractName": "EquityTokenFactory",
  "abi": [
    {
      "constant": true,
      "inputs": [
        {
          "name": "",
          "type": "uint256"
        }
      ],
      "name": "TotalDistribution",
      "outputs": [
        {
          "name": "",
          "type": "address"
        }
      ],
      "payable": false,
      "stateMutability": "view",
      "type": "function"
    },
    {
      "constant": true,
      "inputs": [],
      "name": "isIssuable",
      "outputs": [
        {
          "name": "",
          "type": "bool"
        }
      ],
      "payable": false,
      "stateMutability": "view",
      "type": "function"
    },
    {
      "constant": true,
      "inputs": [],
      "name": "accreditationFee",
      "outputs": [
        {
          "name": "",
          "type": "uint256"
        }
      ],
      "payable": false,
      "stateMutability": "view",
      "type": "function"
    },
    {
      "constant": true,
      "inputs": [],
      "name": "governmentAddress",
      "outputs": [
        {
          "name": "",
          "type": "address"
        }
      ],
      "payable": false,
      "stateMutability": "view",
      "type": "function"
    },
    {
      "anonymous": false,
      "inputs": [
        {
          "indexed": false,
          "name": "companyName",
          "type": "bytes32"
        },
        {
          "indexed": false,
          "name": "tokenTicker",
          "type": "bytes32"
        },
        {
          "indexed": false,
          "name": "companyOwner",
          "type": "address"
        }
      ],
      "name": "newTokenIssuance",
      "type": "event"
    },
    {
      "anonymous": false,
      "inputs": [
        {
          "indexed": false,
          "name": "operator",
          "type": "address"
        },
        {
          "indexed": false,
          "name": "to",
          "type": "address"
        },
        {
          "indexed": false,
          "name": "amount",
          "type": "uint256"
        },
        {
          "indexed": false,
          "name": "userData",
          "type": "bytes"
        },
        {
          "indexed": false,
          "name": "operatorData",
          "type": "bytes"
        }
      ],
      "name": "Minted",
      "type": "event"
    },
    {
      "anonymous": false,
      "inputs": [
        {
          "indexed": false,
          "name": "operator",
          "type": "address"
        },
        {
          "indexed": false,
          "name": "from",
          "type": "address"
        },
        {
          "indexed": false,
          "name": "amount",
          "type": "uint256"
        },
        {
          "indexed": false,
          "name": "operatorData",
          "type": "bytes"
        }
      ],
      "name": "Burned",
      "type": "event"
    },
    {
      "anonymous": false,
      "inputs": [
        {
          "indexed": false,
          "name": "trancheId",
          "type": "uint256"
        },
        {
          "indexed": false,
          "name": "operator",
          "type": "address"
        },
        {
          "indexed": false,
          "name": "to",
          "type": "address"
        },
        {
          "indexed": false,
          "name": "amount",
          "type": "uint256"
        },
        {
          "indexed": false,
          "name": "userData",
          "type": "bytes"
        },
        {
          "indexed": false,
          "name": "operatorData",
          "type": "bytes"
        }
      ],
      "name": "MintedByTranche",
      "type": "event"
    },
    {
      "anonymous": false,
      "inputs": [
        {
          "indexed": false,
          "name": "trancheId",
          "type": "uint256"
        },
        {
          "indexed": false,
          "name": "operator",
          "type": "address"
        },
        {
          "indexed": false,
          "name": "from",
          "type": "address"
        },
        {
          "indexed": false,
          "name": "amount",
          "type": "uint256"
        },
        {
          "indexed": false,
          "name": "operatorData",
          "type": "bytes"
        }
      ],
      "name": "BurnedByTranche",
      "type": "event"
    },
    {
      "anonymous": false,
      "inputs": [
        {
          "indexed": false,
          "name": "newShareholder",
          "type": "address"
        },
        {
          "indexed": false,
          "name": "length",
          "type": "uint256"
        }
      ],
      "name": "newShareholder",
      "type": "event"
    },
    {
      "anonymous": false,
      "inputs": [
        {
          "indexed": false,
          "name": "_from",
          "type": "address"
        },
        {
          "indexed": false,
          "name": "_to",
          "type": "address"
        },
        {
          "indexed": false,
          "name": "_txamount",
          "type": "uint256"
        }
      ],
      "name": "Transfer",
      "type": "event"
    },
    {
      "anonymous": false,
      "inputs": [
        {
          "indexed": false,
          "name": "operator",
          "type": "address"
        },
        {
          "indexed": false,
          "name": "tokenHolder",
          "type": "address"
        }
      ],
      "name": "AuthorizedOperator",
      "type": "event"
    },
    {
      "anonymous": false,
      "inputs": [
        {
          "indexed": true,
          "name": "operator",
          "type": "address"
        },
        {
          "indexed": true,
          "name": "tokenHolder",
          "type": "address"
        }
      ],
      "name": "RevokedOperator",
      "type": "event"
    },
    {
      "constant": false,
      "inputs": [
        {
          "name": "_companyName",
          "type": "bytes32"
        },
        {
          "name": "_tokenTicker",
          "type": "bytes32"
        },
        {
          "name": "_granularity",
          "type": "uint256"
        }
      ],
      "name": "createToken",
      "outputs": [],
      "payable": false,
      "stateMutability": "nonpayable",
      "type": "function"
    },
    {
      "constant": false,
      "inputs": [
        {
          "name": "_amount",
          "type": "uint256"
        },
        {
          "name": "_userData",
          "type": "bytes"
        },
        {
          "name": "_operatorData",
          "type": "bytes"
        }
      ],
      "name": "mint",
      "outputs": [],
      "payable": false,
      "stateMutability": "nonpayable",
      "type": "function"
    },
    {
      "constant": false,
      "inputs": [
        {
          "name": "_from",
          "type": "address"
        },
        {
          "name": "_amount",
          "type": "uint256"
        },
        {
          "name": "_operatorData",
          "type": "bytes"
        }
      ],
      "name": "burn",
      "outputs": [],
      "payable": false,
      "stateMutability": "nonpayable",
      "type": "function"
    },
    {
      "constant": false,
      "inputs": [
        {
          "name": "_trancheId",
          "type": "uint256"
        },
        {
          "name": "_from",
          "type": "address"
        },
        {
          "name": "_amount",
          "type": "uint256"
        },
        {
          "name": "_operatorData",
          "type": "bytes"
        }
      ],
      "name": "burnByTranche",
      "outputs": [],
      "payable": false,
      "stateMutability": "nonpayable",
      "type": "function"
    },
    {
      "constant": false,
      "inputs": [
        {
          "name": "_from",
          "type": "address"
        },
        {
          "name": "_amount",
          "type": "uint256"
        },
        {
          "name": "_operatorData",
          "type": "bytes"
        }
      ],
      "name": "operatorBurn",
      "outputs": [],
      "payable": false,
      "stateMutability": "nonpayable",
      "type": "function"
    },
    {
      "constant": false,
      "inputs": [
        {
          "name": "_trancheId",
          "type": "uint256"
        },
        {
          "name": "_from",
          "type": "address"
        },
        {
          "name": "_amount",
          "type": "uint256"
        },
        {
          "name": "_operatorData",
          "type": "bytes"
        }
      ],
      "name": "operatorBurnByTranche",
      "outputs": [],
      "payable": false,
      "stateMutability": "nonpayable",
      "type": "function"
    },
    {
      "constant": false,
      "inputs": [
        {
          "name": "_name",
          "type": "bytes32"
        },
        {
          "name": "_key",
          "type": "string"
        },
        {
          "name": "_documentHash",
          "type": "bytes32"
        }
      ],
      "name": "setDocument",
      "outputs": [],
      "payable": true,
      "stateMutability": "payable",
      "type": "function"
    },
    {
      "constant": true,
      "inputs": [
        {
          "name": "_name",
          "type": "bytes32"
        },
        {
          "name": "_documentsFrom",
          "type": "address"
        }
      ],
      "name": "getDocument",
      "outputs": [
        {
          "name": "",
          "type": "string"
        },
        {
          "name": "",
          "type": "bytes32"
        }
      ],
      "payable": false,
      "stateMutability": "view",
      "type": "function"
    },
    {
      "constant": false,
      "inputs": [
        {
          "name": "_advocate",
          "type": "address"
        }
      ],
      "name": "authorizeAdvocate",
      "outputs": [],
      "payable": false,
      "stateMutability": "nonpayable",
      "type": "function"
    },
    {
      "constant": false,
      "inputs": [
        {
          "name": "_companyName",
          "type": "bytes32"
        }
      ],
      "name": "clearRequest",
      "outputs": [],
      "payable": false,
      "stateMutability": "nonpayable",
      "type": "function"
    },
    {
      "constant": true,
      "inputs": [],
      "name": "defaultOperators",
      "outputs": [
        {
          "name": "",
          "type": "address[2]"
        }
      ],
      "payable": false,
      "stateMutability": "view",
      "type": "function"
    },
    {
      "constant": false,
      "inputs": [
        {
          "name": "_operator",
          "type": "address"
        }
      ],
      "name": "authorizeOperator",
      "outputs": [],
      "payable": false,
      "stateMutability": "nonpayable",
      "type": "function"
    },
    {
      "constant": false,
      "inputs": [
        {
          "name": "_operator",
          "type": "address"
        }
      ],
      "name": "revokeOperator",
      "outputs": [],
      "payable": false,
      "stateMutability": "nonpayable",
      "type": "function"
    },
    {
      "constant": true,
      "inputs": [
        {
          "name": "_operator",
          "type": "address"
        },
        {
          "name": "_tokenHolder",
          "type": "address"
        }
      ],
      "name": "isOperatorFor",
      "outputs": [
        {
          "name": "",
          "type": "bool"
        }
      ],
      "payable": false,
      "stateMutability": "view",
      "type": "function"
    },
    {
      "constant": false,
      "inputs": [
        {
          "name": "_addr",
          "type": "address"
        }
      ],
      "name": "setGovernmentAddress",
      "outputs": [],
      "payable": false,
      "stateMutability": "nonpayable",
      "type": "function"
    },
    {
      "constant": false,
      "inputs": [],
      "name": "stopIssuance",
      "outputs": [],
      "payable": false,
      "stateMutability": "nonpayable",
      "type": "function"
    },
    {
      "constant": true,
      "inputs": [],
      "name": "isControllable",
      "outputs": [
        {
          "name": "",
          "type": "bool"
        }
      ],
      "payable": false,
      "stateMutability": "view",
      "type": "function"
    },
    {
      "constant": false,
      "inputs": [
        {
          "name": "_name",
          "type": "bytes32"
        },
        {
          "name": "_key",
          "type": "string"
        },
        {
          "name": "_documentHash",
          "type": "bytes32"
        }
      ],
      "name": "uploadDocument",
      "outputs": [],
      "payable": true,
      "stateMutability": "payable",
      "type": "function"
    },
    {
      "constant": false,
      "inputs": [
        {
          "name": "_authorizedInvestor",
          "type": "address"
        }
      ],
      "name": "authorizeRequest",
      "outputs": [],
      "payable": false,
      "stateMutability": "nonpayable",
      "type": "function"
    },
    {
      "constant": false,
      "inputs": [
        {
          "name": "_adjustedLockup",
          "type": "uint256"
        }
      ],
      "name": "setLockup",
      "outputs": [],
      "payable": false,
      "stateMutability": "nonpayable",
      "type": "function"
    }
  ],
  "bytecode": "0x60806040526301e133806016556017805460ff19166001179055600060185564e8d4a51000601955670de0b6b3a7640000601b5534801561003f57600080fd5b5061274d8061004f6000396000f30060806040526004361061013d5763ffffffff7c0100000000000000000000000000000000000000000000000000000000600035041663010648ca81146101425780630317b1da1461015e57806306e48538146102025780630b366df1146102525780632a88511a146102865780632f1cae85146102f557806344d171871461031e5780634af3e63f146103875780634c783bf5146103a85780635547641b146101425780636a137219146103bd5780636ae6b459146103de5780636e4a2194146103f65780638cbd5f451461041d578063959b8c3f1461043e578063a3cba09a1461045f578063b8fe4c3f146104fb578063ce30b8d914610510578063d570ab3414610579578063d95b63711461058e578063dbb8299b146105b5578063dfa9429214610624578063e53286c514610642578063fad8b32a1461065a575b600080fd5b61015c60048035906024803590810191013560443561067b565b005b34801561016a57600080fd5b50610182600435600160a060020a0360243516610790565b604080516020808201849052828252845192820192909252835190918291606083019186019080838360005b838110156101c65781810151838201526020016101ae565b50505050905090810190601f1680156101f35780820380516001836020036101000a031916815260200191505b50935050505060405180910390f35b34801561020e57600080fd5b506102176109e3565b6040518082600260200280838360005b8381101561023f578181015183820152602001610227565b5050505090500191505060405180910390f35b34801561025e57600080fd5b5061026a600435610a28565b60408051600160a060020a039092168252519081900360200190f35b34801561029257600080fd5b50604080516020601f60643560048181013592830184900484028501840190955281845261015c94803594600160a060020a036024803591909116956044359536956084949301918190840183828082843750949750610a509650505050505050565b34801561030157600080fd5b5061030a610ac4565b604080519115158252519081900360200190f35b34801561032a57600080fd5b50604080516020600460443581810135601f810184900484028501840190955284845261015c948235600160a060020a0316946024803595369594606494920191908190840183828082843750949750610acd9650505050505050565b34801561039357600080fd5b5061015c600160a060020a0360043516610b3f565b3480156103b457600080fd5b5061030a610bf4565b3480156103c957600080fd5b5061015c600160a060020a0360043516610c16565b3480156103ea57600080fd5b5061015c600435610d31565b34801561040257600080fd5b5061040b610d9a565b60408051918252519081900360200190f35b34801561042957600080fd5b5061015c600160a060020a0360043516610da0565b34801561044a57600080fd5b5061015c600160a060020a0360043516610e64565b34801561046b57600080fd5b5060408051602060046024803582810135601f810185900485028601850190965285855261015c95833595369560449491939091019190819084018382808284375050604080516020601f89358b018035918201839004830284018301909452808352979a999881019791965091820194509250829150840183828082843750949750610f569650505050505050565b34801561050757600080fd5b5061015c6114d8565b34801561051c57600080fd5b50604080516020600460443581810135601f810184900484028501840190955284845261015c948235600160a060020a03169460248035953695946064949201919081908401838280828437509497506115489650505050505050565b34801561058557600080fd5b5061026a6115de565b34801561059a57600080fd5b5061030a600160a060020a03600435811690602435166115ed565b3480156105c157600080fd5b50604080516020601f60643560048181013592830184900484028501840190955281845261015c94803594600160a060020a03602480359190911695604435953695608494930191819084018382808284375094975061163b9650505050505050565b34801561063057600080fd5b5061015c6004356024356044356116cd565b34801561064e57600080fd5b5061015c6004356117c4565b34801561066657600080fd5b5061015c600160a060020a03600435166117df565b601b5434146106fa576040805160e560020a62461bcd02815260206004820152602860248201527f6e6f7420656e6f75676820657468657220696e20666f722070617961626c652060448201527f66756e6374696f6e000000000000000000000000000000000000000000000000606482015290519081900360840190fd5b6040805160608101825285815281516020601f8601819004810282018101909352848152601592808301919087908790819084018382808284375050509284525050506020908101849052825460018181018086556000958652948390208451600390930201918255838301518051929361077b939285019291019061259c565b50604091909101516002909101555050505050565b33600090815260076020526040812054606091908190606414610823576040805160e560020a62461bcd02815260206004820152602760248201527f7265717569726573206164766f6361746520746f2073656520646f776e6c6f6160448201527f642066696c657300000000000000000000000000000000000000000000000000606482015290519081900360840190fd5b336000908152601d60209081526040808320600160a060020a038816845290915290205460ff1615156108c6576040805160e560020a62461bcd02815260206004820152602c60248201527f6164766f63617465206973206e6f7420617574686f72697a656420746f20726560448201527f7472696576652066696c65730000000000000000000000000000000000000000606482015290519081900360840190fd5b5060005b6015548110156109db5760158054869190839081106108e557fe5b600091825260209091206003909102015414156109d357601580548290811061090a57fe5b906000526020600020906003020160010160158281548110151561092a57fe5b60009182526020918290206002600390920201810154835460408051601f6000196101006001861615020190931694909404918201859004850284018501905280835290928491908301828280156109c35780601f10610998576101008083540402835291602001916109c3565b820191906000526020600020905b8154815290600101906020018083116109a657829003601f168201915b50505050509150925092506109db565b6001016108ca565b509250929050565b6109eb61261a565b60408051808201918290529060109060029082845b8154600160a060020a03168152600190910190602001808311610a0057505050505090505b90565b6014805482908110610a3657fe5b600091825260209091200154600160a060020a0316905081565b8233600160a060020a03821614610ab1576040805160e560020a62461bcd02815260206004820152601560248201527f726571756972656d656e74206f6e6c794f776e65720000000000000000000000604482015290519081900360640190fd5b610abd85858585611896565b5050505050565b60175460ff1681565b8233600160a060020a03821614610b2e576040805160e560020a62461bcd02815260206004820152601560248201527f726571756972656d656e74206f6e6c794f776e65720000000000000000000000604482015290519081900360640190fd5b610b39848484611c73565b50505050565b600160a060020a038116331415610bc5576040805160e560020a62461bcd028152602060048201526024808201527f6d73672e73656e6465722063616e6e6f7420617574686f72697a65642068696d60448201527f73656c6600000000000000000000000000000000000000000000000000000000606482015290519081900360840190fd5b600160a060020a03166000908152601d602090815260408083203384529091529020805460ff19166001179055565b601a54600090600160a060020a031615610c1057506000610a25565b50600190565b600f54600160a060020a03163314610c7a576040805160e560020a62461bcd02815260206004820152602960248201526000805160206126e28339815191526044820152600080516020612702833981519152606482015290519081900360840190fd5b610c83816122e5565b1515600114610d02576040805160e560020a62461bcd02815260206004820152603060248201527f5f61646472206164647265737320646f6573206e6f74206578697374206f722060448201527f69732030783020286275726e696e672900000000000000000000000000000000606482015290519081900360840190fd5b601a805473ffffffffffffffffffffffffffffffffffffffff1916600160a060020a0392909216919091179055565b600f54600160a060020a03163314610d95576040805160e560020a62461bcd02815260206004820152602960248201526000805160206126e28339815191526044820152600080516020612702833981519152606482015290519081900360840190fd5b601655565b601b5481565b600160a060020a038116600090815260076020526040902054600211610e36576040805160e560020a62461bcd02815260206004820152602960248201527f696e766573746f7220616c726561647920617574686f72697a656420616e206160448201527f6363726564697465640000000000000000000000000000000000000000000000606482015290519081900360840190fd5b600160a060020a038116600090815260076020526040902054610e6090600163ffffffff61230f16565b5050565b600160a060020a038116331415610eea576040805160e560020a62461bcd028152602060048201526024808201527f6d73672e73656e6465722063616e6e6f7420617574686f72697a65642068696d60448201527f73656c6600000000000000000000000000000000000000000000000000000000606482015290519081900360840190fd5b600160a060020a0381166000818152601d602090815260408083203380855290835292819020805460ff1916600117905580519384529083019190915280517ff4caeb2d6ca8932a215a353d0703c326ec2d81fc68170f320eb2ab49e9df61f99281900390910190a150565b600083600d5481811515610f6657fe5b0615610fe2576040805160e560020a62461bcd02815260206004820152603360248201527f756e61626c6520746f206d6f6469667920746f6b656e2062616c616e6365732060448201527f61742074686973206772616e756c617269747900000000000000000000000000606482015290519081900360840190fd5b600f54600160a060020a03163314611046576040805160e560020a62461bcd02815260206004820152602960248201526000805160206126e28339815191526044820152600080516020612702833981519152606482015290519081900360840190fd5b600a5460009081526008602052604090205460ff1615156001146110da576040805160e560020a62461bcd02815260206004820152602e60248201527f7265717569726573206368616e676564207374617475732066726f6d2070656e60448201527f64696e6720746f20616374697665000000000000000000000000000000000000606482015290519081900360840190fd5b60175460ff161515600114611139576040805160e560020a62461bcd02815260206004820152601a60248201527f746f6b656e2069737375616e63652069732066696e6973686564000000000000604482015290519081900360640190fd5b611144600a54612321565b604080516060810182528781524260208083019182526000838501818152868252600390925293909320915182555160018201559051600290910155600e54909250611196908663ffffffff61230f16565b600e55336000908152602081905260409020546111b9908663ffffffff61230f16565b336000908152602081815260408083209390935560018152828220858352905220546111eb908663ffffffff61230f16565b33600081815260016020818152604080842088855282528084209590955583835260028152848320805492830181558352808320909101869055835183815280820184905293840189905260a06060850181815289519186019190915288517f2fe5be0146f74c5bce36c0b80911af6c7d86ff27e89d5cfa61fc681327954e5d9585948c948c948c949092608085019260c0860192908801918190849084905b838110156112a357818101518382015260200161128b565b50505050905090810190601f1680156112d05780820380516001836020036101000a031916815260200191505b50838103825284518152845160209182019186019080838360005b838110156113035781810151838201526020016112eb565b50505050905090810190601f1680156113305780820380516001836020036101000a031916815260200191505b5097505050505050505060405180910390a17fc8d64290e05791ddb8e7c779289e066d776a0630d8fb0adb646a94b9ae85b7728233338888886040518087815260200186600160a060020a0316600160a060020a0316815260200185600160a060020a0316600160a060020a031681526020018481526020018060200180602001838103835285818151815260200191508051906020019080838360005b838110156113e65781810151838201526020016113ce565b50505050905090810190601f1680156114135780820380516001836020036101000a031916815260200191505b50838103825284518152845160209182019186019080838360005b8381101561144657818101518382015260200161142e565b50505050905090810190601f1680156114735780820380516001836020036101000a031916815260200191505b509850505050505050505060405180910390a1601c5460ff1615610abd57604080516000815233602082015280820187905290517fddf252ad1be2c89b69c2b068fc378daa952ba7f163c4a11628f55a4df523b3ef9181900360600190a15050505050565b600f54600160a060020a0316331461153c576040805160e560020a62461bcd02815260206004820152602960248201526000805160206126e28339815191526044820152600080516020612702833981519152606482015290519081900360840190fd5b6017805460ff19169055565b61155233846115ed565b15156115ce576040805160e560020a62461bcd02815260206004820152603860248201527f73656e646572206973206e6f7420617574686f72697a656420746f206f70657260448201527f6174652077697468205f66726f6d2773206163636f756e740000000000000000606482015290519081900360840190fd5b6115d9838383611c73565b505050565b601a54600160a060020a031681565b600081600160a060020a031683600160a060020a031614806116345750600160a060020a038084166000908152601d602090815260408083209386168352929052205460ff165b9392505050565b61164533846115ed565b15156116c1576040805160e560020a62461bcd02815260206004820152603860248201527f73656e646572206973206e6f7420617574686f72697a656420746f206f70657260448201527f6174652077697468205f66726f6d2773206163636f756e740000000000000000606482015290519081900360840190fd5b610b3984848484611896565b60018110156116d857fe5b6116e183612321565b600955600a839055600b829055600c8054604160ff19918216179091556000600e55600d829055601c80549091166001179055600f805473ffffffffffffffffffffffffffffffffffffffff19163390811790915560408051808201909152908152601a54600160a060020a03166020820152611762906010906002612635565b50612710601255620f4240601355611779336123ce565b50600a54600b546040805192835260208301919091523382820152517f9ae979c8e1266c2f250aee2ce3946e415bd909a9cf1821aab705834932fd12ad9181900360600190a1505050565b6000908152600860205260409020805460ff19166001179055565b600160a060020a038116331415611840576040805160e560020a62461bcd02815260206004820181905260248201527f6d73672e73656e6465722063616e6e6f74207265766f6b652068696d73656c66604482015290519081900360640190fd5b600160a060020a0381166000818152601d60209081526040808320338085529252808320805460ff19169055519092917f50546e66e5f44d728365dc3908c63bc5cfeeab470722c1677e3073a6ac294aa191a350565b81600d54818115156118a457fe5b0615611920576040805160e560020a62461bcd02815260206004820152603360248201527f756e61626c6520746f206d6f6469667920746f6b656e2062616c616e6365732060448201527f61742074686973206772616e756c617269747900000000000000000000000000606482015290519081900360840190fd5b600160a060020a03841660009081526001602090815260408083208884529091529020548311156119c1576040805160e560020a62461bcd02815260206004820152602b60248201527f6e6f7420656e6f756768207472616e6368652d73706563696669632066756e6460448201527f696e6720746f206275726e000000000000000000000000000000000000000000606482015290519081900360840190fd5b600e546119d4908463ffffffff6124ac16565b600e55600160a060020a038416600090815260208190526040902054611a00908463ffffffff6124ac16565b600160a060020a038516600090815260208181526040808320939093556001815282822088835290522054611a3b908463ffffffff6124ac16565b507fa1c85a30dec08aa526dc5a3ca33087f723335ec5c1614ecf0036da150a6971c885338686866040518086815260200185600160a060020a0316600160a060020a0316815260200184600160a060020a0316600160a060020a0316815260200183815260200180602001828103825283818151815260200191508051906020019080838360005b83811015611adb578181015183820152602001611ac3565b50505050905090810190601f168015611b085780820380516001836020036101000a031916815260200191505b50965050505050505060405180910390a17fea01d24fee0ecbb349ab449ea41d11599fd91ba758653579b30d38d63e2adedb338585856040518085600160a060020a0316600160a060020a0316815260200184600160a060020a0316600160a060020a0316815260200183815260200180602001828103825283818151815260200191508051906020019080838360005b83811015611bb1578181015183820152602001611b99565b50505050905090810190601f168015611bde5780820380516001836020036101000a031916815260200191505b509550505050505060405180910390a1600160a060020a0384166000908152602081905260409020541515611c1857611c16846124c3565b505b601c5460ff1615610abd5760408051600160a060020a03861681526000602082015280820185905290517fddf252ad1be2c89b69c2b068fc378daa952ba7f163c4a11628f55a4df523b3ef9181900360600190a15050505050565b600080606060008086600d5481811515611c8957fe5b0615611d05576040805160e560020a62461bcd02815260206004820152603360248201527f756e61626c6520746f206d6f6469667920746f6b656e2062616c616e6365732060448201527f61742074686973206772616e756c617269747900000000000000000000000000606482015290519081900360840190fd5b600160a060020a038916600090815260208190526040902054881115611d75576040805160e560020a62461bcd02815260206004820152601a60248201527f6e6f7420656e6f7567682066756e64696e6720746f206275726e000000000000604482015290519081900360640190fd5b60009550600194505b8786101561218657600160a060020a03891660009081526002602090815260409182902080548351818402810184019094528084529091830182828015611de457602002820191906000526020600020905b815481526020019060010190808311611dd0575b505050505093508385855103815181101515611dfc57fe5b602090810290910101519250611e18888763ffffffff6124ac16565b600160a060020a038a16600090815260016020908152604080832087845290915290205410611fdd57611e63611e54898863ffffffff6124ac16565b600e549063ffffffff6124ac16565b600e55611e9e611e79898863ffffffff6124ac16565b600160a060020a038b166000908152602081905260409020549063ffffffff6124ac16565b600160a060020a038a16600090815260208190526040902055611efa611eca898863ffffffff6124ac16565b600160a060020a038b1660009081526001602090815260408083208884529091529020549063ffffffff6124ac16565b507fa1c85a30dec08aa526dc5a3ca33087f723335ec5c1614ecf0036da150a6971c883338b8b8b6040518086815260200185600160a060020a0316600160a060020a0316815260200184600160a060020a0316600160a060020a0316815260200183815260200180602001828103825283818151815260200191508051906020019080838360005b83811015611f9a578181015183820152602001611f82565b50505050905090810190601f168015611fc75780820380516001836020036101000a031916815260200191505b50965050505050505060405180910390a1612186565b600160a060020a0389166000908152600160209081526040808320868452909152902054600e54909250612017908363ffffffff6124ac16565b600e55600160a060020a038916600090815260208190526040902054612043908363ffffffff6124ac16565b600160a060020a038a1660009081526020818152604080832093909355600181528282208683529052205461207e908363ffffffff6124ac16565b5061208f868363ffffffff61230f16565b95506120a285600163ffffffff61230f16565b94507fa1c85a30dec08aa526dc5a3ca33087f723335ec5c1614ecf0036da150a6971c883338b8b8b6040518086815260200185600160a060020a0316600160a060020a0316815260200184600160a060020a0316600160a060020a0316815260200183815260200180602001828103825283818151815260200191508051906020019080838360005b8381101561214357818101518382015260200161212b565b50505050905090810190601f1680156121705780820380516001836020036101000a031916815260200191505b50965050505050505060405180910390a1611d7e565b7fea01d24fee0ecbb349ab449ea41d11599fd91ba758653579b30d38d63e2adedb338a8a8a6040518085600160a060020a0316600160a060020a0316815260200184600160a060020a0316600160a060020a0316815260200183815260200180602001828103825283818151815260200191508051906020019080838360005b8381101561221e578181015183820152602001612206565b50505050905090810190601f16801561224b5780820380516001836020036101000a031916815260200191505b509550505050505060405180910390a1600160a060020a038916600090815260208190526040902054151561228557612283896124c3565b505b601c5460ff16156122da5760408051600160a060020a038b168152600060208201528082018a905290517fddf252ad1be2c89b69c2b068fc378daa952ba7f163c4a11628f55a4df523b3ef9181900360600190a15b505050505050505050565b600080600160a060020a03831615156123015760009150612309565b5050803b8015905b50919050565b60008282018381101561163457600080fd5b60185460408051602080820185905281830193909352815180820383018152606090910191829052805160009384939182918401908083835b602083106123795780518252601f19909201916020918201910161235a565b5181516020939093036101000a600019018019909116921691909117905260405192018290039091206018549094506123b8935091506001905061230f565b50601954818115156123c657fe5b069392505050565b6000806123da83612519565b156123e85760009150612309565b5060148054600180820183557fce6d7b5282bd9a3661ae061feed1dbda4e52ab073b1f9285be6e155d9c38d4ec8201805473ffffffffffffffffffffffffffffffffffffffff1916600160a060020a03871690811790915560008181526005602090815260408083208690556004825291829020805460ff19169094179093559354845191825291810191909152825191927f33dda5dca20a95bec563f7c6e810061b24d464536df0636a17d2d041b8b0c66d92918290030190a150600192915050565b600080838311156124bc57600080fd5b5050900390565b600160a060020a03811660009081526005602052604081205460148054829081106124ea57fe5b6000918252602090912001805473ffffffffffffffffffffffffffffffffffffffff1916905550600192915050565b6000612524826122e5565b151560011461257d576040805160e560020a62461bcd02815260206004820152601560248201527f6e6f74206120726567756c617220616464726573730000000000000000000000604482015290519081900360640190fd5b50600160a060020a031660009081526004602052604090205460ff1690565b828054600181600116156101000203166002900490600052602060002090601f016020900481019282601f106125dd57805160ff191683800117855561260a565b8280016001018555821561260a579182015b8281111561260a5782518255916020019190600101906125ef565b50612616929150612696565b5090565b60408051808201825290600290829080388339509192915050565b826002810192821561268a579160200282015b8281111561268a578251825473ffffffffffffffffffffffffffffffffffffffff1916600160a060020a03909116178255602090920191600190910190612648565b506126169291506126b0565b610a2591905b80821115612616576000815560010161269c565b610a2591905b8082111561261657805473ffffffffffffffffffffffffffffffffffffffff191681556001016126b65600726571756972656d656e74206f6e6c794f776e6572206f6620436f6d70616e79206d6f6469666965720000000000000000000000000000000000000000000000a165627a7a72305820cffc9b6d4369801a676689308a49ffca02335bafdcd5cae41102370f40cf82fd0029",
  "source": "pragma solidity ^0.4.24;\n\n/// For more documentation and illustration see the adjacent paper.\n\nimport \"./SafeMath.sol\";\n\ncontract EquityTokenFactory /* is ERC20Interface, ERC777Interface, EIP1410Interface, EIP1400Interface */ {\n\n    using SafeMath for uint;\n\n    mapping (address => uint) OwnerToBalance; ///@notice wallet of tokens and balances of an owner\n    ///@notice wallet of tokens and balances of an owner depending on tranche\n    mapping (address => mapping (uint => uint)) OwnerToTrancheToBalance; \n    mapping (address => uint[]) OwnerToTranches; ///@notice tranches array of an owner\n    mapping (uint => TrancheMetaData) IdToMetaData; ///@notice mapping of metadata belonging to a token tranche\n    mapping (address => bool) AddressExists; ///@notice required for check if address is already stakeholder, more efficient than iterating array\n    mapping (address => uint) AddressToIndex; ///@notice index of address in shareholder array (TotalDistribution) \n    ///@notice allowance for transfer from _owner to _receiver to withdraw (ERC20 & ERC777)\n    mapping (address => mapping (address => uint)) allowed; \n    ///@notice maps an address if it passed KYC protocol; 0 = not accredited, 1 = investor, 2 = advocate)\n    mapping (address => uint) LevelOfAccreditation;\n    mapping (bytes32 => bool) CompanyToRequest; ///@notice maps if a company went through KYC/AML protocol;\n\n    modifier checkGranularity(uint _amount){\n        require((_amount % granular == 0), \"unable to modify token balances at this granularity\");\n        _;\n    }\n    \n    modifier onlyOwnerOfCom() {\n        require(msg.sender == companyOwner, \"requirement onlyOwner of Company modifier\");\n        _;\n    }\n\n    modifier onlyOwner(address _from) {\n        require((msg.sender == _from), \"requirement onlyOwner\");\n        _;\n    }\n\n    modifier checkAccreditation(address _to) {\n        require((LevelOfAccreditation[_to] == 1),\"requirement of successful KYC protocol\");\n        _;\n    }\n\n\n//-----EquityTokenFactory-----------------------------------------------------------------------------------------------------------------  \n      /* This structure allows a company to issue equity via token (quasi-shares) and determines the issuance process\n          - the creating company is an administrator and can start various equity related processes (e.g. pay dividend, recapitalize, ...)\n          - in general the contracts tracks and calculates two seperate balances, first the overall balance of a token holder and second\n            the tranche-specific balance of a token holder (e.g. if minting, sending, burning tokens)\n          - ERC20 is a de facto standard for trading of tokens\n          - ERC777 introduces operators (higher level administration), in order to e.g prepare for governmental control\n          - EIP1410 proposes tranching of a token (partial fungible tokens)\n          - EIP1400 proposes in-depth token management (e.g. transfer restrictions and regulation)\n          */\n\n\n    //@ToDo indexing of from and to and tokenId beneficial, but dropped for mocha testing environment\n    event newTokenIssuance(bytes32 companyName, bytes32 tokenTicker, address companyOwner);\n\n    ///@notice events for issuance of additional equity (recapitalization) and burning of existing capital\n    ///@notice ERC777 and EIP1410 mandatory\n    event Minted(address operator, address to, uint amount, bytes userData, bytes operatorData);\n    event Burned(address operator, address from, uint amount, bytes operatorData);\n    event MintedByTranche(uint trancheId, address operator, address to, uint amount, bytes userData, bytes operatorData);\n    event BurnedByTranche(uint trancheId, address operator, address from, uint amount, bytes operatorData);\n    ///@dev adjustments and new length of shareholder book\n    event newShareholder(address newShareholder, uint length);\n\n    ///@notice the core data of a issued token\n    ///@param granular for explanation see constructor\n    ///@param defaultOperator every token has two higher level administrators by default -> issuing company and government; can be changed\n    uint internal tokenId;\n    bytes32 internal companyName;\n    bytes32 internal tokenTicker;\n    byte internal categoryShare;\n    uint internal granular;\n    uint internal totalAmount;\n    address internal companyOwner;\n    address[2] internal defaultOperator;\n    uint internal regulationMaximumInvestors;\n    uint internal regulationMaximumSharesPerInvestor;\n  \n    ///@notice array of all owner of one equity token, thus the shareholder book\n    address[] public TotalDistribution;\n\n    ///@notice struct with metadata of every tranche\n    struct TrancheMetaData {\n        uint trancheAmount;\n        uint mintedTimeStamp;\n        uint LockupPeriod;\n    }\n\n    Document[] internal TokenDocuments;\n    struct Document {\n        bytes32 documentName;\n        string key;\n        bytes32 documentHash;\n    }\n\n    ///@notice default lockup of tranche after trading\n    uint internal defaultLockupPeriod = 365 days;\n\n    ///@notice token issuer can specify to stop token issuance, cannot be reverted\n    bool public isIssuable = true;\n    \n    ///@dev declares a random nonce which increases every time random number generator is used\n    ///@dev ensures, that randomId is always 12 digits\n    uint internal randNonce = 0;\n    uint internal idModulus = 10 ** 12;\n\n    ///@notice address of government, by default operator of any token; can be changed by companyOwner\n    address public governmentAddress;\n\n    ///@notice fee in order to get KYC/AML process\n    uint public accreditationFee = 1 ether;\n\n    ///@notice set if token should be interoperable with exchanges\n    bool internal erc20compatible;\n\n    ///@dev creates new token shell (status pending), safes information in storage\n    ///@param _granularity ensures, that granularity of shares is always a positive natural figure, cannot be changed ever\n    function createToken(bytes32 _companyName, bytes32 _tokenTicker, uint _granularity) public {\n        assert(_granularity >= 1); // \"granularity has to be greater or equal 1\"\n        tokenId = _generateRandomId(_companyName);\n        companyName = _companyName;\n        tokenTicker = _tokenTicker;\n        categoryShare = \"A\";\n        totalAmount = 0;\n        granular = _granularity;\n        erc20compatible = true;\n        companyOwner = msg.sender;\n        defaultOperator = [msg.sender, governmentAddress];\n\n        ///@dev solidity declares a variable by default to 0, thus in the test environment we have to simulate regulation requirements\n        regulationMaximumInvestors = 10 ** 4;\n        regulationMaximumSharesPerInvestor = 10 ** 6;\n\n        _toShareholderbook(msg.sender);\n\n        emit newTokenIssuance(companyName, tokenTicker, msg.sender);\n    }\n  \n    ///@notice process to mint new equity\n    ///@notice compliant with ERC777 & EIP1410\n    function mint(uint _amount, bytes _userData, bytes _operatorData) public checkGranularity(_amount) onlyOwnerOfCom {         \n        require((CompanyToRequest[companyName] == true), \"requires changed status from pending to active\");\n        require((isIssuable == true), \"token issuance is finished\");\n\n        ///@notice creates random Id for new tranche of equity, stores only Id in array and metadata in metadata struct\n        uint trancheId = _generateRandomId(companyName);\n        IdToMetaData[trancheId] = (TrancheMetaData(_amount, block.timestamp, 0));\n\n        ///@notice increase balance in two ways, first overall balance of owner, second tranche-specific balanche of owner\n        totalAmount = totalAmount.add(_amount);\n        OwnerToBalance[msg.sender] = OwnerToBalance[msg.sender].add(_amount);\n        OwnerToTrancheToBalance[msg.sender][trancheId] = OwnerToTrancheToBalance[msg.sender][trancheId].add(_amount);\n\n        OwnerToTranches[msg.sender].push(uint(trancheId));\n\n        emit Minted(msg.sender, msg.sender, _amount, _userData, _operatorData);\n        emit MintedByTranche(trancheId, msg.sender, msg.sender, _amount, _userData, _operatorData);\n        if (erc20compatible) {emit Transfer(0x0, msg.sender, _amount);}\n    }\n        \n    ///@notice process to burn equity\n    ///@notice _burn function can be used by Company AND private token holder, burn is a shell and important to fullfil onlyOwner requirement\n    ///@notice compliant with ERC777 & EIP1410\n    function burn(address _from, uint _amount, bytes _operatorData) public onlyOwner(_from) {\n        _burn(_from, _amount, _operatorData);\n    }\n    function _burn(address _from, uint _amount, bytes _operatorData) private checkGranularity(_amount) {\n        require((OwnerToBalance[_from] >= _amount), \"not enough funding to burn\");\n        \n        uint burnedAmount = 0;\n        uint counter = 1;\n\n        ///@dev this loop and its break requirement is either fullfiled if a single tranche balance is > _amount, or the sum of different tranche balances > _amount\n        ///@dev if not otherwise stated all functions use the latest tranche first to send/burn tokens (First In First Out), this can be changed in detail by owners\n        while(burnedAmount < _amount) {\n            uint[] memory tempTranches = OwnerToTranches[_from]; \n            uint tempTrancheId = tempTranches[tempTranches.length - counter];\n                \n            if(OwnerToTrancheToBalance[_from][tempTrancheId] >= _amount.sub(burnedAmount)) {\n                totalAmount = totalAmount.sub((_amount.sub(burnedAmount)));\n                OwnerToBalance[_from] = OwnerToBalance[_from].sub((_amount.sub(burnedAmount)));\n                OwnerToTrancheToBalance[_from][tempTrancheId].sub((_amount.sub(burnedAmount)));\n                emit BurnedByTranche(tempTrancheId, msg.sender, _from, _amount, _operatorData);\n                break;\n            }\n            else {\n                uint burnTx = OwnerToTrancheToBalance[_from][tempTrancheId];\n                totalAmount = totalAmount.sub(burnTx);\n                OwnerToBalance[_from] = OwnerToBalance[_from].sub(burnTx);\n                OwnerToTrancheToBalance[_from][tempTrancheId].sub(burnTx);\n\n                burnedAmount = burnedAmount.add(burnTx);\n                counter = counter.add(1);\n                emit BurnedByTranche(tempTrancheId, msg.sender, _from, _amount, _operatorData);\n            }\n        }\n        emit Burned(msg.sender, _from, _amount, _operatorData);\n        if(OwnerToBalance[_from] == 0) {_deleteShareholder(_from);}\n        if(erc20compatible) {emit Transfer(_from, address(0x0), _amount);}\n    }\n\n    ///@notice burn function can be used by Company AND private token holder, important to fullfil onlyOwner requirement\n    function burnByTranche(uint _trancheId, address _from, uint _amount, bytes _operatorData) public onlyOwner(_from) {\n        _burnByTranche(_trancheId, _from, _amount, _operatorData);\n    }\n    function _burnByTranche(uint _trancheId, address _from, uint _amount, bytes _operatorData) private checkGranularity(_amount) {\n        require((OwnerToTrancheToBalance[_from][_trancheId] >= _amount), \"not enough tranche-specific funding to burn\");\n                \n        totalAmount = totalAmount.sub(_amount);\n        OwnerToBalance[_from] = OwnerToBalance[_from].sub(_amount);\n        OwnerToTrancheToBalance[_from][_trancheId].sub(_amount);\n\n        emit BurnedByTranche(_trancheId, msg.sender, _from, _amount, _operatorData);\n        emit Burned(msg.sender, _from, _amount, _operatorData);\n        if(OwnerToBalance[_from] == 0) {_deleteShareholder(_from);}\n        if(erc20compatible) {emit Transfer(_from, address(0x0), _amount);}\n    }\n\n    ///@notice ERC777 mandatory\n    function operatorBurn(address _from, uint _amount, bytes _operatorData) public {\n        require((isOperatorFor(msg.sender, _from)), \"sender is not authorized to operate with _from's account\");\n        _burn(_from, _amount, _operatorData);\n    }\n\n    ///@notice EIP1400 mandatory\n    function operatorBurnByTranche(uint _trancheId, address _from, uint _amount, bytes _operatorData) public {\n        require((isOperatorFor(msg.sender, _from)), \"sender is not authorized to operate with _from's account\");\n        _burnByTranche(_trancheId, _from, _amount, _operatorData);\n    }\n\n    ///@dev generates an unique 8 digit tokenId by hashing string and a nonce\n    function _generateRandomId() internal view returns(uint) {\n        uint random = uint(keccak256(abi.encodePacked(\"randomString\", randNonce)));\n        randNonce.add(1);\n        return random % idModulus;\n    }\n    function _generateRandomId(bytes32 _stringInput) internal view returns(uint) {\n        uint random = uint(keccak256(abi.encodePacked(_stringInput, randNonce)));\n        randNonce.add(1);\n        return random % idModulus;\n    }\n\n    ///@dev iternal function to push new address to shareholder book, checks if address exists first\n    function _toShareholderbook(address _addr) internal returns(bool success_) {\n        if (_checkExistence(_addr)) return false;\n\n        uint AddressIndex = uint(TotalDistribution.push(address(_addr))) - 1;\n        AddressToIndex[_addr] = AddressIndex;\n        AddressExists[_addr] = true;\n\n        emit newShareholder(_addr, TotalDistribution.length);\n        return true;\n    }\n\n    function _deleteShareholder(address _from) internal returns(bool success_) {\n        uint tempIndex = AddressToIndex[_from];\n        delete TotalDistribution[tempIndex];\n        return true;\n    }\n\n    /* ///@notice helps to re-sort arrays\n    function remove(uint index)  returns(uint[]) {\n        if (index >= array.length) return;\n        for (uint i = index; i<array.length-1; i++){\n            array[i] = array[i+1];}\n        array.length--;\n        return array;\n    } */\n    \n    ///@dev manage documents associated with token, using IPFS encrypted peer-to-peer filesharing\n    ///@notice EIP1400 proposal\n    function setDocument(bytes32 _name, string _key, bytes32 _documentHash) external payable {\n        require((msg.value == accreditationFee),\"not enough ether in for payable function\");\n        TokenDocuments.push(Document(_name, _key,_documentHash));\n        // Qmd7k4CUpE8Q6zbWJyVXCrdUbtCDBiYaCazpYmg2CQvn4q 8272F50FFD9253E3 ipo-prospectus-onepager.pdf \n    }\n\n    function getDocument(bytes32 _name, address _documentsFrom) external view returns(string, bytes32){\n        require((LevelOfAccreditation[msg.sender] == 100), \"requires advocate to see download files\");\n        require((mAuthorized[msg.sender][_documentsFrom]), \"advocate is not authorized to retrieve files\");\n        for (uint i = 0; i < TokenDocuments.length; i++) {\n            if(TokenDocuments[i].documentName == _name) {\n                return (TokenDocuments[i].key, TokenDocuments[i].documentHash);\n            }\n        }\n    }\n\n    ///@notice authorize a third party _operator to manage (send) msg.sender's tokens. msg.sender always operator himself, thus requirement\n    ///@notice ERC777 mandatory\n    function authorizeAdvocate(address _advocate) public {\n        require((_advocate != msg.sender), \"msg.sender cannot authorized himself\");\n        mAuthorized[_advocate][msg.sender] = true;\n    }\n\n    ///@notice advocate can clear a companies request, changing status pending into active token\n    function clearRequest(bytes32 _companyName) external {\n        // require((LevelOfAccreditation[msg.sender] == 100), \"requires advocate to activate token\"); omitted for testing\n        CompanyToRequest[_companyName] = true;\n    }\n\n    ///@notice ERC20 mandatory\n    event Transfer(address _from, address _to, uint _txamount);\n    \n//-----EquityTokenFactory-----------------------------------------------------------------------------------------------------------------\n\n\n//-----TokenGovernance-------------------------------------------------------------------------------------------------------------------- \n    ///@notice fires event if authorization of operator for an address\n    ///@notice ERC777 mandatory\n    event AuthorizedOperator(address operator, address tokenHolder);\n    event RevokedOperator(address indexed operator, address indexed tokenHolder);\n\n    mapping(address => mapping(address => bool)) internal mAuthorized;\n\n    ///@notice ERC777 mandatory\n    function defaultOperators() public view returns(address[2]) {\n        return defaultOperator;\n    }\n\n    ///@notice authorize a third party _operator to manage (send) msg.sender's tokens. msg.sender always operator himself, thus requirement\n    ///@notice ERC777 mandatory\n    function authorizeOperator(address _operator) public {\n        require((_operator != msg.sender), \"msg.sender cannot authorized himself\");\n        mAuthorized[_operator][msg.sender] = true;\n        emit AuthorizedOperator(_operator, msg.sender);\n    }\n\n    ///@notice revoke a third party _operator's rights to manage (send) msg.sender's tokens.\n    ///@notice ERC777 mandatory, EIP1400 & EIP1410 in discussion\n    ///@notice it may be that regulations require an issuer or a trusted third party to retain the power thus it can be that revoking an operator\n    /// MUST NOT be allowed\n    function revokeOperator(address _operator) public {\n        require((_operator != msg.sender), \"msg.sender cannot revoke himself\");\n        mAuthorized[_operator][msg.sender] = false;\n        emit RevokedOperator(_operator, msg.sender);\n    }\n\n    ///@notice check whether the _operator address is allowed to manage the tokens held by _tokenHolder address.\n    ///@return true if _operator is authorized for _tokenHolder\n    ///@notice ERC777 mandatory\n    function isOperatorFor(address _operator, address _tokenHolder) public view returns(bool) {\n        return _operator == _tokenHolder || mAuthorized[_operator][_tokenHolder];\n    }\n\n    function setGovernmentAddress(address _addr) external onlyOwnerOfCom {\n        require((_isRegularAddress(_addr) == true), \"_addr address does not exist or is 0x0 (burning)\");\n        governmentAddress = _addr;\n    }\n\n    ///@notice owner can stop issuance, not revertable!\n    ///@notice EIP1400 mandatory\n    function stopIssuance() external onlyOwnerOfCom {\n        isIssuable = false;\n    }\n\n    ///@notice provides transparency wether defaultOperators can be adjusted by company: if government address is set company changed it and is thus not controllable (return false)\n    function isControllable() external view returns(bool) {\n        if(governmentAddress != address(0x0)) {return false;}\n        return true;\n    }\n\n    ///@dev checks existence of address in shareholder book by using mapping (address => bool)\n    function _checkExistence(address _addr) internal view returns(bool success_) {\n        require((_isRegularAddress(_addr) == true), \"not a regular address\");\n        return AddressExists[_addr];\n    }\n    \n    ///@notice check whether an address is a regular address (0x0 address and length of address). Suppress warning by \"// solhint-disable-line no-inline-assembly\"\n    function _isRegularAddress(address _addr) internal view returns(bool) {\n        if (_addr == 0x0) { \n            return false; }\n        uint size;\n        assembly { size := extcodesize(_addr) }\n        return size == 0;\n    }\n\n    ///@dev manage documents associated with investor\n    function uploadDocument(bytes32 _name, string _key, bytes32 _documentHash) external payable {\n        require((msg.value == accreditationFee),\"not enough ether in for payable function\");\n        TokenDocuments.push(Document(_name, _key,_documentHash));\n        /// QmQ5vhrL7uv6tuoN9KeVBwd4PwfQkXdVVmDLUZuTNxqgvm 882ACD0FD77E4VD KYC-documents.pdf \n    }\n\n    ///@notice advocate can approve investor to another level of accreditation; 0 = no investor, 1 = approved investor, 2 = advocate\n    function authorizeRequest(address _authorizedInvestor) external {\n        /// require((LevelOfAccreditation[msg.sender] == 100), \"requires advocate to authorize investor\"); omitted for testing\n        require((LevelOfAccreditation[_authorizedInvestor] < 2), \"investor already authorized an accredited\");\n        LevelOfAccreditation[_authorizedInvestor].add(1);\n    }\n\n    ///@notice this modul implements lockup periods, for the sake of simplicity it is not active within the contract.\n    /// one has to set LockupPeriod within minting function, and the require _isReady == true within transaction functions.\n    function _isReady(uint _trancheId) internal view returns(bool ready_) {\n        uint readyTime = uint(IdToMetaData[_trancheId].mintedTimeStamp + IdToMetaData[_trancheId].LockupPeriod);\n        return (block.timestamp >= readyTime);\n    }\n\n    function setLockup(uint _adjustedLockup) external onlyOwnerOfCom {\n        defaultLockupPeriod = _adjustedLockup;\n    }\n\n//-----TokenGovernance-------------------------------------------------------------------------------------------------------------------- \n\n}\n",
  "sourcePath": "D:\\BlockMarket\\solidity_eto-master\\contracts\\EquityTokenFactory.sol",
  "compiler": {
    "name": "solc",
    "version": "0.4.24+commit.e67f0147.Emscripten.clang"
  },
  "schemaVersion": "3.4.13",
  "updatedAt": "2025-05-02T09:23:11.789Z",
  "networkType": "ethereum",
  "devdoc": {
    "methods": {
      "createToken(bytes32,bytes32,uint256)": {
        "details": "creates new token shell (status pending), safes information in storage",
        "params": {
          "_granularity": "ensures, that granularity of shares is always a positive natural figure, cannot be changed ever"
        }
      },
      "isOperatorFor(address,address)": {
        "return": "true if _operator is authorized for _tokenHolder"
      },
      "setDocument(bytes32,string,bytes32)": {
        "details": "manage documents associated with token, using IPFS encrypted peer-to-peer filesharing"
      },
      "uploadDocument(bytes32,string,bytes32)": {
        "details": "manage documents associated with investor"
      }
    }
  },
  "userdoc": {
    "methods": {
      "authorizeAdvocate(address)": {
        "notice": "authorize a third party _operator to manage (send) msg.sender's tokens. msg.sender always operator himself, thus requirementERC777 mandatory"
      },
      "authorizeOperator(address)": {
        "notice": "authorize a third party _operator to manage (send) msg.sender's tokens. msg.sender always operator himself, thus requirementERC777 mandatory"
      },
      "authorizeRequest(address)": {
        "notice": "advocate can approve investor to another level of accreditation; 0 = no investor, 1 = approved investor, 2 = advocate"
      },
      "burn(address,uint256,bytes)": {
        "notice": "process to burn equity_burn function can be used by Company AND private token holder, burn is a shell and important to fullfil onlyOwner requirementcompliant with ERC777 & EIP1410"
      },
      "burnByTranche(uint256,address,uint256,bytes)": {
        "notice": "burn function can be used by Company AND private token holder, important to fullfil onlyOwner requirement"
      },
      "clearRequest(bytes32)": {
        "notice": "advocate can clear a companies request, changing status pending into active token"
      },
      "defaultOperators()": {
        "notice": "ERC777 mandatory"
      },
      "isControllable()": {
        "notice": "provides transparency wether defaultOperators can be adjusted by company: if government address is set company changed it and is thus not controllable (return false)"
      },
      "isOperatorFor(address,address)": {
        "notice": "check whether the _operator address is allowed to manage the tokens held by _tokenHolder address.ERC777 mandatory"
      },
      "mint(uint256,bytes,bytes)": {
        "notice": "process to mint new equitycompliant with ERC777 & EIP1410"
      },
      "operatorBurn(address,uint256,bytes)": {
        "notice": "ERC777 mandatory"
      },
      "operatorBurnByTranche(uint256,address,uint256,bytes)": {
        "notice": "EIP1400 mandatory"
      },
      "revokeOperator(address)": {
        "notice": "revoke a third party _operator's rights to manage (send) msg.sender's tokens.ERC777 mandatory, EIP1400 & EIP1410 in discussionit may be that regulations require an issuer or a trusted third party to retain the power thus it can be that revoking an operator MUST NOT be allowed"
      },
      "setDocument(bytes32,string,bytes32)": {
        "notice": "EIP1400 proposal"
      },
      "stopIssuance()": {
        "notice": "owner can stop issuance, not revertable!EIP1400 mandatory"
      }
    }
  }
}