{
  "contractName": "EquityToken",
  "abi": [
    {
      "constant": false,
      "inputs": [
        {
          "name": "_name",
          "type": "bytes32"
        },
        {
          "name": "_key",
          "type": "string"
        },
        {
          "name": "_documentHash",
          "type": "bytes32"
        }
      ],
      "name": "setDocument",
      "outputs": [],
      "payable": true,
      "stateMutability": "payable",
      "type": "function"
    },
    {
      "constant": true,
      "inputs": [
        {
          "name": "_name",
          "type": "bytes32"
        },
        {
          "name": "_documentsFrom",
          "type": "address"
        }
      ],
      "name": "getDocument",
      "outputs": [
        {
          "name": "",
          "type": "string"
        },
        {
          "name": "",
          "type": "bytes32"
        }
      ],
      "payable": false,
      "stateMutability": "view",
      "type": "function"
    },
    {
      "constant": true,
      "inputs": [],
      "name": "defaultOperators",
      "outputs": [
        {
          "name": "",
          "type": "address[2]"
        }
      ],
      "payable": false,
      "stateMutability": "view",
      "type": "function"
    },
    {
      "constant": true,
      "inputs": [
        {
          "name": "",
          "type": "uint256"
        }
      ],
      "name": "TotalDistribution",
      "outputs": [
        {
          "name": "",
          "type": "address"
        }
      ],
      "payable": false,
      "stateMutability": "view",
      "type": "function"
    },
    {
      "constant": false,
      "inputs": [
        {
          "name": "_trancheId",
          "type": "uint256"
        },
        {
          "name": "_from",
          "type": "address"
        },
        {
          "name": "_amount",
          "type": "uint256"
        },
        {
          "name": "_operatorData",
          "type": "bytes"
        }
      ],
      "name": "burnByTranche",
      "outputs": [],
      "payable": false,
      "stateMutability": "nonpayable",
      "type": "function"
    },
    {
      "constant": true,
      "inputs": [],
      "name": "isIssuable",
      "outputs": [
        {
          "name": "",
          "type": "bool"
        }
      ],
      "payable": false,
      "stateMutability": "view",
      "type": "function"
    },
    {
      "constant": false,
      "inputs": [
        {
          "name": "_from",
          "type": "address"
        },
        {
          "name": "_amount",
          "type": "uint256"
        },
        {
          "name": "_operatorData",
          "type": "bytes"
        }
      ],
      "name": "burn",
      "outputs": [],
      "payable": false,
      "stateMutability": "nonpayable",
      "type": "function"
    },
    {
      "constant": false,
      "inputs": [
        {
          "name": "_advocate",
          "type": "address"
        }
      ],
      "name": "authorizeAdvocate",
      "outputs": [],
      "payable": false,
      "stateMutability": "nonpayable",
      "type": "function"
    },
    {
      "constant": true,
      "inputs": [],
      "name": "isControllable",
      "outputs": [
        {
          "name": "",
          "type": "bool"
        }
      ],
      "payable": false,
      "stateMutability": "view",
      "type": "function"
    },
    {
      "constant": false,
      "inputs": [
        {
          "name": "_name",
          "type": "bytes32"
        },
        {
          "name": "_key",
          "type": "string"
        },
        {
          "name": "_documentHash",
          "type": "bytes32"
        }
      ],
      "name": "uploadDocument",
      "outputs": [],
      "payable": true,
      "stateMutability": "payable",
      "type": "function"
    },
    {
      "constant": false,
      "inputs": [
        {
          "name": "_addr",
          "type": "address"
        }
      ],
      "name": "setGovernmentAddress",
      "outputs": [],
      "payable": false,
      "stateMutability": "nonpayable",
      "type": "function"
    },
    {
      "constant": false,
      "inputs": [
        {
          "name": "_adjustedLockup",
          "type": "uint256"
        }
      ],
      "name": "setLockup",
      "outputs": [],
      "payable": false,
      "stateMutability": "nonpayable",
      "type": "function"
    },
    {
      "constant": true,
      "inputs": [],
      "name": "accreditationFee",
      "outputs": [
        {
          "name": "",
          "type": "uint256"
        }
      ],
      "payable": false,
      "stateMutability": "view",
      "type": "function"
    },
    {
      "constant": false,
      "inputs": [
        {
          "name": "_authorizedInvestor",
          "type": "address"
        }
      ],
      "name": "authorizeRequest",
      "outputs": [],
      "payable": false,
      "stateMutability": "nonpayable",
      "type": "function"
    },
    {
      "constant": false,
      "inputs": [
        {
          "name": "_operator",
          "type": "address"
        }
      ],
      "name": "authorizeOperator",
      "outputs": [],
      "payable": false,
      "stateMutability": "nonpayable",
      "type": "function"
    },
    {
      "constant": false,
      "inputs": [
        {
          "name": "_amount",
          "type": "uint256"
        },
        {
          "name": "_userData",
          "type": "bytes"
        },
        {
          "name": "_operatorData",
          "type": "bytes"
        }
      ],
      "name": "mint",
      "outputs": [],
      "payable": false,
      "stateMutability": "nonpayable",
      "type": "function"
    },
    {
      "constant": false,
      "inputs": [],
      "name": "stopIssuance",
      "outputs": [],
      "payable": false,
      "stateMutability": "nonpayable",
      "type": "function"
    },
    {
      "constant": false,
      "inputs": [
        {
          "name": "_from",
          "type": "address"
        },
        {
          "name": "_amount",
          "type": "uint256"
        },
        {
          "name": "_operatorData",
          "type": "bytes"
        }
      ],
      "name": "operatorBurn",
      "outputs": [],
      "payable": false,
      "stateMutability": "nonpayable",
      "type": "function"
    },
    {
      "constant": true,
      "inputs": [
        {
          "name": "",
          "type": "uint256"
        }
      ],
      "name": "Proposals",
      "outputs": [
        {
          "name": "name",
          "type": "bytes32"
        },
        {
          "name": "voteCount",
          "type": "uint256"
        }
      ],
      "payable": false,
      "stateMutability": "view",
      "type": "function"
    },
    {
      "constant": true,
      "inputs": [],
      "name": "governmentAddress",
      "outputs": [
        {
          "name": "",
          "type": "address"
        }
      ],
      "payable": false,
      "stateMutability": "view",
      "type": "function"
    },
    {
      "constant": true,
      "inputs": [
        {
          "name": "_operator",
          "type": "address"
        },
        {
          "name": "_tokenHolder",
          "type": "address"
        }
      ],
      "name": "isOperatorFor",
      "outputs": [
        {
          "name": "",
          "type": "bool"
        }
      ],
      "payable": false,
      "stateMutability": "view",
      "type": "function"
    },
    {
      "constant": false,
      "inputs": [
        {
          "name": "_trancheId",
          "type": "uint256"
        },
        {
          "name": "_from",
          "type": "address"
        },
        {
          "name": "_amount",
          "type": "uint256"
        },
        {
          "name": "_operatorData",
          "type": "bytes"
        }
      ],
      "name": "operatorBurnByTranche",
      "outputs": [],
      "payable": false,
      "stateMutability": "nonpayable",
      "type": "function"
    },
    {
      "constant": false,
      "inputs": [
        {
          "name": "_companyName",
          "type": "bytes32"
        },
        {
          "name": "_tokenTicker",
          "type": "bytes32"
        },
        {
          "name": "_granularity",
          "type": "uint256"
        }
      ],
      "name": "createToken",
      "outputs": [],
      "payable": false,
      "stateMutability": "nonpayable",
      "type": "function"
    },
    {
      "constant": false,
      "inputs": [
        {
          "name": "_companyName",
          "type": "bytes32"
        }
      ],
      "name": "clearRequest",
      "outputs": [],
      "payable": false,
      "stateMutability": "nonpayable",
      "type": "function"
    },
    {
      "constant": false,
      "inputs": [
        {
          "name": "_operator",
          "type": "address"
        }
      ],
      "name": "revokeOperator",
      "outputs": [],
      "payable": false,
      "stateMutability": "nonpayable",
      "type": "function"
    },
    {
      "anonymous": false,
      "inputs": [
        {
          "indexed": false,
          "name": "_message",
          "type": "string"
        },
        {
          "indexed": false,
          "name": "_company",
          "type": "address"
        }
      ],
      "name": "adHocMessage",
      "type": "event"
    },
    {
      "anonymous": false,
      "inputs": [
        {
          "indexed": false,
          "name": "winnerName",
          "type": "bytes32"
        },
        {
          "indexed": false,
          "name": "countVotes",
          "type": "uint256"
        }
      ],
      "name": "votingSuccessful",
      "type": "event"
    },
    {
      "anonymous": false,
      "inputs": [
        {
          "indexed": false,
          "name": "_from",
          "type": "address"
        },
        {
          "indexed": false,
          "name": "_to",
          "type": "address"
        },
        {
          "indexed": false,
          "name": "_txamount",
          "type": "uint256"
        }
      ],
      "name": "Approval",
      "type": "event"
    },
    {
      "anonymous": false,
      "inputs": [
        {
          "indexed": false,
          "name": "companyName",
          "type": "bytes32"
        },
        {
          "indexed": false,
          "name": "tokenTicker",
          "type": "bytes32"
        },
        {
          "indexed": false,
          "name": "companyOwner",
          "type": "address"
        }
      ],
      "name": "newTokenIssuance",
      "type": "event"
    },
    {
      "anonymous": false,
      "inputs": [
        {
          "indexed": false,
          "name": "operator",
          "type": "address"
        },
        {
          "indexed": false,
          "name": "to",
          "type": "address"
        },
        {
          "indexed": false,
          "name": "amount",
          "type": "uint256"
        },
        {
          "indexed": false,
          "name": "userData",
          "type": "bytes"
        },
        {
          "indexed": false,
          "name": "operatorData",
          "type": "bytes"
        }
      ],
      "name": "Minted",
      "type": "event"
    },
    {
      "anonymous": false,
      "inputs": [
        {
          "indexed": false,
          "name": "operator",
          "type": "address"
        },
        {
          "indexed": false,
          "name": "from",
          "type": "address"
        },
        {
          "indexed": false,
          "name": "amount",
          "type": "uint256"
        },
        {
          "indexed": false,
          "name": "operatorData",
          "type": "bytes"
        }
      ],
      "name": "Burned",
      "type": "event"
    },
    {
      "anonymous": false,
      "inputs": [
        {
          "indexed": false,
          "name": "trancheId",
          "type": "uint256"
        },
        {
          "indexed": false,
          "name": "operator",
          "type": "address"
        },
        {
          "indexed": false,
          "name": "to",
          "type": "address"
        },
        {
          "indexed": false,
          "name": "amount",
          "type": "uint256"
        },
        {
          "indexed": false,
          "name": "userData",
          "type": "bytes"
        },
        {
          "indexed": false,
          "name": "operatorData",
          "type": "bytes"
        }
      ],
      "name": "MintedByTranche",
      "type": "event"
    },
    {
      "anonymous": false,
      "inputs": [
        {
          "indexed": false,
          "name": "trancheId",
          "type": "uint256"
        },
        {
          "indexed": false,
          "name": "operator",
          "type": "address"
        },
        {
          "indexed": false,
          "name": "from",
          "type": "address"
        },
        {
          "indexed": false,
          "name": "amount",
          "type": "uint256"
        },
        {
          "indexed": false,
          "name": "operatorData",
          "type": "bytes"
        }
      ],
      "name": "BurnedByTranche",
      "type": "event"
    },
    {
      "anonymous": false,
      "inputs": [
        {
          "indexed": false,
          "name": "newShareholder",
          "type": "address"
        },
        {
          "indexed": false,
          "name": "length",
          "type": "uint256"
        }
      ],
      "name": "newShareholder",
      "type": "event"
    },
    {
      "anonymous": false,
      "inputs": [
        {
          "indexed": false,
          "name": "_from",
          "type": "address"
        },
        {
          "indexed": false,
          "name": "_to",
          "type": "address"
        },
        {
          "indexed": false,
          "name": "_txamount",
          "type": "uint256"
        }
      ],
      "name": "Transfer",
      "type": "event"
    },
    {
      "anonymous": false,
      "inputs": [
        {
          "indexed": false,
          "name": "operator",
          "type": "address"
        },
        {
          "indexed": false,
          "name": "tokenHolder",
          "type": "address"
        }
      ],
      "name": "AuthorizedOperator",
      "type": "event"
    },
    {
      "anonymous": false,
      "inputs": [
        {
          "indexed": true,
          "name": "operator",
          "type": "address"
        },
        {
          "indexed": true,
          "name": "tokenHolder",
          "type": "address"
        }
      ],
      "name": "RevokedOperator",
      "type": "event"
    },
    {
      "constant": true,
      "inputs": [],
      "name": "name",
      "outputs": [
        {
          "name": "",
          "type": "bytes32"
        }
      ],
      "payable": false,
      "stateMutability": "view",
      "type": "function"
    },
    {
      "constant": true,
      "inputs": [],
      "name": "symbol",
      "outputs": [
        {
          "name": "",
          "type": "bytes32"
        }
      ],
      "payable": false,
      "stateMutability": "view",
      "type": "function"
    },
    {
      "constant": true,
      "inputs": [],
      "name": "granularity",
      "outputs": [
        {
          "name": "",
          "type": "uint256"
        }
      ],
      "payable": false,
      "stateMutability": "view",
      "type": "function"
    },
    {
      "constant": true,
      "inputs": [
        {
          "name": "_addr",
          "type": "address"
        }
      ],
      "name": "getBalanceOfInEth",
      "outputs": [
        {
          "name": "",
          "type": "uint256"
        }
      ],
      "payable": false,
      "stateMutability": "view",
      "type": "function"
    },
    {
      "constant": true,
      "inputs": [
        {
          "name": "_addr",
          "type": "address"
        }
      ],
      "name": "balanceOf",
      "outputs": [
        {
          "name": "",
          "type": "uint256"
        }
      ],
      "payable": false,
      "stateMutability": "view",
      "type": "function"
    },
    {
      "constant": true,
      "inputs": [
        {
          "name": "_addr",
          "type": "address"
        },
        {
          "name": "_trancheId",
          "type": "uint256"
        }
      ],
      "name": "balanceOfByTranche",
      "outputs": [
        {
          "name": "",
          "type": "uint256"
        }
      ],
      "payable": false,
      "stateMutability": "view",
      "type": "function"
    },
    {
      "constant": true,
      "inputs": [
        {
          "name": "_addr",
          "type": "address"
        }
      ],
      "name": "tranchesOf",
      "outputs": [
        {
          "name": "",
          "type": "uint256[]"
        }
      ],
      "payable": false,
      "stateMutability": "view",
      "type": "function"
    },
    {
      "constant": true,
      "inputs": [],
      "name": "totalSupply",
      "outputs": [
        {
          "name": "",
          "type": "uint256"
        }
      ],
      "payable": false,
      "stateMutability": "view",
      "type": "function"
    },
    {
      "constant": true,
      "inputs": [],
      "name": "getInfosEquityToken",
      "outputs": [
        {
          "name": "",
          "type": "uint256"
        },
        {
          "name": "",
          "type": "bytes32"
        },
        {
          "name": "",
          "type": "bytes32"
        },
        {
          "name": "",
          "type": "uint256"
        },
        {
          "name": "",
          "type": "uint256"
        }
      ],
      "payable": false,
      "stateMutability": "view",
      "type": "function"
    },
    {
      "constant": true,
      "inputs": [],
      "name": "getAllAddressesEquityToken",
      "outputs": [
        {
          "name": "",
          "type": "address[]"
        }
      ],
      "payable": false,
      "stateMutability": "view",
      "type": "function"
    },
    {
      "constant": true,
      "inputs": [],
      "name": "getCompanyOwner",
      "outputs": [
        {
          "name": "",
          "type": "address"
        }
      ],
      "payable": false,
      "stateMutability": "view",
      "type": "function"
    },
    {
      "constant": false,
      "inputs": [
        {
          "name": "_addr",
          "type": "address"
        }
      ],
      "name": "setCompanyOwner",
      "outputs": [],
      "payable": false,
      "stateMutability": "nonpayable",
      "type": "function"
    },
    {
      "constant": false,
      "inputs": [
        {
          "name": "_message",
          "type": "string"
        }
      ],
      "name": "sendAdHocMessage",
      "outputs": [],
      "payable": false,
      "stateMutability": "nonpayable",
      "type": "function"
    },
    {
      "constant": false,
      "inputs": [
        {
          "name": "proposalNames",
          "type": "bytes32[]"
        }
      ],
      "name": "startBallot",
      "outputs": [],
      "payable": false,
      "stateMutability": "nonpayable",
      "type": "function"
    },
    {
      "constant": false,
      "inputs": [
        {
          "name": "_to",
          "type": "address"
        }
      ],
      "name": "delegate",
      "outputs": [],
      "payable": false,
      "stateMutability": "nonpayable",
      "type": "function"
    },
    {
      "constant": false,
      "inputs": [
        {
          "name": "_proposal",
          "type": "uint256"
        }
      ],
      "name": "vote",
      "outputs": [],
      "payable": false,
      "stateMutability": "nonpayable",
      "type": "function"
    },
    {
      "constant": false,
      "inputs": [],
      "name": "winningProposal",
      "outputs": [
        {
          "name": "winnerName_",
          "type": "bytes32"
        }
      ],
      "payable": false,
      "stateMutability": "nonpayable",
      "type": "function"
    },
    {
      "constant": true,
      "inputs": [],
      "name": "getProposals",
      "outputs": [
        {
          "name": "",
          "type": "bytes32[]"
        }
      ],
      "payable": false,
      "stateMutability": "view",
      "type": "function"
    },
    {
      "constant": true,
      "inputs": [
        {
          "name": "_index",
          "type": "uint256"
        }
      ],
      "name": "getVoteCount",
      "outputs": [
        {
          "name": "voteCount_",
          "type": "uint256"
        }
      ],
      "payable": false,
      "stateMutability": "view",
      "type": "function"
    },
    {
      "constant": false,
      "inputs": [],
      "name": "disableERC20",
      "outputs": [],
      "payable": false,
      "stateMutability": "nonpayable",
      "type": "function"
    },
    {
      "constant": false,
      "inputs": [],
      "name": "enableERC20",
      "outputs": [],
      "payable": false,
      "stateMutability": "nonpayable",
      "type": "function"
    },
    {
      "constant": true,
      "inputs": [],
      "name": "decimals",
      "outputs": [
        {
          "name": "",
          "type": "uint8"
        }
      ],
      "payable": false,
      "stateMutability": "view",
      "type": "function"
    },
    {
      "constant": false,
      "inputs": [
        {
          "name": "_spender",
          "type": "address"
        },
        {
          "name": "_txamount",
          "type": "uint256"
        }
      ],
      "name": "approve",
      "outputs": [
        {
          "name": "success_",
          "type": "bool"
        }
      ],
      "payable": false,
      "stateMutability": "nonpayable",
      "type": "function"
    },
    {
      "constant": true,
      "inputs": [
        {
          "name": "_owner",
          "type": "address"
        },
        {
          "name": "_spender",
          "type": "address"
        }
      ],
      "name": "allowance",
      "outputs": [
        {
          "name": "remaining",
          "type": "uint256"
        }
      ],
      "payable": false,
      "stateMutability": "view",
      "type": "function"
    }
  ],
  "bytecode": "0x60806040526301e133806016556017805460ff19166001179055600060185564e8d4a51000601955670de0b6b3a7640000601b5534801561003f57600080fd5b506138878061004f6000396000f3006080604052600436106102505763ffffffff7c0100000000000000000000000000000000000000000000000000000000600035041663010648ca81146102555780630121b93f146102715780630317b1da1461028957806306e485381461032d57806306fdde031461037d578063070c87f9146103a4578063095ea7b3146103b95780630b366df1146103f15780631348bf221461042557806318160ddd1461046557806318d467181461047a5780632a88511a1461049b5780632d3d3f9c1461050a5780632f1cae851461052b578063313ce5671461054057806344d171871461056b5780634af3e63f146105d45780634c783bf5146105f55780635547641b14610255578063556f0dc71461060a5780635c19a95c1461061f578063609ff1bd1461064057806362564c48146106555780636a137219146106ba5780636ae6b459146106db5780636e4a2194146106f357806370a08231146107085780638cbd5f4514610729578063959b8c3f1461074a57806395d89b411461076b578063a3cba09a14610780578063b2c2f2e81461081c578063b8fe4c3f14610834578063c018f1d014610849578063c073d836146108a2578063ce30b8d9146108b7578063d1dbe7d814610920578063d570ab3414610951578063d95b637114610966578063dad3e6dd1461098d578063dbb8299b146109a2578063dd62ed3e14610a11578063dfa9429214610a38578063e3da9f8f14610a56578063e53286c514610a77578063e75b0cf514610a8f578063f922f21614610ab3578063fad8b32a14610ac8578063fc1865a014610ae9575b600080fd5b61026f600480359060248035908101910135604435610b3e565b005b34801561027d57600080fd5b5061026f600435610c53565b34801561029557600080fd5b506102ad600435600160a060020a0360243516610d33565b604080516020808201849052828252845192820192909252835190918291606083019186019080838360005b838110156102f15781810151838201526020016102d9565b50505050905090810190601f16801561031e5780820380516001836020036101000a031916815260200191505b50935050505060405180910390f35b34801561033957600080fd5b50610342610f86565b6040518082600260200280838360005b8381101561036a578181015183820152602001610352565b5050505090500191505060405180910390f35b34801561038957600080fd5b50610392610fcc565b60408051918252519081900360200190f35b3480156103b057600080fd5b5061026f610fd2565b3480156103c557600080fd5b506103dd600160a060020a0360043516602435611045565b604080519115158252519081900360200190f35b3480156103fd57600080fd5b5061040960043561119f565b60408051600160a060020a039092168252519081900360200190f35b34801561043157600080fd5b5061043a6111c7565b6040805195865260208601949094528484019290925260608401526080830152519081900360a00190f35b34801561047157600080fd5b506103926111dd565b34801561048657600080fd5b50610392600160a060020a03600435166111e3565b3480156104a757600080fd5b50604080516020601f60643560048181013592830184900484028501840190955281845261026f94803594600160a060020a0360248035919091169560443595369560849493019181908401838280828437509497506112939650505050505050565b34801561051657600080fd5b5061026f600160a060020a0360043516611307565b34801561053757600080fd5b506103dd61138d565b34801561054c57600080fd5b50610555611396565b6040805160ff9092168252519081900360200190f35b34801561057757600080fd5b50604080516020600460443581810135601f810184900484028501840190955284845261026f948235600160a060020a03169460248035953695946064949201919081908401838280828437509497506114219650505050505050565b3480156105e057600080fd5b5061026f600160a060020a0360043516611493565b34801561060157600080fd5b506103dd611548565b34801561061657600080fd5b5061039261156a565b34801561062b57600080fd5b5061026f600160a060020a0360043516611570565b34801561064c57600080fd5b506103926117a0565b34801561066157600080fd5b5061066a611869565b60408051602080825283518183015283519192839290830191858101910280838360005b838110156106a657818101518382015260200161068e565b505050509050019250505060405180910390f35b3480156106c657600080fd5b5061026f600160a060020a03600435166118bf565b3480156106e757600080fd5b5061026f6004356119cd565b3480156106ff57600080fd5b50610392611a36565b34801561071457600080fd5b50610392600160a060020a0360043516611a3c565b34801561073557600080fd5b5061026f600160a060020a0360043516611a57565b34801561075657600080fd5b5061026f600160a060020a0360043516611b1b565b34801561077757600080fd5b50610392611c0d565b34801561078c57600080fd5b5060408051602060046024803582810135601f810185900485028601850190965285855261026f95833595369560449491939091019190819084018382808284375050604080516020601f89358b018035918201839004830284018301909452808352979a999881019791965091820194509250829150840183828082843750949750611c139650505050505050565b34801561082857600080fd5b50610392600435612171565b34801561084057600080fd5b5061026f61219c565b34801561085557600080fd5b506040805160206004803580820135601f810184900484028501840190955284845261026f94369492936024939284019190819084018382808284375094975061220c9650505050505050565b3480156108ae57600080fd5b5061066a6122c2565b3480156108c357600080fd5b50604080516020600460443581810135601f810184900484028501840190955284845261026f948235600160a060020a03169460248035953695946064949201919081908401838280828437509497506123229650505050505050565b34801561092c57600080fd5b506109386004356123b3565b6040805192835260208301919091528051918290030190f35b34801561095d57600080fd5b506104096123df565b34801561097257600080fd5b506103dd600160a060020a03600435811690602435166123ee565b34801561099957600080fd5b5061040961243c565b3480156109ae57600080fd5b50604080516020601f60643560048181013592830184900484028501840190955281845261026f94803594600160a060020a03602480359190911695604435953695608494930191819084018382808284375094975061244b9650505050505050565b348015610a1d57600080fd5b50610392600160a060020a03600435811690602435166124dd565b348015610a4457600080fd5b5061026f60043560243560443561258e565b348015610a6257600080fd5b5061066a600160a060020a0360043516612678565b348015610a8357600080fd5b5061026f6004356126e4565b348015610a9b57600080fd5b50610392600160a060020a03600435166024356126ff565b348015610abf57600080fd5b5061026f612727565b348015610ad457600080fd5b5061026f600160a060020a0360043516612797565b348015610af557600080fd5b506040805160206004803580820135838102808601850190965280855261026f9536959394602494938501929182918501908490808284375094975061284e9650505050505050565b601b543414610bbd576040805160e560020a62461bcd02815260206004820152602860248201527f6e6f7420656e6f75676820657468657220696e20666f722070617961626c652060448201527f66756e6374696f6e000000000000000000000000000000000000000000000000606482015290519081900360840190fd5b6040805160608101825285815281516020601f86018190048102820181019093528481526015928083019190879087908190840183828082843750505092845250505060209081018490528254600181810180865560009586529483902084516003909302019182558383015180519293610c3e93928501929101906136b0565b50604091909101516002909101555050505050565b336000908152601e60205260409020600181015460ff1615610cbf576040805160e560020a62461bcd02815260206004820152600d60248201527f416c726561647920766f74656400000000000000000000000000000000000000604482015290519081900360640190fd5b6001818101805460ff19169091179055600281018290558054601f8054610d0c92919085908110610cec57fe5b9060005260206000209060020201600101546128d690919063ffffffff16565b601f805484908110610d1a57fe5b9060005260206000209060020201600101819055505050565b33600090815260076020526040812054606091908190606414610dc6576040805160e560020a62461bcd02815260206004820152602760248201527f7265717569726573206164766f6361746520746f2073656520646f776e6c6f6160448201527f642066696c657300000000000000000000000000000000000000000000000000606482015290519081900360840190fd5b336000908152601d60209081526040808320600160a060020a038816845290915290205460ff161515610e69576040805160e560020a62461bcd02815260206004820152602c60248201527f6164766f63617465206973206e6f7420617574686f72697a656420746f20726560448201527f7472696576652066696c65730000000000000000000000000000000000000000606482015290519081900360840190fd5b5060005b601554811015610f7e576015805486919083908110610e8857fe5b60009182526020909120600390910201541415610f76576015805482908110610ead57fe5b9060005260206000209060030201600101601582815481101515610ecd57fe5b60009182526020918290206002600390920201810154835460408051601f600019610100600186161502019093169490940491820185900485028401850190528083529092849190830182828015610f665780601f10610f3b57610100808354040283529160200191610f66565b820191906000526020600020905b815481529060010190602001808311610f4957829003601f168201915b5050505050915092509250610f7e565b600101610e6d565b509250929050565b610f8e61372e565b60408051808201918290529060109060029082845b8154600160a060020a03168152600190910190602001808311610fa3575b505050505090505b90565b600a5490565b600f54600160a060020a03163314611036576040805160e560020a62461bcd02815260206004820152602960248201526000805160206137fc833981519152604482015260008051602061381c833981519152606482015290519081900360840190fd5b601c805460ff19166001179055565b600081600d548181151561105557fe5b06156110ad576040805160e560020a62461bcd028152602060048201526033602482015260008051602061383c83398151915260448201526000805160206137dc833981519152606482015290519081900360840190fd5b601c5460ff16151561112f576040805160e560020a62461bcd02815260206004820152602560248201527f657263323020636f6d7061746962696c69747920686173206265656e2064697360448201527f61626c6564000000000000000000000000000000000000000000000000000000606482015290519081900360840190fd5b336000818152600660209081526040808320600160a060020a03891680855290835292819020879055805193845290830191909152818101859052517f8c5be1e5ebec7d5bd14f71427d1e84f3dd0314c0f7b2291e5b200ac8c7c3b9259181900360600190a15060019392505050565b60148054829081106111ad57fe5b600091825260209091200154600160a060020a0316905081565b600954600a54600b54600d54600e549091929394565b600e5490565b600073__ConvertLib____________________________6396e4ee3d61120884611a3c565b60036040518363ffffffff167c0100000000000000000000000000000000000000000000000000000000028152600401808381526020018281526020019250505060206040518083038186803b15801561126157600080fd5b505af4158015611275573d6000803e3d6000fd5b505050506040513d602081101561128b57600080fd5b505192915050565b8233600160a060020a038216146112f4576040805160e560020a62461bcd02815260206004820152601560248201527f726571756972656d656e74206f6e6c794f776e65720000000000000000000000604482015290519081900360640190fd5b611300858585856128e8565b5050505050565b600f54600160a060020a0316331461136b576040805160e560020a62461bcd02815260206004820152602960248201526000805160206137fc833981519152604482015260008051602061381c833981519152606482015290519081900360840190fd5b600f8054600160a060020a031916600160a060020a0392909216919091179055565b60175460ff1681565b601c5460009060ff16151561141b576040805160e560020a62461bcd02815260206004820152602560248201527f657263323020636f6d7061746962696c69747920686173206265656e2064697360448201527f61626c6564000000000000000000000000000000000000000000000000000000606482015290519081900360840190fd5b50601290565b8233600160a060020a03821614611482576040805160e560020a62461bcd02815260206004820152601560248201527f726571756972656d656e74206f6e6c794f776e65720000000000000000000000604482015290519081900360640190fd5b61148d848484612ca1565b50505050565b600160a060020a038116331415611519576040805160e560020a62461bcd028152602060048201526024808201527f6d73672e73656e6465722063616e6e6f7420617574686f72697a65642068696d60448201527f73656c6600000000000000000000000000000000000000000000000000000000606482015290519081900360840190fd5b600160a060020a03166000908152601d602090815260408083203384529091529020805460ff19166001179055565b601a54600090600160a060020a03161561156457506000610fc9565b50600190565b600d5490565b336000908152601e60205260408120600181015490919060ff16156115df576040805160e560020a62461bcd02815260206004820152601160248201527f596f7520616c726561647920766f746564000000000000000000000000000000604482015290519081900360640190fd5b600160a060020a038316331415611640576040805160e560020a62461bcd02815260206004820152601d60248201527f53656c662d64656c65676174696f6e20697320646973616c6c6f776564000000604482015290519081900360640190fd5b600160a060020a038381166000908152601e6020526040902060010154610100900416156116eb57600160a060020a039283166000908152601e6020526040902060010154610100900490921691338314156116e6576040805160e560020a62461bcd02815260206004820152601a60248201527f466f756e642073656c662d64656c65676174696f6e206c6f6f70000000000000604482015290519081900360640190fd5b611640565b506001818101805460ff1916821774ffffffffffffffffffffffffffffffffffffffff001916610100600160a060020a038616908102919091179091556000908152601e602052604090209081015460ff16156117885781546002820154601f805461175b9392908110610cec57fe5b601f826002015481548110151561176e57fe5b90600052602060002090600202016001018190555061179b565b8154815461148d9163ffffffff6128d616565b505050565b60008080805b601f548210156118095782601f838154811015156117c057fe5b90600052602060002090600202016001015411156117fe57601f8054839081106117e657fe5b90600052602060002090600202016001015492508190505b6001909101906117a6565b601f80548290811061181757fe5b6000918252602091829020600290910201546040805182815292830186905280519196507f64cc588a379a8af63188f3443e70b4fa4e3cdad188fd65e3b7b283c2084cddc7928290030190a150505090565b60608060005b601f548110156118b957601f80548290811061188757fe5b90600052602060002090600202016000015482828151811015156118a757fe5b6020908102909101015260010161186f565b50919050565b600f54600160a060020a03163314611923576040805160e560020a62461bcd02815260206004820152602960248201526000805160206137fc833981519152604482015260008051602061381c833981519152606482015290519081900360840190fd5b61192c816132ef565b15156001146119ab576040805160e560020a62461bcd02815260206004820152603060248201527f5f61646472206164647265737320646f6573206e6f74206578697374206f722060448201527f69732030783020286275726e696e672900000000000000000000000000000000606482015290519081900360840190fd5b601a8054600160a060020a031916600160a060020a0392909216919091179055565b600f54600160a060020a03163314611a31576040805160e560020a62461bcd02815260206004820152602960248201526000805160206137fc833981519152604482015260008051602061381c833981519152606482015290519081900360840190fd5b601655565b601b5481565b600160a060020a031660009081526020819052604090205490565b600160a060020a038116600090815260076020526040902054600211611aed576040805160e560020a62461bcd02815260206004820152602960248201527f696e766573746f7220616c726561647920617574686f72697a656420616e206160448201527f6363726564697465640000000000000000000000000000000000000000000000606482015290519081900360840190fd5b600160a060020a038116600090815260076020526040902054611b1790600163ffffffff6128d616565b5050565b600160a060020a038116331415611ba1576040805160e560020a62461bcd028152602060048201526024808201527f6d73672e73656e6465722063616e6e6f7420617574686f72697a65642068696d60448201527f73656c6600000000000000000000000000000000000000000000000000000000606482015290519081900360840190fd5b600160a060020a0381166000818152601d602090815260408083203380855290835292819020805460ff1916600117905580519384529083019190915280517ff4caeb2d6ca8932a215a353d0703c326ec2d81fc68170f320eb2ab49e9df61f99281900390910190a150565b600b5490565b600083600d5481811515611c2357fe5b0615611c7b576040805160e560020a62461bcd028152602060048201526033602482015260008051602061383c83398151915260448201526000805160206137dc833981519152606482015290519081900360840190fd5b600f54600160a060020a03163314611cdf576040805160e560020a62461bcd02815260206004820152602960248201526000805160206137fc833981519152604482015260008051602061381c833981519152606482015290519081900360840190fd5b600a5460009081526008602052604090205460ff161515600114611d73576040805160e560020a62461bcd02815260206004820152602e60248201527f7265717569726573206368616e676564207374617475732066726f6d2070656e60448201527f64696e6720746f20616374697665000000000000000000000000000000000000606482015290519081900360840190fd5b60175460ff161515600114611dd2576040805160e560020a62461bcd02815260206004820152601a60248201527f746f6b656e2069737375616e63652069732066696e6973686564000000000000604482015290519081900360640190fd5b611ddd600a54613312565b604080516060810182528781524260208083019182526000838501818152868252600390925293909320915182555160018201559051600290910155600e54909250611e2f908663ffffffff6128d616565b600e5533600090815260208190526040902054611e52908663ffffffff6128d616565b33600090815260208181526040808320939093556001815282822085835290522054611e84908663ffffffff6128d616565b33600081815260016020818152604080842088855282528084209590955583835260028152848320805492830181558352808320909101869055835183815280820184905293840189905260a06060850181815289519186019190915288517f2fe5be0146f74c5bce36c0b80911af6c7d86ff27e89d5cfa61fc681327954e5d9585948c948c948c949092608085019260c0860192908801918190849084905b83811015611f3c578181015183820152602001611f24565b50505050905090810190601f168015611f695780820380516001836020036101000a031916815260200191505b50838103825284518152845160209182019186019080838360005b83811015611f9c578181015183820152602001611f84565b50505050905090810190601f168015611fc95780820380516001836020036101000a031916815260200191505b5097505050505050505060405180910390a17fc8d64290e05791ddb8e7c779289e066d776a0630d8fb0adb646a94b9ae85b7728233338888886040518087815260200186600160a060020a0316600160a060020a0316815260200185600160a060020a0316600160a060020a031681526020018481526020018060200180602001838103835285818151815260200191508051906020019080838360005b8381101561207f578181015183820152602001612067565b50505050905090810190601f1680156120ac5780820380516001836020036101000a031916815260200191505b50838103825284518152845160209182019186019080838360005b838110156120df5781810151838201526020016120c7565b50505050905090810190601f16801561210c5780820380516001836020036101000a031916815260200191505b509850505050505050505060405180910390a1601c5460ff161561130057604080516000815233602082015280820187905290517fddf252ad1be2c89b69c2b068fc378daa952ba7f163c4a11628f55a4df523b3ef9181900360600190a15050505050565b6000601f8281548110151561218257fe5b600091825260209091206001600290920201015492915050565b600f54600160a060020a03163314612200576040805160e560020a62461bcd02815260206004820152602960248201526000805160206137fc833981519152604482015260008051602061381c833981519152606482015290519081900360840190fd5b6017805460ff19169055565b7f075025aecd552649e85b634e268857a6a478f698de831a3b01d0055e73888d208133604051808060200183600160a060020a0316600160a060020a03168152602001828103825284818151815260200191508051906020019080838360005b8381101561228457818101518382015260200161226c565b50505050905090810190601f1680156122b15780820380516001836020036101000a031916815260200191505b50935050505060405180910390a150565b60606014805480602002602001604051908101604052809291908181526020018280548015610fc157602002820191906000526020600020908154600160a060020a03168152600190910190602001808311610fa3575050505050905090565b61232c33846123ee565b15156123a8576040805160e560020a62461bcd02815260206004820152603860248201527f73656e646572206973206e6f7420617574686f72697a656420746f206f70657260448201527f6174652077697468205f66726f6d2773206163636f756e740000000000000000606482015290519081900360840190fd5b61179b838383612ca1565b601f8054829081106123c157fe5b60009182526020909120600290910201805460019091015490915082565b601a54600160a060020a031681565b600081600160a060020a031683600160a060020a031614806124355750600160a060020a038084166000908152601d602090815260408083209386168352929052205460ff165b9392505050565b600f54600160a060020a031690565b61245533846123ee565b15156124d1576040805160e560020a62461bcd02815260206004820152603860248201527f73656e646572206973206e6f7420617574686f72697a656420746f206f70657260448201527f6174652077697468205f66726f6d2773206163636f756e740000000000000000606482015290519081900360840190fd5b61148d848484846128e8565b601c5460009060ff161515612562576040805160e560020a62461bcd02815260206004820152602560248201527f657263323020636f6d7061746962696c69747920686173206265656e2064697360448201527f61626c6564000000000000000000000000000000000000000000000000000000606482015290519081900360840190fd5b50600160a060020a03918216600090815260066020908152604080832093909416825291909152205490565b600181101561259957fe5b6125a283613312565b600955600a839055600b829055600c8054604160ff19918216179091556000600e55600d829055601c80549091166001179055600f8054600160a060020a0319163390811790915560408051808201909152908152601a54600160a060020a03166020820152612616906010906002613749565b50612710601255620f424060135561262d336133bf565b50600a54600b546040805192835260208301919091523382820152517f9ae979c8e1266c2f250aee2ce3946e415bd909a9cf1821aab705834932fd12ad9181900360600190a1505050565b600160a060020a0381166000908152600260209081526040918290208054835181840281018401909452808452606093928301828280156126d857602002820191906000526020600020905b8154815260200190600101908083116126c4575b50505050509050919050565b6000908152600860205260409020805460ff19166001179055565b600160a060020a03919091166000908152600160209081526040808320938352929052205490565b600f54600160a060020a0316331461278b576040805160e560020a62461bcd02815260206004820152602960248201526000805160206137fc833981519152604482015260008051602061381c833981519152606482015290519081900360840190fd5b601c805460ff19169055565b600160a060020a0381163314156127f8576040805160e560020a62461bcd02815260206004820181905260248201527f6d73672e73656e6465722063616e6e6f74207265766f6b652068696d73656c66604482015290519081900360640190fd5b600160a060020a0381166000818152601d60209081526040808320338085529252808320805460ff19169055519092917f50546e66e5f44d728365dc3908c63bc5cfeeab470722c1677e3073a6ac294aa191a350565b60005b81518110156128b457601f6040805190810160405280848481518110151561287557fe5b60209081029091018101518252600091810182905283546001818101865594835291819020835160029093020191825591909101519082015501612851565b3360009081526020818152604080832054601e90925290912055611b17613490565b60008282018381101561243557600080fd5b81600d54818115156128f657fe5b061561294e576040805160e560020a62461bcd028152602060048201526033602482015260008051602061383c83398151915260448201526000805160206137dc833981519152606482015290519081900360840190fd5b600160a060020a03841660009081526001602090815260408083208884529091529020548311156129ef576040805160e560020a62461bcd02815260206004820152602b60248201527f6e6f7420656e6f756768207472616e6368652d73706563696669632066756e6460448201527f696e6720746f206275726e000000000000000000000000000000000000000000606482015290519081900360840190fd5b600e54612a02908463ffffffff6135cd16565b600e55600160a060020a038416600090815260208190526040902054612a2e908463ffffffff6135cd16565b600160a060020a038516600090815260208181526040808320939093556001815282822088835290522054612a69908463ffffffff6135cd16565b507fa1c85a30dec08aa526dc5a3ca33087f723335ec5c1614ecf0036da150a6971c885338686866040518086815260200185600160a060020a0316600160a060020a0316815260200184600160a060020a0316600160a060020a0316815260200183815260200180602001828103825283818151815260200191508051906020019080838360005b83811015612b09578181015183820152602001612af1565b50505050905090810190601f168015612b365780820380516001836020036101000a031916815260200191505b50965050505050505060405180910390a17fea01d24fee0ecbb349ab449ea41d11599fd91ba758653579b30d38d63e2adedb338585856040518085600160a060020a0316600160a060020a0316815260200184600160a060020a0316600160a060020a0316815260200183815260200180602001828103825283818151815260200191508051906020019080838360005b83811015612bdf578181015183820152602001612bc7565b50505050905090810190601f168015612c0c5780820380516001836020036101000a031916815260200191505b509550505050505060405180910390a1600160a060020a0384166000908152602081905260409020541515612c4657612c44846135e4565b505b601c5460ff16156113005760408051600160a060020a03861681526000602082015280820185905290517fddf252ad1be2c89b69c2b068fc378daa952ba7f163c4a11628f55a4df523b3ef9181900360600190a15050505050565b600080606060008086600d5481811515612cb757fe5b0615612d0f576040805160e560020a62461bcd028152602060048201526033602482015260008051602061383c83398151915260448201526000805160206137dc833981519152606482015290519081900360840190fd5b600160a060020a038916600090815260208190526040902054881115612d7f576040805160e560020a62461bcd02815260206004820152601a60248201527f6e6f7420656e6f7567682066756e64696e6720746f206275726e000000000000604482015290519081900360640190fd5b60009550600194505b8786101561319057600160a060020a03891660009081526002602090815260409182902080548351818402810184019094528084529091830182828015612dee57602002820191906000526020600020905b815481526020019060010190808311612dda575b505050505093508385855103815181101515612e0657fe5b602090810290910101519250612e22888763ffffffff6135cd16565b600160a060020a038a16600090815260016020908152604080832087845290915290205410612fe757612e6d612e5e898863ffffffff6135cd16565b600e549063ffffffff6135cd16565b600e55612ea8612e83898863ffffffff6135cd16565b600160a060020a038b166000908152602081905260409020549063ffffffff6135cd16565b600160a060020a038a16600090815260208190526040902055612f04612ed4898863ffffffff6135cd16565b600160a060020a038b1660009081526001602090815260408083208884529091529020549063ffffffff6135cd16565b507fa1c85a30dec08aa526dc5a3ca33087f723335ec5c1614ecf0036da150a6971c883338b8b8b6040518086815260200185600160a060020a0316600160a060020a0316815260200184600160a060020a0316600160a060020a0316815260200183815260200180602001828103825283818151815260200191508051906020019080838360005b83811015612fa4578181015183820152602001612f8c565b50505050905090810190601f168015612fd15780820380516001836020036101000a031916815260200191505b50965050505050505060405180910390a1613190565b600160a060020a0389166000908152600160209081526040808320868452909152902054600e54909250613021908363ffffffff6135cd16565b600e55600160a060020a03891660009081526020819052604090205461304d908363ffffffff6135cd16565b600160a060020a038a16600090815260208181526040808320939093556001815282822086835290522054613088908363ffffffff6135cd16565b50613099868363ffffffff6128d616565b95506130ac85600163ffffffff6128d616565b94507fa1c85a30dec08aa526dc5a3ca33087f723335ec5c1614ecf0036da150a6971c883338b8b8b6040518086815260200185600160a060020a0316600160a060020a0316815260200184600160a060020a0316600160a060020a0316815260200183815260200180602001828103825283818151815260200191508051906020019080838360005b8381101561314d578181015183820152602001613135565b50505050905090810190601f16801561317a5780820380516001836020036101000a031916815260200191505b50965050505050505060405180910390a1612d88565b7fea01d24fee0ecbb349ab449ea41d11599fd91ba758653579b30d38d63e2adedb338a8a8a6040518085600160a060020a0316600160a060020a0316815260200184600160a060020a0316600160a060020a0316815260200183815260200180602001828103825283818151815260200191508051906020019080838360005b83811015613228578181015183820152602001613210565b50505050905090810190601f1680156132555780820380516001836020036101000a031916815260200191505b509550505050505060405180910390a1600160a060020a038916600090815260208190526040902054151561328f5761328d896135e4565b505b601c5460ff16156132e45760408051600160a060020a038b168152600060208201528082018a905290517fddf252ad1be2c89b69c2b068fc378daa952ba7f163c4a11628f55a4df523b3ef9181900360600190a15b505050505050505050565b600080600160a060020a038316151561330b57600091506118b9565b50503b1590565b60185460408051602080820185905281830193909352815180820383018152606090910191829052805160009384939182918401908083835b6020831061336a5780518252601f19909201916020918201910161334b565b5181516020939093036101000a600019018019909116921691909117905260405192018290039091206018549094506133a993509150600190506128d6565b50601954818115156133b757fe5b069392505050565b6000806133cb8361362d565b156133d957600091506118b9565b5060148054600180820183557fce6d7b5282bd9a3661ae061feed1dbda4e52ab073b1f9285be6e155d9c38d4ec82018054600160a060020a031916600160a060020a03871690811790915560008181526005602090815260408083208690556004825291829020805460ff19169094179093559354845191825291810191909152825191927f33dda5dca20a95bec563f7c6e810061b24d464536df0636a17d2d041b8b0c66d92918290030190a150600192915050565b60015b6014548110156135ca57601e60006014838154811015156134b057fe5b6000918252602080832090910154600160a060020a0316835282019290925260400190205415613550576040805160e560020a62461bcd02815260206004820152602a60248201527f54686520726967687420746f20766f746520616c72656164792068617320626560448201527f656e206772616e74656400000000000000000000000000000000000000000000606482015290519081900360840190fd5b60008060148381548110151561356257fe5b6000918252602080832090910154600160a060020a03168352820192909252604001812054601480549192601e929091908590811061359d57fe5b6000918252602080832090910154600160a060020a03168352820192909252604001902055600101613493565b50565b600080838311156135dd57600080fd5b5050900390565b600160a060020a038116600090815260056020526040812054601480548290811061360b57fe5b60009182526020909120018054600160a060020a031916905550600192915050565b6000613638826132ef565b1515600114613691576040805160e560020a62461bcd02815260206004820152601560248201527f6e6f74206120726567756c617220616464726573730000000000000000000000604482015290519081900360640190fd5b50600160a060020a031660009081526004602052604090205460ff1690565b828054600181600116156101000203166002900490600052602060002090601f016020900481019282601f106136f157805160ff191683800117855561371e565b8280016001018555821561371e579182015b8281111561371e578251825591602001919060010190613703565b5061372a92915061379d565b5090565b60408051808201825290600290829080388339509192915050565b8260028101928215613791579160200282015b828111156137915782518254600160a060020a031916600160a060020a0390911617825560209092019160019091019061375c565b5061372a9291506137b7565b610fc991905b8082111561372a57600081556001016137a3565b610fc991905b8082111561372a578054600160a060020a03191681556001016137bd560061742074686973206772616e756c617269747900000000000000000000000000726571756972656d656e74206f6e6c794f776e6572206f6620436f6d70616e79206d6f6469666965720000000000000000000000000000000000000000000000756e61626c6520746f206d6f6469667920746f6b656e2062616c616e63657320a165627a7a7230582001cae725bd8106b9aeb0ed9369294dd4501a8609ad3b82411b27d6d481c854140029",
  "source": "pragma solidity ^0.4.24;\n\n/// For more documentation and illustration see the adjacent paper.\n\nimport \"./ConvertLib.sol\";\nimport \"./SafeMath.sol\";\nimport \"./EquityTokenFactory.sol\";\n\ncontract EquityToken is EquityTokenFactory {\n\n//-----EquityToken------------------------------------------------------------------------------------------------------------------------\n    /* This structure determines the business logic of a token (i.e. quasi-share)\n        - \n        */\n\n    ///@notice string as bytes32 only has space for 32 characters\n    event adHocMessage(string _message, address _company);\n\n    ///event quaterlyUpdate(uint _revenue, uint _revenueforecast);\n\n    ///@notice ERC20 optional, ERC777 mandatory\n    function name() public view returns(bytes32) {\n        return companyName;\n    }\n\n    ///@notice ERC20 optional, ERC777 mandatory\n    function symbol() public view returns(bytes32) {\n        return tokenTicker;\n    }\n\n    ///@dev smallest part of token not divisible\n    ///@notice ERC777 mandatory\n    function granularity() public view returns(uint) {\n        return granular;\n    }\n\n    ///@notice convert balance of token in ETH or other currencies\n    function getBalanceOfInEth(address _addr) public view returns(uint) {\n\t\treturn ConvertLib.convert(balanceOf(_addr), 3);\n    }\n\n    ///@dev balance for any owner\n    ///@notice ERC20 mandatory, ERC777 mandatory\n    function balanceOf(address _addr) public view returns(uint) {\n\t\treturn OwnerToBalance[_addr];\n\t}\n\n    ///@dev balance for any owner for specific tranche\n    ///@notice EIP1410 proposal\n    function balanceOfByTranche(address _addr, uint _trancheId) public view returns(uint) {\n\t    return OwnerToTrancheToBalance[_addr][_trancheId];\n\t}\n    \n    ///@dev tranches of a tokenholder\n    ///@notice EIP1410 proposal\n    function tranchesOf(address _addr) public view returns(uint[]) {\n        return OwnerToTranches[_addr];\n    }\n\n    ///@dev total amount of a token \n    ///@notice ERC20 mandatory, ERC777 mandatory\n    function totalSupply() public view returns(uint) {\n        return totalAmount;\n    }\n    \n    ///@dev returns Infos of equity token, as struct is not returnable in current solidity version\n    function getInfosEquityToken() public view returns(uint, bytes32, bytes32, uint, uint) {\n        return (tokenId, companyName, tokenTicker, granular, totalAmount);\n    } \n   \n    ///@dev getter for TotalDistribution array\n    ///@return array with all addresses (owner)\n    function getAllAddressesEquityToken() public view returns(address[]) {\n        return TotalDistribution;\n    }\n\n    function getCompanyOwner() public view returns(address) {\n        return companyOwner;\n    }\n\n    function setCompanyOwner(address _addr) public onlyOwnerOfCom {\n        companyOwner = _addr;\n    }\n\n    ///@dev possibility to broadcast adHocMessages for any size\n    function sendAdHocMessage(string _message) public {\n        // require(msg.sender == companyOwner, \"requirement onlyOwner of Company modifier\");  omitted for testing\n        emit adHocMessage(_message, msg.sender);\n    }\n//-----EquityToken------------------------------------------------------------------------------------------------------------------------\n\n//-----Voting-----------------------------------------------------------------------------------------------------------------------------\n    /* This structure allows a company to propose multiple proposals for an issue, voters can than choose one of the proposals \n        - the owning company works as an administrator and can start ballots\n        - the number of votes are linked to the amount of shares a voter posseses (1:1)\n        - voters can pass their right to vote\n        - the winning proposal is calculated and broadcasted automatically\n        */\n\n    event votingSuccessful(bytes32 winnerName, uint countVotes); \n        \n    mapping(address => Voter) AddressToVoter;\n\n    struct Voter {\n        uint weight; ///@notice weight is accumulated by # shares\n        bool voted;  ///@notice if true, that person already voted\n        address delegate; ///@notice person delegates right to vote to\n        uint vote;   ///@notice index of the voted proposal\n    }\n\n    ///@dev this is a type for a single proposal\n    struct Proposal {\n        bytes32 name; \n        uint voteCount; // number of accumulated votes\n    }\n \n    ///@notice all proposals of that company\n    Proposal[] public Proposals;\n\n    ///@notice create a new ballot, only possible for owner of company\n    function startBallot(bytes32[] proposalNames) public {\n        /// require(msg.sender == companyOwner, \"requirement onlyOwner of Company modifier\"); omitted for tests\n        for (uint i = 0; i < proposalNames.length; i++) {\n            Proposals.push(Proposal({name: proposalNames[i], voteCount: 0}));\n        }\n\n        ///@dev allocates voting weight = # of shares\n        AddressToVoter[msg.sender].weight = OwnerToBalance[msg.sender];\n        _giveRightToVote();\n    }\n\n    ///@dev give voter the right to vote on this ballot\n    ///@notice starts with index 1 in array, as 0 is ballot starter = companyowner in most cases\n    function _giveRightToVote() internal {\n        for (uint j = 1; j < TotalDistribution.length; j++) {\n            require(AddressToVoter[TotalDistribution[j]].weight == 0, \"The right to vote already has been granted\");\n            AddressToVoter[TotalDistribution[j]].weight = OwnerToBalance[TotalDistribution[j]];\n        }\n    }\n\n    ///@dev possibility to delegate your vote to another voter\n    function delegate(address _to) public {\n        Voter storage sender = AddressToVoter[msg.sender];\n        require(!sender.voted, \"You already voted\");\n        require(_to != msg.sender, \"Self-delegation is disallowed\");\n        ///@dev forwards delegation as long as _to also forwarded his right to vote\n        //@security use careful, as could get looped -> high gas costs\n        while (AddressToVoter[_to].delegate != address(0)) {\n            _to = AddressToVoter[_to].delegate;\n\n            require(_to != msg.sender, \"Found self-delegation loop\");\n        }\n\n        ///@notice since \"sender\" is a reference, this modifies AddressToVoter[msg.sender].voted\n        sender.voted = true;\n        sender.delegate = _to;\n        Voter storage delegate_ = AddressToVoter[_to];\n        \n        ///@notice if delegate already voted, add sender weight to proposal, else add weight of sender and delegate\n        if (delegate_.voted) {\n            Proposals[delegate_.vote].voteCount = Proposals[delegate_.vote].voteCount.add(sender.weight);\n        } else {\n            delegate_.weight.add(sender.weight);\n        }\n    }\n\n    ///@dev give your vote for specific proposal\n    //@security if proposal is out of range, this will automatically throw and revert changes\n    function vote(uint _proposal) public {\n        Voter storage sender = AddressToVoter[msg.sender];\n        require(!sender.voted, \"Already voted\");\n        sender.voted = true;\n        sender.vote = _proposal;\n        \n        Proposals[_proposal].voteCount = Proposals[_proposal].voteCount.add(sender.weight);\n    }\n\n    ///@dev computes the winning proposal, gets proposal name from array and returns, fires event\n    function winningProposal() public returns(bytes32 winnerName_) {\n        // require(msg.sender == companyOwner, \"requirement onlyOwner of Company modifier\"); omitted for tests\n        uint winningVoteCount = 0;\n        for (uint p = 0; p < Proposals.length; p++) {\n            if (Proposals[p].voteCount > winningVoteCount) {\n                winningVoteCount = Proposals[p].voteCount;\n                uint winningProposal_ = p;\n            }\n        }\n\n        winnerName_ = Proposals[winningProposal_].name;\n        emit votingSuccessful(winnerName_, winningVoteCount);\n        return winnerName_;  \n    }\n\n    ///@notice for EVM could be possible to work with fixed array e.g. 3 proposals\n    function getProposals() public view returns(bytes32[]){\n        bytes32[] memory proposals_;\n        for (uint i = 0; i < Proposals.length; i++){\n            proposals_[i] = Proposals[i].name;\n        }\n        return proposals_;\n    }\n\n    function getVoteCount(uint _index) public view returns(uint voteCount_) {\n        return voteCount_ = Proposals[_index].voteCount;\n    }\n//-----Voting-----------------------------------------------------------------------------------------------------------------------------\n\n//-----ERC20BackwardCompatibility---------------------------------------------------------------------------------------------------------\n    /* This section determines obsolete erc20 methods that are only implemented to maintain backwards compatibility.\n       Further erc20 compatibility can be disabled, then the methods will fail.\n        - \n        */\n\n    ///@notice indexing of from and to and tokenId beneficial, but dropped for mocha testing environment\n    event Approval(address _from, address _to, uint _txamount);\n\n    modifier isERC20() {\n        require((erc20compatible), \"erc20 compatibility has been disabled\");\n        _;\n    }  \n\n    ///@notice disables the ERC20 interface. \n    function disableERC20() public onlyOwnerOfCom {\n        erc20compatible = false;\n        //setInterfaceImplementation(\"ERC20Token\", 0x0);\n    }\n\n    ///@notice enables the ERC20 interface.\n    function enableERC20() public onlyOwnerOfCom {\n        erc20compatible = true;\n        ///setInterfaceImplementation(\"ERC20Token\", this);\n    }\n\n    ///@dev number of decimals token uses, divide token amount by number of decimals to get user representation\n    ///@notice ERC20 optional, ERC777 mandatory to be 18\n    function decimals() public view isERC20 returns(uint8) { \n        return uint8(18);\n    }\n\n    ///@dev sender can approve an amount to be withdrawn by spender\n    ///@notice ERC20 mandatory\n    function approve(address _spender, uint _txamount) public checkGranularity(_txamount) isERC20 returns(bool success_) {\n        allowed[msg.sender][_spender] = _txamount;\n        emit Approval(msg.sender, _spender, _txamount);\n        return true;\n    }\n  \n    ///@notice ERC20 mandatory\n    function allowance(address _owner, address _spender) public view isERC20 returns(uint remaining) {\n        return allowed[_owner][_spender];\n    }\n\n  //-----ERC20BackwardCompatibility---------------------------------------------------------------------------------------------------------    \n\n}\n",
  "sourcePath": "D:\\BlockMarket\\solidity_eto-master\\contracts\\EquityToken.sol",
  "compiler": {
    "name": "solc",
    "version": "0.4.24+commit.e67f0147.Emscripten.clang"
  },
  "schemaVersion": "3.4.13",
  "updatedAt": "2025-05-02T09:23:11.806Z",
  "networkType": "ethereum",
  "devdoc": {
    "methods": {
      "approve(address,uint256)": {
        "details": "sender can approve an amount to be withdrawn by spender"
      },
      "balanceOf(address)": {
        "details": "balance for any owner"
      },
      "balanceOfByTranche(address,uint256)": {
        "details": "balance for any owner for specific tranche"
      },
      "createToken(bytes32,bytes32,uint256)": {
        "details": "creates new token shell (status pending), safes information in storage",
        "params": {
          "_granularity": "ensures, that granularity of shares is always a positive natural figure, cannot be changed ever"
        }
      },
      "decimals()": {
        "details": "number of decimals token uses, divide token amount by number of decimals to get user representation"
      },
      "delegate(address)": {
        "details": "possibility to delegate your vote to another voter"
      },
      "getAllAddressesEquityToken()": {
        "details": "getter for TotalDistribution array",
        "return": "array with all addresses (owner)"
      },
      "getInfosEquityToken()": {
        "details": "returns Infos of equity token, as struct is not returnable in current solidity version"
      },
      "granularity()": {
        "details": "smallest part of token not divisible"
      },
      "isOperatorFor(address,address)": {
        "return": "true if _operator is authorized for _tokenHolder"
      },
      "sendAdHocMessage(string)": {
        "details": "possibility to broadcast adHocMessages for any size"
      },
      "setDocument(bytes32,string,bytes32)": {
        "details": "manage documents associated with token, using IPFS encrypted peer-to-peer filesharing"
      },
      "totalSupply()": {
        "details": "total amount of a token "
      },
      "tranchesOf(address)": {
        "details": "tranches of a tokenholder"
      },
      "uploadDocument(bytes32,string,bytes32)": {
        "details": "manage documents associated with investor"
      },
      "vote(uint256)": {
        "details": "give your vote for specific proposal"
      },
      "winningProposal()": {
        "details": "computes the winning proposal, gets proposal name from array and returns, fires event"
      }
    }
  },
  "userdoc": {
    "methods": {
      "allowance(address,address)": {
        "notice": "ERC20 mandatory"
      },
      "approve(address,uint256)": {
        "notice": "ERC20 mandatory"
      },
      "authorizeAdvocate(address)": {
        "notice": "authorize a third party _operator to manage (send) msg.sender's tokens. msg.sender always operator himself, thus requirementERC777 mandatory"
      },
      "authorizeOperator(address)": {
        "notice": "authorize a third party _operator to manage (send) msg.sender's tokens. msg.sender always operator himself, thus requirementERC777 mandatory"
      },
      "authorizeRequest(address)": {
        "notice": "advocate can approve investor to another level of accreditation; 0 = no investor, 1 = approved investor, 2 = advocate"
      },
      "balanceOf(address)": {
        "notice": "ERC20 mandatory, ERC777 mandatory"
      },
      "balanceOfByTranche(address,uint256)": {
        "notice": "EIP1410 proposal"
      },
      "burn(address,uint256,bytes)": {
        "notice": "process to burn equity_burn function can be used by Company AND private token holder, burn is a shell and important to fullfil onlyOwner requirementcompliant with ERC777 & EIP1410"
      },
      "burnByTranche(uint256,address,uint256,bytes)": {
        "notice": "burn function can be used by Company AND private token holder, important to fullfil onlyOwner requirement"
      },
      "clearRequest(bytes32)": {
        "notice": "advocate can clear a companies request, changing status pending into active token"
      },
      "decimals()": {
        "notice": "ERC20 optional, ERC777 mandatory to be 18"
      },
      "defaultOperators()": {
        "notice": "ERC777 mandatory"
      },
      "disableERC20()": {
        "notice": "disables the ERC20 interface. "
      },
      "enableERC20()": {
        "notice": "enables the ERC20 interface."
      },
      "getBalanceOfInEth(address)": {
        "notice": "convert balance of token in ETH or other currencies"
      },
      "getProposals()": {
        "notice": "for EVM could be possible to work with fixed array e.g. 3 proposals"
      },
      "granularity()": {
        "notice": "ERC777 mandatory"
      },
      "isControllable()": {
        "notice": "provides transparency wether defaultOperators can be adjusted by company: if government address is set company changed it and is thus not controllable (return false)"
      },
      "isOperatorFor(address,address)": {
        "notice": "check whether the _operator address is allowed to manage the tokens held by _tokenHolder address.ERC777 mandatory"
      },
      "mint(uint256,bytes,bytes)": {
        "notice": "process to mint new equitycompliant with ERC777 & EIP1410"
      },
      "name()": {
        "notice": "event quaterlyUpdate(uint _revenue, uint _revenueforecast);ERC20 optional, ERC777 mandatory"
      },
      "operatorBurn(address,uint256,bytes)": {
        "notice": "ERC777 mandatory"
      },
      "operatorBurnByTranche(uint256,address,uint256,bytes)": {
        "notice": "EIP1400 mandatory"
      },
      "revokeOperator(address)": {
        "notice": "revoke a third party _operator's rights to manage (send) msg.sender's tokens.ERC777 mandatory, EIP1400 & EIP1410 in discussionit may be that regulations require an issuer or a trusted third party to retain the power thus it can be that revoking an operator MUST NOT be allowed"
      },
      "setDocument(bytes32,string,bytes32)": {
        "notice": "EIP1400 proposal"
      },
      "startBallot(bytes32[])": {
        "notice": "create a new ballot, only possible for owner of company"
      },
      "stopIssuance()": {
        "notice": "owner can stop issuance, not revertable!EIP1400 mandatory"
      },
      "symbol()": {
        "notice": "ERC20 optional, ERC777 mandatory"
      },
      "totalSupply()": {
        "notice": "ERC20 mandatory, ERC777 mandatory"
      },
      "tranchesOf(address)": {
        "notice": "EIP1410 proposal"
      }
    }
  }
}