{
  "contractName": "EquityTokenTransactionHelper",
  "abi": [
    {
      "constant": false,
      "inputs": [
        {
          "name": "_name",
          "type": "bytes32"
        },
        {
          "name": "_key",
          "type": "string"
        },
        {
          "name": "_documentHash",
          "type": "bytes32"
        }
      ],
      "name": "setDocument",
      "outputs": [],
      "payable": true,
      "stateMutability": "payable",
      "type": "function"
    },
    {
      "constant": false,
      "inputs": [
        {
          "name": "_proposal",
          "type": "uint256"
        }
      ],
      "name": "vote",
      "outputs": [],
      "payable": false,
      "stateMutability": "nonpayable",
      "type": "function"
    },
    {
      "constant": true,
      "inputs": [
        {
          "name": "_name",
          "type": "bytes32"
        },
        {
          "name": "_documentsFrom",
          "type": "address"
        }
      ],
      "name": "getDocument",
      "outputs": [
        {
          "name": "",
          "type": "string"
        },
        {
          "name": "",
          "type": "bytes32"
        }
      ],
      "payable": false,
      "stateMutability": "view",
      "type": "function"
    },
    {
      "constant": true,
      "inputs": [],
      "name": "defaultOperators",
      "outputs": [
        {
          "name": "",
          "type": "address[2]"
        }
      ],
      "payable": false,
      "stateMutability": "view",
      "type": "function"
    },
    {
      "constant": true,
      "inputs": [],
      "name": "name",
      "outputs": [
        {
          "name": "",
          "type": "bytes32"
        }
      ],
      "payable": false,
      "stateMutability": "view",
      "type": "function"
    },
    {
      "constant": false,
      "inputs": [],
      "name": "enableERC20",
      "outputs": [],
      "payable": false,
      "stateMutability": "nonpayable",
      "type": "function"
    },
    {
      "constant": false,
      "inputs": [
        {
          "name": "_spender",
          "type": "address"
        },
        {
          "name": "_txamount",
          "type": "uint256"
        }
      ],
      "name": "approve",
      "outputs": [
        {
          "name": "success_",
          "type": "bool"
        }
      ],
      "payable": false,
      "stateMutability": "nonpayable",
      "type": "function"
    },
    {
      "constant": true,
      "inputs": [
        {
          "name": "",
          "type": "uint256"
        }
      ],
      "name": "TotalDistribution",
      "outputs": [
        {
          "name": "",
          "type": "address"
        }
      ],
      "payable": false,
      "stateMutability": "view",
      "type": "function"
    },
    {
      "constant": true,
      "inputs": [],
      "name": "getInfosEquityToken",
      "outputs": [
        {
          "name": "",
          "type": "uint256"
        },
        {
          "name": "",
          "type": "bytes32"
        },
        {
          "name": "",
          "type": "bytes32"
        },
        {
          "name": "",
          "type": "uint256"
        },
        {
          "name": "",
          "type": "uint256"
        }
      ],
      "payable": false,
      "stateMutability": "view",
      "type": "function"
    },
    {
      "constant": true,
      "inputs": [],
      "name": "totalSupply",
      "outputs": [
        {
          "name": "",
          "type": "uint256"
        }
      ],
      "payable": false,
      "stateMutability": "view",
      "type": "function"
    },
    {
      "constant": true,
      "inputs": [
        {
          "name": "_addr",
          "type": "address"
        }
      ],
      "name": "getBalanceOfInEth",
      "outputs": [
        {
          "name": "",
          "type": "uint256"
        }
      ],
      "payable": false,
      "stateMutability": "view",
      "type": "function"
    },
    {
      "constant": false,
      "inputs": [
        {
          "name": "_trancheId",
          "type": "uint256"
        },
        {
          "name": "_from",
          "type": "address"
        },
        {
          "name": "_amount",
          "type": "uint256"
        },
        {
          "name": "_operatorData",
          "type": "bytes"
        }
      ],
      "name": "burnByTranche",
      "outputs": [],
      "payable": false,
      "stateMutability": "nonpayable",
      "type": "function"
    },
    {
      "constant": false,
      "inputs": [
        {
          "name": "_addr",
          "type": "address"
        }
      ],
      "name": "setCompanyOwner",
      "outputs": [],
      "payable": false,
      "stateMutability": "nonpayable",
      "type": "function"
    },
    {
      "constant": true,
      "inputs": [],
      "name": "isIssuable",
      "outputs": [
        {
          "name": "",
          "type": "bool"
        }
      ],
      "payable": false,
      "stateMutability": "view",
      "type": "function"
    },
    {
      "constant": true,
      "inputs": [],
      "name": "decimals",
      "outputs": [
        {
          "name": "",
          "type": "uint8"
        }
      ],
      "payable": false,
      "stateMutability": "view",
      "type": "function"
    },
    {
      "constant": false,
      "inputs": [
        {
          "name": "_from",
          "type": "address"
        },
        {
          "name": "_amount",
          "type": "uint256"
        },
        {
          "name": "_operatorData",
          "type": "bytes"
        }
      ],
      "name": "burn",
      "outputs": [],
      "payable": false,
      "stateMutability": "nonpayable",
      "type": "function"
    },
    {
      "constant": false,
      "inputs": [
        {
          "name": "_advocate",
          "type": "address"
        }
      ],
      "name": "authorizeAdvocate",
      "outputs": [],
      "payable": false,
      "stateMutability": "nonpayable",
      "type": "function"
    },
    {
      "constant": true,
      "inputs": [],
      "name": "isControllable",
      "outputs": [
        {
          "name": "",
          "type": "bool"
        }
      ],
      "payable": false,
      "stateMutability": "view",
      "type": "function"
    },
    {
      "constant": false,
      "inputs": [
        {
          "name": "_name",
          "type": "bytes32"
        },
        {
          "name": "_key",
          "type": "string"
        },
        {
          "name": "_documentHash",
          "type": "bytes32"
        }
      ],
      "name": "uploadDocument",
      "outputs": [],
      "payable": true,
      "stateMutability": "payable",
      "type": "function"
    },
    {
      "constant": true,
      "inputs": [],
      "name": "granularity",
      "outputs": [
        {
          "name": "",
          "type": "uint256"
        }
      ],
      "payable": false,
      "stateMutability": "view",
      "type": "function"
    },
    {
      "constant": false,
      "inputs": [
        {
          "name": "_to",
          "type": "address"
        }
      ],
      "name": "delegate",
      "outputs": [],
      "payable": false,
      "stateMutability": "nonpayable",
      "type": "function"
    },
    {
      "constant": false,
      "inputs": [],
      "name": "winningProposal",
      "outputs": [
        {
          "name": "winnerName_",
          "type": "bytes32"
        }
      ],
      "payable": false,
      "stateMutability": "nonpayable",
      "type": "function"
    },
    {
      "constant": true,
      "inputs": [],
      "name": "getProposals",
      "outputs": [
        {
          "name": "",
          "type": "bytes32[]"
        }
      ],
      "payable": false,
      "stateMutability": "view",
      "type": "function"
    },
    {
      "constant": false,
      "inputs": [
        {
          "name": "_addr",
          "type": "address"
        }
      ],
      "name": "setGovernmentAddress",
      "outputs": [],
      "payable": false,
      "stateMutability": "nonpayable",
      "type": "function"
    },
    {
      "constant": false,
      "inputs": [
        {
          "name": "_adjustedLockup",
          "type": "uint256"
        }
      ],
      "name": "setLockup",
      "outputs": [],
      "payable": false,
      "stateMutability": "nonpayable",
      "type": "function"
    },
    {
      "constant": true,
      "inputs": [],
      "name": "accreditationFee",
      "outputs": [
        {
          "name": "",
          "type": "uint256"
        }
      ],
      "payable": false,
      "stateMutability": "view",
      "type": "function"
    },
    {
      "constant": true,
      "inputs": [
        {
          "name": "_addr",
          "type": "address"
        }
      ],
      "name": "balanceOf",
      "outputs": [
        {
          "name": "",
          "type": "uint256"
        }
      ],
      "payable": false,
      "stateMutability": "view",
      "type": "function"
    },
    {
      "constant": false,
      "inputs": [
        {
          "name": "_authorizedInvestor",
          "type": "address"
        }
      ],
      "name": "authorizeRequest",
      "outputs": [],
      "payable": false,
      "stateMutability": "nonpayable",
      "type": "function"
    },
    {
      "constant": false,
      "inputs": [
        {
          "name": "_operator",
          "type": "address"
        }
      ],
      "name": "authorizeOperator",
      "outputs": [],
      "payable": false,
      "stateMutability": "nonpayable",
      "type": "function"
    },
    {
      "constant": true,
      "inputs": [],
      "name": "symbol",
      "outputs": [
        {
          "name": "",
          "type": "bytes32"
        }
      ],
      "payable": false,
      "stateMutability": "view",
      "type": "function"
    },
    {
      "constant": false,
      "inputs": [
        {
          "name": "_amount",
          "type": "uint256"
        },
        {
          "name": "_userData",
          "type": "bytes"
        },
        {
          "name": "_operatorData",
          "type": "bytes"
        }
      ],
      "name": "mint",
      "outputs": [],
      "payable": false,
      "stateMutability": "nonpayable",
      "type": "function"
    },
    {
      "constant": true,
      "inputs": [
        {
          "name": "_index",
          "type": "uint256"
        }
      ],
      "name": "getVoteCount",
      "outputs": [
        {
          "name": "voteCount_",
          "type": "uint256"
        }
      ],
      "payable": false,
      "stateMutability": "view",
      "type": "function"
    },
    {
      "constant": false,
      "inputs": [],
      "name": "stopIssuance",
      "outputs": [],
      "payable": false,
      "stateMutability": "nonpayable",
      "type": "function"
    },
    {
      "constant": false,
      "inputs": [
        {
          "name": "_message",
          "type": "string"
        }
      ],
      "name": "sendAdHocMessage",
      "outputs": [],
      "payable": false,
      "stateMutability": "nonpayable",
      "type": "function"
    },
    {
      "constant": true,
      "inputs": [],
      "name": "getAllAddressesEquityToken",
      "outputs": [
        {
          "name": "",
          "type": "address[]"
        }
      ],
      "payable": false,
      "stateMutability": "view",
      "type": "function"
    },
    {
      "constant": false,
      "inputs": [
        {
          "name": "_from",
          "type": "address"
        },
        {
          "name": "_amount",
          "type": "uint256"
        },
        {
          "name": "_operatorData",
          "type": "bytes"
        }
      ],
      "name": "operatorBurn",
      "outputs": [],
      "payable": false,
      "stateMutability": "nonpayable",
      "type": "function"
    },
    {
      "constant": true,
      "inputs": [
        {
          "name": "",
          "type": "uint256"
        }
      ],
      "name": "Proposals",
      "outputs": [
        {
          "name": "name",
          "type": "bytes32"
        },
        {
          "name": "voteCount",
          "type": "uint256"
        }
      ],
      "payable": false,
      "stateMutability": "view",
      "type": "function"
    },
    {
      "constant": true,
      "inputs": [],
      "name": "governmentAddress",
      "outputs": [
        {
          "name": "",
          "type": "address"
        }
      ],
      "payable": false,
      "stateMutability": "view",
      "type": "function"
    },
    {
      "constant": true,
      "inputs": [
        {
          "name": "_operator",
          "type": "address"
        },
        {
          "name": "_tokenHolder",
          "type": "address"
        }
      ],
      "name": "isOperatorFor",
      "outputs": [
        {
          "name": "",
          "type": "bool"
        }
      ],
      "payable": false,
      "stateMutability": "view",
      "type": "function"
    },
    {
      "constant": true,
      "inputs": [],
      "name": "getCompanyOwner",
      "outputs": [
        {
          "name": "",
          "type": "address"
        }
      ],
      "payable": false,
      "stateMutability": "view",
      "type": "function"
    },
    {
      "constant": false,
      "inputs": [
        {
          "name": "_trancheId",
          "type": "uint256"
        },
        {
          "name": "_from",
          "type": "address"
        },
        {
          "name": "_amount",
          "type": "uint256"
        },
        {
          "name": "_operatorData",
          "type": "bytes"
        }
      ],
      "name": "operatorBurnByTranche",
      "outputs": [],
      "payable": false,
      "stateMutability": "nonpayable",
      "type": "function"
    },
    {
      "constant": true,
      "inputs": [
        {
          "name": "_owner",
          "type": "address"
        },
        {
          "name": "_spender",
          "type": "address"
        }
      ],
      "name": "allowance",
      "outputs": [
        {
          "name": "remaining",
          "type": "uint256"
        }
      ],
      "payable": false,
      "stateMutability": "view",
      "type": "function"
    },
    {
      "constant": false,
      "inputs": [
        {
          "name": "_companyName",
          "type": "bytes32"
        },
        {
          "name": "_tokenTicker",
          "type": "bytes32"
        },
        {
          "name": "_granularity",
          "type": "uint256"
        }
      ],
      "name": "createToken",
      "outputs": [],
      "payable": false,
      "stateMutability": "nonpayable",
      "type": "function"
    },
    {
      "constant": true,
      "inputs": [
        {
          "name": "_addr",
          "type": "address"
        }
      ],
      "name": "tranchesOf",
      "outputs": [
        {
          "name": "",
          "type": "uint256[]"
        }
      ],
      "payable": false,
      "stateMutability": "view",
      "type": "function"
    },
    {
      "constant": false,
      "inputs": [
        {
          "name": "_companyName",
          "type": "bytes32"
        }
      ],
      "name": "clearRequest",
      "outputs": [],
      "payable": false,
      "stateMutability": "nonpayable",
      "type": "function"
    },
    {
      "constant": true,
      "inputs": [
        {
          "name": "_addr",
          "type": "address"
        },
        {
          "name": "_trancheId",
          "type": "uint256"
        }
      ],
      "name": "balanceOfByTranche",
      "outputs": [
        {
          "name": "",
          "type": "uint256"
        }
      ],
      "payable": false,
      "stateMutability": "view",
      "type": "function"
    },
    {
      "constant": true,
      "inputs": [
        {
          "name": "_from",
          "type": "address"
        }
      ],
      "name": "getDefaultTranches",
      "outputs": [
        {
          "name": "",
          "type": "uint256[]"
        }
      ],
      "payable": false,
      "stateMutability": "view",
      "type": "function"
    },
    {
      "constant": false,
      "inputs": [],
      "name": "disableERC20",
      "outputs": [],
      "payable": false,
      "stateMutability": "nonpayable",
      "type": "function"
    },
    {
      "constant": false,
      "inputs": [
        {
          "name": "_operator",
          "type": "address"
        }
      ],
      "name": "revokeOperator",
      "outputs": [],
      "payable": false,
      "stateMutability": "nonpayable",
      "type": "function"
    },
    {
      "constant": false,
      "inputs": [
        {
          "name": "proposalNames",
          "type": "bytes32[]"
        }
      ],
      "name": "startBallot",
      "outputs": [],
      "payable": false,
      "stateMutability": "nonpayable",
      "type": "function"
    },
    {
      "anonymous": false,
      "inputs": [
        {
          "indexed": false,
          "name": "_txpercentage",
          "type": "uint256"
        }
      ],
      "name": "Dividend",
      "type": "event"
    },
    {
      "anonymous": false,
      "inputs": [
        {
          "indexed": false,
          "name": "operator",
          "type": "address"
        },
        {
          "indexed": false,
          "name": "from",
          "type": "address"
        },
        {
          "indexed": false,
          "name": "to",
          "type": "address"
        },
        {
          "indexed": false,
          "name": "amount",
          "type": "uint256"
        },
        {
          "indexed": false,
          "name": "userData",
          "type": "bytes"
        },
        {
          "indexed": false,
          "name": "operatorData",
          "type": "bytes"
        }
      ],
      "name": "Sent",
      "type": "event"
    },
    {
      "anonymous": false,
      "inputs": [
        {
          "indexed": false,
          "name": "fromTranche",
          "type": "uint256"
        },
        {
          "indexed": false,
          "name": "operator",
          "type": "address"
        },
        {
          "indexed": false,
          "name": "from",
          "type": "address"
        },
        {
          "indexed": false,
          "name": "to",
          "type": "address"
        },
        {
          "indexed": false,
          "name": "amount",
          "type": "uint256"
        },
        {
          "indexed": false,
          "name": "userData",
          "type": "bytes"
        },
        {
          "indexed": false,
          "name": "operatorData",
          "type": "bytes"
        }
      ],
      "name": "SentByTranche",
      "type": "event"
    },
    {
      "anonymous": false,
      "inputs": [
        {
          "indexed": false,
          "name": "_message",
          "type": "string"
        },
        {
          "indexed": false,
          "name": "_company",
          "type": "address"
        }
      ],
      "name": "adHocMessage",
      "type": "event"
    },
    {
      "anonymous": false,
      "inputs": [
        {
          "indexed": false,
          "name": "winnerName",
          "type": "bytes32"
        },
        {
          "indexed": false,
          "name": "countVotes",
          "type": "uint256"
        }
      ],
      "name": "votingSuccessful",
      "type": "event"
    },
    {
      "anonymous": false,
      "inputs": [
        {
          "indexed": false,
          "name": "_from",
          "type": "address"
        },
        {
          "indexed": false,
          "name": "_to",
          "type": "address"
        },
        {
          "indexed": false,
          "name": "_txamount",
          "type": "uint256"
        }
      ],
      "name": "Approval",
      "type": "event"
    },
    {
      "anonymous": false,
      "inputs": [
        {
          "indexed": false,
          "name": "companyName",
          "type": "bytes32"
        },
        {
          "indexed": false,
          "name": "tokenTicker",
          "type": "bytes32"
        },
        {
          "indexed": false,
          "name": "companyOwner",
          "type": "address"
        }
      ],
      "name": "newTokenIssuance",
      "type": "event"
    },
    {
      "anonymous": false,
      "inputs": [
        {
          "indexed": false,
          "name": "operator",
          "type": "address"
        },
        {
          "indexed": false,
          "name": "to",
          "type": "address"
        },
        {
          "indexed": false,
          "name": "amount",
          "type": "uint256"
        },
        {
          "indexed": false,
          "name": "userData",
          "type": "bytes"
        },
        {
          "indexed": false,
          "name": "operatorData",
          "type": "bytes"
        }
      ],
      "name": "Minted",
      "type": "event"
    },
    {
      "anonymous": false,
      "inputs": [
        {
          "indexed": false,
          "name": "operator",
          "type": "address"
        },
        {
          "indexed": false,
          "name": "from",
          "type": "address"
        },
        {
          "indexed": false,
          "name": "amount",
          "type": "uint256"
        },
        {
          "indexed": false,
          "name": "operatorData",
          "type": "bytes"
        }
      ],
      "name": "Burned",
      "type": "event"
    },
    {
      "anonymous": false,
      "inputs": [
        {
          "indexed": false,
          "name": "trancheId",
          "type": "uint256"
        },
        {
          "indexed": false,
          "name": "operator",
          "type": "address"
        },
        {
          "indexed": false,
          "name": "to",
          "type": "address"
        },
        {
          "indexed": false,
          "name": "amount",
          "type": "uint256"
        },
        {
          "indexed": false,
          "name": "userData",
          "type": "bytes"
        },
        {
          "indexed": false,
          "name": "operatorData",
          "type": "bytes"
        }
      ],
      "name": "MintedByTranche",
      "type": "event"
    },
    {
      "anonymous": false,
      "inputs": [
        {
          "indexed": false,
          "name": "trancheId",
          "type": "uint256"
        },
        {
          "indexed": false,
          "name": "operator",
          "type": "address"
        },
        {
          "indexed": false,
          "name": "from",
          "type": "address"
        },
        {
          "indexed": false,
          "name": "amount",
          "type": "uint256"
        },
        {
          "indexed": false,
          "name": "operatorData",
          "type": "bytes"
        }
      ],
      "name": "BurnedByTranche",
      "type": "event"
    },
    {
      "anonymous": false,
      "inputs": [
        {
          "indexed": false,
          "name": "newShareholder",
          "type": "address"
        },
        {
          "indexed": false,
          "name": "length",
          "type": "uint256"
        }
      ],
      "name": "newShareholder",
      "type": "event"
    },
    {
      "anonymous": false,
      "inputs": [
        {
          "indexed": false,
          "name": "_from",
          "type": "address"
        },
        {
          "indexed": false,
          "name": "_to",
          "type": "address"
        },
        {
          "indexed": false,
          "name": "_txamount",
          "type": "uint256"
        }
      ],
      "name": "Transfer",
      "type": "event"
    },
    {
      "anonymous": false,
      "inputs": [
        {
          "indexed": false,
          "name": "operator",
          "type": "address"
        },
        {
          "indexed": false,
          "name": "tokenHolder",
          "type": "address"
        }
      ],
      "name": "AuthorizedOperator",
      "type": "event"
    },
    {
      "anonymous": false,
      "inputs": [
        {
          "indexed": true,
          "name": "operator",
          "type": "address"
        },
        {
          "indexed": true,
          "name": "tokenHolder",
          "type": "address"
        }
      ],
      "name": "RevokedOperator",
      "type": "event"
    },
    {
      "constant": false,
      "inputs": [
        {
          "name": "_to",
          "type": "address"
        },
        {
          "name": "_txamount",
          "type": "uint256"
        },
        {
          "name": "_userData",
          "type": "bytes"
        }
      ],
      "name": "send",
      "outputs": [
        {
          "name": "success_",
          "type": "bool"
        }
      ],
      "payable": false,
      "stateMutability": "nonpayable",
      "type": "function"
    },
    {
      "constant": false,
      "inputs": [
        {
          "name": "_to",
          "type": "address"
        },
        {
          "name": "_txamount",
          "type": "uint256"
        }
      ],
      "name": "send",
      "outputs": [
        {
          "name": "success_",
          "type": "bool"
        }
      ],
      "payable": false,
      "stateMutability": "nonpayable",
      "type": "function"
    },
    {
      "constant": false,
      "inputs": [
        {
          "name": "_from",
          "type": "address"
        },
        {
          "name": "_to",
          "type": "address"
        },
        {
          "name": "_txamount",
          "type": "uint256"
        },
        {
          "name": "_userData",
          "type": "bytes"
        },
        {
          "name": "_operatorData",
          "type": "bytes"
        }
      ],
      "name": "operatorSend",
      "outputs": [
        {
          "name": "success_",
          "type": "bool"
        }
      ],
      "payable": false,
      "stateMutability": "nonpayable",
      "type": "function"
    },
    {
      "constant": false,
      "inputs": [
        {
          "name": "_trancheId",
          "type": "uint256"
        },
        {
          "name": "_to",
          "type": "address"
        },
        {
          "name": "_txamount",
          "type": "uint256"
        },
        {
          "name": "_userData",
          "type": "bytes"
        }
      ],
      "name": "sendByTranche",
      "outputs": [
        {
          "name": "",
          "type": "uint256"
        }
      ],
      "payable": false,
      "stateMutability": "nonpayable",
      "type": "function"
    },
    {
      "constant": false,
      "inputs": [
        {
          "name": "_trancheId",
          "type": "uint256"
        },
        {
          "name": "_to",
          "type": "address"
        },
        {
          "name": "_txamount",
          "type": "uint256"
        }
      ],
      "name": "sendByTranche",
      "outputs": [
        {
          "name": "",
          "type": "uint256"
        }
      ],
      "payable": false,
      "stateMutability": "nonpayable",
      "type": "function"
    },
    {
      "constant": false,
      "inputs": [
        {
          "name": "_trancheId",
          "type": "uint256"
        },
        {
          "name": "_from",
          "type": "address"
        },
        {
          "name": "_to",
          "type": "address"
        },
        {
          "name": "_txamount",
          "type": "uint256"
        },
        {
          "name": "_userData",
          "type": "bytes"
        },
        {
          "name": "_operatorData",
          "type": "bytes"
        }
      ],
      "name": "operatorSendByTranche",
      "outputs": [
        {
          "name": "",
          "type": "uint256"
        }
      ],
      "payable": false,
      "stateMutability": "nonpayable",
      "type": "function"
    },
    {
      "constant": false,
      "inputs": [
        {
          "name": "_trancheId",
          "type": "uint256"
        },
        {
          "name": "_from",
          "type": "address"
        },
        {
          "name": "_to",
          "type": "address"
        },
        {
          "name": "_txamount",
          "type": "uint256"
        },
        {
          "name": "_userData",
          "type": "bytes"
        }
      ],
      "name": "canSend",
      "outputs": [
        {
          "name": "",
          "type": "bytes1"
        },
        {
          "name": "",
          "type": "bytes32"
        },
        {
          "name": "",
          "type": "uint256"
        }
      ],
      "payable": false,
      "stateMutability": "nonpayable",
      "type": "function"
    },
    {
      "constant": false,
      "inputs": [
        {
          "name": "_to",
          "type": "address"
        },
        {
          "name": "_txamount",
          "type": "uint256"
        }
      ],
      "name": "transfer",
      "outputs": [
        {
          "name": "success_",
          "type": "bool"
        }
      ],
      "payable": false,
      "stateMutability": "nonpayable",
      "type": "function"
    },
    {
      "constant": false,
      "inputs": [
        {
          "name": "_from",
          "type": "address"
        },
        {
          "name": "_to",
          "type": "address"
        },
        {
          "name": "_txamount",
          "type": "uint256"
        }
      ],
      "name": "transferFrom",
      "outputs": [
        {
          "name": "success_",
          "type": "bool"
        }
      ],
      "payable": false,
      "stateMutability": "nonpayable",
      "type": "function"
    },
    {
      "constant": false,
      "inputs": [
        {
          "name": "_txpercentage",
          "type": "uint256"
        }
      ],
      "name": "payDividend",
      "outputs": [],
      "payable": false,
      "stateMutability": "nonpayable",
      "type": "function"
    }
  ],
  "bytecode": "0x60806040526301e133806016556017805460ff19166001179055600060185564e8d4a51000601955670de0b6b3a7640000601b5534801561003f57600080fd5b50614f558061004f6000396000f3006080604052600436106102c95763ffffffff7c0100000000000000000000000000000000000000000000000000000000600035041663010648ca81146102ce5780630121b93f146102ea5780630317b1da1461030257806306e48538146103a657806306fdde03146103f6578063070c87f91461041d578063095ea7b3146104325780630b366df11461046a57806312497cc81461049e5780631348bf22146104d357806318160ddd1461051357806318d467181461052857806323b872dd146105495780632515994e146105735780632a88511a1461058b5780632d3d3f9c146105fa5780632f1cae851461061b578063313ce5671461063057806344d171871461065b5780634af3e63f146106c45780634c783bf5146106e55780634f8d620b146106fa5780635547641b146102ce578063556f0dc7146107215780635c19a95c14610736578063609ff1bd1461075757806362564c481461076c57806362ad1b83146107d15780636a1372191461087e5780636ae6b4591461089f5780636e4a2194146108b757806370a08231146108cc5780638cbd5f45146108ed578063959b8c3f1461090e57806395d89b411461092f5780639bd9bbc614610944578063a3cba09a146109ad578063a9059cbb14610a49578063b2c2f2e814610a6d578063b8fe4c3f14610a85578063c018f1d014610a9a578063c073d83614610af3578063c3d9b9b114610b08578063ce30b8d914610b86578063ce9d1fd714610bef578063d0679d3414610c38578063d1dbe7d814610c5c578063d570ab3414610c8d578063d95b637114610ca2578063dad3e6dd14610cc9578063dbb8299b14610cde578063dd62ed3e14610d4d578063dfa9429214610d74578063e3da9f8f14610d92578063e53286c514610db3578063e75b0cf514610dcb578063f3be07eb14610def578063f922f21614610e10578063fad8b32a14610e25578063fc1865a014610e46575b600080fd5b6102e8600480359060248035908101910135604435610e9b565b005b3480156102f657600080fd5b506102e8600435610fb0565b34801561030e57600080fd5b50610326600435600160a060020a0360243516611090565b604080516020808201849052828252845192820192909252835190918291606083019186019080838360005b8381101561036a578181015183820152602001610352565b50505050905090810190601f1680156103975780820380516001836020036101000a031916815260200191505b50935050505060405180910390f35b3480156103b257600080fd5b506103bb6112e3565b6040518082600260200280838360005b838110156103e35781810151838201526020016103cb565b5050505090500191505060405180910390f35b34801561040257600080fd5b5061040b611329565b60408051918252519081900360200190f35b34801561042957600080fd5b506102e861132f565b34801561043e57600080fd5b50610456600160a060020a03600435166024356113a2565b604080519115158252519081900360200190f35b34801561047657600080fd5b506104826004356114d7565b60408051600160a060020a039092168252519081900360200190f35b3480156104aa57600080fd5b5061040b600480359060248035600160a060020a031691604435916064359081019101356114ff565b3480156104df57600080fd5b506104e861155c565b6040805195865260208601949094528484019290925260608401526080830152519081900360a00190f35b34801561051f57600080fd5b5061040b611572565b34801561053457600080fd5b5061040b600160a060020a0360043516611578565b34801561055557600080fd5b50610456600160a060020a0360043581169060243516604435611628565b34801561057f57600080fd5b506102e860043561178d565b34801561059757600080fd5b50604080516020601f6064356004818101359283018490048402850184019095528184526102e894803594600160a060020a0360248035919091169560443595369560849493019181908401838280828437509497506119c39650505050505050565b34801561060657600080fd5b506102e8600160a060020a0360043516611a37565b34801561062757600080fd5b50610456611abd565b34801561063c57600080fd5b50610645611ac6565b6040805160ff9092168252519081900360200190f35b34801561066757600080fd5b50604080516020600460443581810135601f81018490048402850184019095528484526102e8948235600160a060020a0316946024803595369594606494920191908190840183828082843750949750611b2a9650505050505050565b3480156106d057600080fd5b506102e8600160a060020a0360043516611b9c565b3480156106f157600080fd5b50610456611c51565b34801561070657600080fd5b5061040b600435600160a060020a0360243516604435611c73565b34801561072d57600080fd5b5061040b611cae565b34801561074257600080fd5b506102e8600160a060020a0360043516611cb4565b34801561076357600080fd5b5061040b611ee4565b34801561077857600080fd5b50610781611fad565b60408051602080825283518183015283519192839290830191858101910280838360005b838110156107bd5781810151838201526020016107a5565b505050509050019250505060405180910390f35b3480156107dd57600080fd5b50604080516020601f60643560048181013592830184900484028501840190955281845261045694600160a060020a03813581169560248035909216956044359536956084940191819084018382808284375050604080516020601f89358b018035918201839004830284018301909452808352979a9998810197919650918201945092508291508401838280828437509497506120039650505050505050565b34801561088a57600080fd5b506102e8600160a060020a0360043516612081565b3480156108ab57600080fd5b506102e860043561218f565b3480156108c357600080fd5b5061040b6121f8565b3480156108d857600080fd5b5061040b600160a060020a03600435166121fe565b3480156108f957600080fd5b506102e8600160a060020a0360043516612219565b34801561091a57600080fd5b506102e8600160a060020a03600435166122dd565b34801561093b57600080fd5b5061040b6123cf565b34801561095057600080fd5b50604080516020600460443581810135601f8101849004840285018401909552848452610456948235600160a060020a03169460248035953695946064949201919081908401838280828437509497506123d59650505050505050565b3480156109b957600080fd5b5060408051602060046024803582810135601f81018590048502860185019096528585526102e895833595369560449491939091019190819084018382808284375050604080516020601f89358b018035918201839004830284018301909452808352979a9998810197919650918201945092508291508401838280828437509497506123f59650505050505050565b348015610a5557600080fd5b50610456600160a060020a0360043516602435612941565b348015610a7957600080fd5b5061040b6004356129d6565b348015610a9157600080fd5b506102e8612a01565b348015610aa657600080fd5b506040805160206004803580820135601f81018490048402850184019095528484526102e8943694929360249392840191908190840183828082843750949750612a719650505050505050565b348015610aff57600080fd5b50610781612b27565b348015610b1457600080fd5b50610b456004803590600160a060020a03602480358216926044359092169160643591608435908101910135612b87565b604080517fff000000000000000000000000000000000000000000000000000000000000009094168452602084019290925282820152519081900360600190f35b348015610b9257600080fd5b50604080516020600460443581810135601f81018490048402850184019095528484526102e8948235600160a060020a0316946024803595369594606494920191908190840183828082843750949750612c6d9650505050505050565b348015610bfb57600080fd5b5061040b6004803590600160a060020a0360248035821692604435909216916064359160843580820192908101359160a435908101910135612cda565b348015610c4457600080fd5b50610456600160a060020a0360043516602435612dbe565b348015610c6857600080fd5b50610c74600435612dee565b6040805192835260208301919091528051918290030190f35b348015610c9957600080fd5b50610482612e1a565b348015610cae57600080fd5b50610456600160a060020a0360043581169060243516612e29565b348015610cd557600080fd5b50610482612e77565b348015610cea57600080fd5b50604080516020601f6064356004818101359283018490048402850184019095528184526102e894803594600160a060020a036024803591909116956044359536956084949301918190840183828082843750949750612e869650505050505050565b348015610d5957600080fd5b5061040b600160a060020a0360043581169060243516612ef4565b348015610d8057600080fd5b506102e8600435602435604435612f7e565b348015610d9e57600080fd5b50610781600160a060020a0360043516613068565b348015610dbf57600080fd5b506102e86004356130d4565b348015610dd757600080fd5b5061040b600160a060020a03600435166024356130ef565b348015610dfb57600080fd5b50610781600160a060020a0360043516613117565b348015610e1c57600080fd5b506102e8613128565b348015610e3157600080fd5b506102e8600160a060020a0360043516613198565b348015610e5257600080fd5b50604080516020600480358082013583810280860185019096528085526102e89536959394602494938501929182918501908490808284375094975061324f9650505050505050565b601b543414610f1a576040805160e560020a62461bcd02815260206004820152602860248201527f6e6f7420656e6f75676820657468657220696e20666f722070617961626c652060448201527f66756e6374696f6e000000000000000000000000000000000000000000000000606482015290519081900360840190fd5b6040805160608101825285815281516020601f86018190048102820181019093528481526015928083019190879087908190840183828082843750505092845250505060209081018490528254600181810180865560009586529483902084516003909302019182558383015180519293610f9b9392850192910190614d02565b50604091909101516002909101555050505050565b336000908152601e60205260409020600181015460ff161561101c576040805160e560020a62461bcd02815260206004820152600d60248201527f416c726561647920766f74656400000000000000000000000000000000000000604482015290519081900360640190fd5b6001818101805460ff19169091179055600281018290558054601f80546110699291908590811061104957fe5b9060005260206000209060020201600101546132d790919063ffffffff16565b601f80548490811061107757fe5b9060005260206000209060020201600101819055505050565b33600090815260076020526040812054606091908190606414611123576040805160e560020a62461bcd02815260206004820152602760248201527f7265717569726573206164766f6361746520746f2073656520646f776e6c6f6160448201527f642066696c657300000000000000000000000000000000000000000000000000606482015290519081900360840190fd5b336000908152601d60209081526040808320600160a060020a038816845290915290205460ff1615156111c6576040805160e560020a62461bcd02815260206004820152602c60248201527f6164766f63617465206973206e6f7420617574686f72697a656420746f20726560448201527f7472696576652066696c65730000000000000000000000000000000000000000606482015290519081900360840190fd5b5060005b6015548110156112db5760158054869190839081106111e557fe5b600091825260209091206003909102015414156112d357601580548290811061120a57fe5b906000526020600020906003020160010160158281548110151561122a57fe5b60009182526020918290206002600390920201810154835460408051601f6000196101006001861615020190931694909404918201859004850284018501905280835290928491908301828280156112c35780601f10611298576101008083540402835291602001916112c3565b820191906000526020600020905b8154815290600101906020018083116112a657829003601f168201915b50505050509150925092506112db565b6001016111ca565b509250929050565b6112eb614d7c565b60408051808201918290529060109060029082845b8154600160a060020a03168152600190910190602001808311611300575b505050505090505b90565b600a5490565b600f54600160a060020a03163314611393576040805160e560020a62461bcd0281526020600482015260296024820152600080516020614e4a8339815191526044820152600080516020614e8a833981519152606482015290519081900360840190fd5b601c805460ff19166001179055565b600081600d54818115156113b257fe5b061561140a576040805160e560020a62461bcd0281526020600482015260336024820152600080516020614eea8339815191526044820152600080516020614e2a833981519152606482015290519081900360840190fd5b601c5460ff161515611465576040805160e560020a62461bcd0281526020600482015260256024820152600080516020614eca833981519152604482015260da60020a6418589b195902606482015290519081900360840190fd5b336000818152600660209081526040808320600160a060020a03891680855290835292819020879055805193845290830191909152818101859052517f8c5be1e5ebec7d5bd14f71427d1e84f3dd0314c0f7b2291e5b200ac8c7c3b9259181900360600190a1600191505b5092915050565b60148054829081106114e557fe5b600091825260209091200154600160a060020a0316905081565b6000806115518733888888888080601f016020809104026020016040519081016040528093929190818152602001838380828437505060408051602081019091526000815233945092506132e9915050565b979650505050505050565b600954600a54600b54600d54600e549091929394565b600e5490565b600073__ConvertLib____________________________6396e4ee3d61159d846121fe565b60036040518363ffffffff167c0100000000000000000000000000000000000000000000000000000000028152600401808381526020018281526020019250505060206040518083038186803b1580156115f657600080fd5b505af415801561160a573d6000803e3d6000fd5b505050506040513d602081101561162057600080fd5b505192915050565b601c5460009060ff161515611686576040805160e560020a62461bcd0281526020600482015260256024820152600080516020614eca833981519152604482015260da60020a6418589b195902606482015290519081900360840190fd5b600160a060020a0384166000908152600660209081526040808320338452909152902054821115611701576040805160e560020a62461bcd02815260206004820152601b60248201527f6e6f20617070726f76616c20666f72207472616e73616374696f6e0000000000604482015290519081900360640190fd5b600160a060020a0384166000908152600660209081526040808320338452909152902054611735908363ffffffff613c4316565b600160a060020a038516600090815260066020908152604080832033808552908352818420949094558051808301825283815281519283019091529181526117839287928792879290613c5a565b5060019392505050565b600f546000908190819081908190600160a060020a031633146117fc576040805160e560020a62461bcd0281526020600482015260296024820152600080516020614e4a8339815191526044820152600080516020614e8a833981519152606482015290519081900360840190fd5b600193505b60145484101561187e5761185f606460008060148881548110151561182257fe5b6000918252602080832090910154600160a060020a0316835282019290925260400190205481151561185057fe5b8891900463ffffffff613e5516565b9250611871858463ffffffff6132d716565b9450600190930192611801565b3360009081526020819052604090205485111561190a576040805160e560020a62461bcd028152602060048201526024808201527f696e73756666696369656e742066756e64696e6720746f20706179206469766960448201527f64656e6400000000000000000000000000000000000000000000000000000000606482015290519081900360840190fd5b600191505b60145482101561198857611930606460008060148681548110151561182257fe5b905061197d3360148481548110151561194557fe5b60009182526020808320909101546040805180840182528481528151938401909152928252600160a060020a03169185913390613c5a565b60019091019061190f565b6040805187815290517f69c382338c74e0d3a990efe1a52ae89dcf6a9ab705628ec4424f49cddd4e2f899181900360200190a1505050505050565b8233600160a060020a03821614611a24576040805160e560020a62461bcd02815260206004820152601560248201527f726571756972656d656e74206f6e6c794f776e65720000000000000000000000604482015290519081900360640190fd5b611a3085858585613e83565b5050505050565b600f54600160a060020a03163314611a9b576040805160e560020a62461bcd0281526020600482015260296024820152600080516020614e4a8339815191526044820152600080516020614e8a833981519152606482015290519081900360840190fd5b600f8054600160a060020a031916600160a060020a0392909216919091179055565b60175460ff1681565b601c5460009060ff161515611b24576040805160e560020a62461bcd0281526020600482015260256024820152600080516020614eca833981519152604482015260da60020a6418589b195902606482015290519081900360840190fd5b50601290565b8233600160a060020a03821614611b8b576040805160e560020a62461bcd02815260206004820152601560248201527f726571756972656d656e74206f6e6c794f776e65720000000000000000000000604482015290519081900360640190fd5b611b9684848461422a565b50505050565b600160a060020a038116331415611c22576040805160e560020a62461bcd028152602060048201526024808201527f6d73672e73656e6465722063616e6e6f7420617574686f72697a65642068696d60448201527f73656c6600000000000000000000000000000000000000000000000000000000606482015290519081900360840190fd5b600160a060020a03166000908152601d602090815260408083203384529091529020805460ff19166001179055565b601a54600090600160a060020a031615611c6d57506000611326565b50600190565b600080611ca58533868660206040519081016040528060008152503360206040519081016040528060008152506132e9565b95945050505050565b600d5490565b336000908152601e60205260408120600181015490919060ff1615611d23576040805160e560020a62461bcd02815260206004820152601160248201527f596f7520616c726561647920766f746564000000000000000000000000000000604482015290519081900360640190fd5b600160a060020a038316331415611d84576040805160e560020a62461bcd02815260206004820152601d60248201527f53656c662d64656c65676174696f6e20697320646973616c6c6f776564000000604482015290519081900360640190fd5b600160a060020a038381166000908152601e602052604090206001015461010090041615611e2f57600160a060020a039283166000908152601e602052604090206001015461010090049092169133831415611e2a576040805160e560020a62461bcd02815260206004820152601a60248201527f466f756e642073656c662d64656c65676174696f6e206c6f6f70000000000000604482015290519081900360640190fd5b611d84565b506001818101805460ff1916821774ffffffffffffffffffffffffffffffffffffffff001916610100600160a060020a038616908102919091179091556000908152601e602052604090209081015460ff1615611ecc5781546002820154601f8054611e9f939290811061104957fe5b601f8260020154815481101515611eb257fe5b906000526020600020906002020160010181905550611edf565b81548154611b969163ffffffff6132d716565b505050565b60008080805b601f54821015611f4d5782601f83815481101515611f0457fe5b9060005260206000209060020201600101541115611f4257601f805483908110611f2a57fe5b90600052602060002090600202016001015492508190505b600190910190611eea565b601f805482908110611f5b57fe5b6000918252602091829020600290910201546040805182815292830186905280519196507f64cc588a379a8af63188f3443e70b4fa4e3cdad188fd65e3b7b283c2084cddc7928290030190a150505090565b60608060005b601f54811015611ffd57601f805482908110611fcb57fe5b9060005260206000209060020201600001548282815181101515611feb57fe5b60209081029091010152600101611fb3565b50919050565b600061200f3387612e29565b1515612067576040805160e560020a62461bcd0281526020600482015260386024820152600080516020614e6a8339815191526044820152600080516020614eaa833981519152606482015290519081900360840190fd5b612075868686863387613c5a565b50600195945050505050565b600f54600160a060020a031633146120e5576040805160e560020a62461bcd0281526020600482015260296024820152600080516020614e4a8339815191526044820152600080516020614e8a833981519152606482015290519081900360840190fd5b6120ee81614866565b151560011461216d576040805160e560020a62461bcd02815260206004820152603060248201527f5f61646472206164647265737320646f6573206e6f74206578697374206f722060448201527f69732030783020286275726e696e672900000000000000000000000000000000606482015290519081900360840190fd5b601a8054600160a060020a031916600160a060020a0392909216919091179055565b600f54600160a060020a031633146121f3576040805160e560020a62461bcd0281526020600482015260296024820152600080516020614e4a8339815191526044820152600080516020614e8a833981519152606482015290519081900360840190fd5b601655565b601b5481565b600160a060020a031660009081526020819052604090205490565b600160a060020a0381166000908152600760205260409020546002116122af576040805160e560020a62461bcd02815260206004820152602960248201527f696e766573746f7220616c726561647920617574686f72697a656420616e206160448201527f6363726564697465640000000000000000000000000000000000000000000000606482015290519081900360840190fd5b600160a060020a0381166000908152600760205260409020546122d990600163ffffffff6132d716565b5050565b600160a060020a038116331415612363576040805160e560020a62461bcd028152602060048201526024808201527f6d73672e73656e6465722063616e6e6f7420617574686f72697a65642068696d60448201527f73656c6600000000000000000000000000000000000000000000000000000000606482015290519081900360840190fd5b600160a060020a0381166000818152601d602090815260408083203380855290835292819020805460ff1916600117905580519384529083019190915280517ff4caeb2d6ca8932a215a353d0703c326ec2d81fc68170f320eb2ab49e9df61f99281900390910190a150565b600b5490565b600061178333858585336020604051908101604052806000815250613c5a565b600083600d548181151561240557fe5b061561245d576040805160e560020a62461bcd0281526020600482015260336024820152600080516020614eea8339815191526044820152600080516020614e2a833981519152606482015290519081900360840190fd5b600f54600160a060020a031633146124c1576040805160e560020a62461bcd0281526020600482015260296024820152600080516020614e4a8339815191526044820152600080516020614e8a833981519152606482015290519081900360840190fd5b600a5460009081526008602052604090205460ff161515600114612555576040805160e560020a62461bcd02815260206004820152602e60248201527f7265717569726573206368616e676564207374617475732066726f6d2070656e60448201527f64696e6720746f20616374697665000000000000000000000000000000000000606482015290519081900360840190fd5b60175460ff1615156001146125b4576040805160e560020a62461bcd02815260206004820152601a60248201527f746f6b656e2069737375616e63652069732066696e6973686564000000000000604482015290519081900360640190fd5b6125bf600a54614889565b604080516060810182528781524260208083019182526000838501818152868252600390925293909320915182555160018201559051600290910155600e54909250612611908663ffffffff6132d716565b600e5533600090815260208190526040902054612634908663ffffffff6132d716565b33600090815260208181526040808320939093556001815282822085835290522054612666908663ffffffff6132d716565b33600081815260016020818152604080842088855282528084209590955583835260028152848320805492830181558352808320909101869055835183815280820184905293840189905260a06060850181815289519186019190915288517f2fe5be0146f74c5bce36c0b80911af6c7d86ff27e89d5cfa61fc681327954e5d9585948c948c948c949092608085019260c0860192908801918190849084905b8381101561271e578181015183820152602001612706565b50505050905090810190601f16801561274b5780820380516001836020036101000a031916815260200191505b50838103825284518152845160209182019186019080838360005b8381101561277e578181015183820152602001612766565b50505050905090810190601f1680156127ab5780820380516001836020036101000a031916815260200191505b5097505050505050505060405180910390a17fc8d64290e05791ddb8e7c779289e066d776a0630d8fb0adb646a94b9ae85b7728233338888886040518087815260200186600160a060020a0316600160a060020a0316815260200185600160a060020a0316600160a060020a031681526020018481526020018060200180602001838103835285818151815260200191508051906020019080838360005b83811015612861578181015183820152602001612849565b50505050905090810190601f16801561288e5780820380516001836020036101000a031916815260200191505b50838103825284518152845160209182019186019080838360005b838110156128c15781810151838201526020016128a9565b50505050905090810190601f1680156128ee5780820380516001836020036101000a031916815260200191505b509850505050505050505060405180910390a1601c5460ff1615611a305760408051600081523360208201528082018790529051600080516020614f0a8339815191529181900360600190a15050505050565b601c5460009060ff16151561299f576040805160e560020a62461bcd0281526020600482015260256024820152600080516020614eca833981519152604482015260da60020a6418589b195902606482015290519081900360840190fd5b6129cd3384846020604051908101604052806000815250336020604051908101604052806000815250613c5a565b50600192915050565b6000601f828154811015156129e757fe5b600091825260209091206001600290920201015492915050565b600f54600160a060020a03163314612a65576040805160e560020a62461bcd0281526020600482015260296024820152600080516020614e4a8339815191526044820152600080516020614e8a833981519152606482015290519081900360840190fd5b6017805460ff19169055565b7f075025aecd552649e85b634e268857a6a478f698de831a3b01d0055e73888d208133604051808060200183600160a060020a0316600160a060020a03168152602001828103825284818151815260200191508051906020019080838360005b83811015612ae9578181015183820152602001612ad1565b50505050905090810190601f168015612b165780820380516001836020036101000a031916815260200191505b50935050505060405180910390a150565b6060601480548060200260200160405190810160405280929190818152602001828054801561131e57602002820191906000526020600020908154600160a060020a03168152600190910190602001808311611300575050505050905090565b600080600080612bdc8a8a8a8a8a8a8080601f016020809104026020016040519081016040528093929190818152602001838380828437505060408051602081019091526000815233945092506132e9915050565b90506000811115612c35577f010000000000000000000000000000000000000000000000000000000000000093507f73756363657373000000000000000000000000000000000000000000000000009250905080612c60565b600093507f6661696c7572650000000000000000000000000000000000000000000000000092509050805b5096509650969350505050565b612c773384612e29565b1515612ccf576040805160e560020a62461bcd0281526020600482015260386024820152600080516020614e6a8339815191526044820152600080516020614eaa833981519152606482015290519081900360840190fd5b611edf83838361422a565b600080612ce7338a612e29565b1515612d3f576040805160e560020a62461bcd0281526020600482015260386024820152600080516020614e6a8339815191526044820152600080516020614eaa833981519152606482015290519081900360840190fd5b612db08a8a8a8a8a8a8080601f016020809104026020016040519081016040528093929190818152602001838380828437820191505050505050338a8a8080601f016020809104026020016040519081016040528093929190818152602001838380828437506132e9945050505050565b9a9950505050505050505050565b60006129cd3384846020604051908101604052806000815250336020604051908101604052806000815250613c5a565b601f805482908110612dfc57fe5b60009182526020909120600290910201805460019091015490915082565b601a54600160a060020a031681565b600081600160a060020a031683600160a060020a03161480612e705750600160a060020a038084166000908152601d602090815260408083209386168352929052205460ff165b9392505050565b600f54600160a060020a031690565b612e903384612e29565b1515612ee8576040805160e560020a62461bcd0281526020600482015260386024820152600080516020614e6a8339815191526044820152600080516020614eaa833981519152606482015290519081900360840190fd5b611b9684848484613e83565b601c5460009060ff161515612f52576040805160e560020a62461bcd0281526020600482015260256024820152600080516020614eca833981519152604482015260da60020a6418589b195902606482015290519081900360840190fd5b50600160a060020a03918216600090815260066020908152604080832093909416825291909152205490565b6001811015612f8957fe5b612f9283614889565b600955600a839055600b829055600c8054604160ff19918216179091556000600e55600d829055601c80549091166001179055600f8054600160a060020a0319163390811790915560408051808201909152908152601a54600160a060020a03166020820152613006906010906002614d97565b50612710601255620f424060135561301d33614936565b50600a54600b546040805192835260208301919091523382820152517f9ae979c8e1266c2f250aee2ce3946e415bd909a9cf1821aab705834932fd12ad9181900360600190a1505050565b600160a060020a0381166000908152600260209081526040918290208054835181840281018401909452808452606093928301828280156130c857602002820191906000526020600020905b8154815260200190600101908083116130b4575b50505050509050919050565b6000908152600860205260409020805460ff19166001179055565b600160a060020a03919091166000908152600160209081526040808320938352929052205490565b606061312282613068565b92915050565b600f54600160a060020a0316331461318c576040805160e560020a62461bcd0281526020600482015260296024820152600080516020614e4a8339815191526044820152600080516020614e8a833981519152606482015290519081900360840190fd5b601c805460ff19169055565b600160a060020a0381163314156131f9576040805160e560020a62461bcd02815260206004820181905260248201527f6d73672e73656e6465722063616e6e6f74207265766f6b652068696d73656c66604482015290519081900360640190fd5b600160a060020a0381166000818152601d60209081526040808320338085529252808320805460ff19169055519092917f50546e66e5f44d728365dc3908c63bc5cfeeab470722c1677e3073a6ac294aa191a350565b60005b81518110156132b557601f6040805190810160405280848481518110151561327657fe5b60209081029091018101518252600091810182905283546001818101865594835291819020835160029093020191825591909101519082015501613252565b3360009081526020818152604080832054601e909252909120556122d9614a07565b600082820183811015612e7057600080fd5b600084600d54818115156132f957fe5b0615613351576040805160e560020a62461bcd0281526020600482015260336024820152600080516020614eea8339815191526044820152600080516020614e2a833981519152606482015290519081900360840190fd5b600160a060020a03871660009081526007602052604090205487906001146133e9576040805160e560020a62461bcd02815260206004820152602660248201527f726571756972656d656e74206f66207375636365737366756c204b594320707260448201527f6f746f636f6c0000000000000000000000000000000000000000000000000000606482015290519081900360840190fd5b6133f288614866565b1515600114613471576040805160e560020a62461bcd02815260206004820152602e60248201527f5f746f206164647265737320646f6573206e6f74206578697374206f7220697360448201527f2030783020286275726e696e6729000000000000000000000000000000000000606482015290519081900360840190fd5b600160a060020a038816600090815260076020526040902054600114613507576040805160e560020a62461bcd02815260206004820152602b60248201527f5f746f2061646472657373206973206e6f7420617574686f72697a6564206f7260448201527f2061636372656469746564000000000000000000000000000000000000000000606482015290519081900360840190fd5b600160a060020a03891660009081526001602090815260408083208d84529091529020548711156135a8576040805160e560020a62461bcd02815260206004820152603e60248201527f6e6f7420656e6f756768207472616e6368652d73706563696669632066756e6460448201527f696e6720666f72207472616e73616374696f6e206f6e206163636f756e740000606482015290519081900360840190fd5b6135b18a614b44565b1515600114613630576040805160e560020a62461bcd02815260206004820152602760248201527f6c6f636b757020706572696f64206e6f74206f76657220666f7220746869732060448201527f7472616e63686500000000000000000000000000000000000000000000000000606482015290519081900360840190fd5b601254601454111561368c576040805160e560020a62461bcd02815260206004820152601860248201527f6d61782e20616d6f756e74206f6620696e766573746f72730000000000000000604482015290519081900360640190fd5b600160a060020a0389166000908152602081905260409020546136b5908863ffffffff613c4316565b600160a060020a03808b1660009081526020819052604080822093909355908a16815220546136ea908863ffffffff6132d716565b600160a060020a03891660009081526020819052604090208190556013541015613784576040805160e560020a62461bcd02815260206004820152602b60248201527f6d61782e20616d6f756e74206f6620736861726573206279206f6e6520696e7660448201527f6573746f72202831302529000000000000000000000000000000000000000000606482015290519081900360840190fd5b61378d88614936565b507f06b541ddaa720db2b10a4d0cdac39b8d360425fc073085fac19bc82614677987858a8a8a8a896040518087600160a060020a0316600160a060020a0316815260200186600160a060020a0316600160a060020a0316815260200185600160a060020a0316600160a060020a031681526020018481526020018060200180602001838103835285818151815260200191508051906020019080838360005b8381101561384457818101518382015260200161382c565b50505050905090810190601f1680156138715780820380516001836020036101000a031916815260200191505b50838103825284518152845160209182019186019080838360005b838110156138a457818101518382015260200161388c565b50505050905090810190601f1680156138d15780820380516001836020036101000a031916815260200191505b509850505050505050505060405180910390a16138ec614b65565b604080516060810182528981524260208083019182526016548385019081526000868152600383528581209451855592516001808601919091559051600290940193909355600160a060020a038e1682529182528281208e8252909152205490935061395e908863ffffffff613c4316565b600160008b600160a060020a0316600160a060020a0316815260200190815260200160002060008c8152602001908152602001600020819055506139e187600160008b600160a060020a0316600160a060020a031681526020019081526020016000206000868152602001908152602001600020546132d790919063ffffffff16565b600160008a600160a060020a0316600160a060020a031681526020019081526020016000206000858152602001908152602001600020819055506002600089600160a060020a0316600160a060020a031681526020019081526020016000208390806001815401808255809150509060018203906000526020600020016000909192909190915055507fe04fc8b1d10312fa8c6ef57ef457c0a0a45442cfa662ff31c2f73213d98517f08a868b8b8b8b8a6040518088815260200187600160a060020a0316600160a060020a0316815260200186600160a060020a0316600160a060020a0316815260200185600160a060020a0316600160a060020a031681526020018481526020018060200180602001838103835285818151815260200191508051906020019080838360005b83811015613b27578181015183820152602001613b0f565b50505050905090810190601f168015613b545780820380516001836020036101000a031916815260200191505b50838103825284518152845160209182019186019080838360005b83811015613b87578181015183820152602001613b6f565b50505050905090810190601f168015613bb45780820380516001836020036101000a031916815260200191505b50995050505050505050505060405180910390a1600160a060020a0389166000908152602081905260409020541515613bf257613bf089614c36565b505b601c5460ff1615613c365760408051600160a060020a03808c1682528a1660208201528082018990529051600080516020614f0a8339815191529181900360600190a15b5050979650505050505050565b60008083831115613c5357600080fd5b5050900390565b600160a060020a03861660009081526020819052604081205460609190819081908190891115613cfa576040805160e560020a62461bcd02815260206004820152603560248201527f6e6f7420656e6f7567682067656e6572616c2066756e64696e6720666f72207460448201527f72616e73616374696f6e206f6e206163636f756e740000000000000000000000606482015290519081900360840190fd5b600160a060020a038b1660009081526002602090815260409182902080548351818402810184019094528084529091830182828015613d5857602002820191906000526020600020905b815481526020019060010190808311613d44575b5050505050945060009350600192505b88841015613e485784518590848103908110613d8057fe5b602090810290910101519150613d9c898563ffffffff613c4316565b600160a060020a038c16600090815260016020908152604080832086845290915290205410613de957613de3828c8c613ddb8d8963ffffffff613c4316565b8c8c8c6132e9565b50613e48565b50600160a060020a038a166000908152600160209081526040808320848452909152902054613e1d828c8c848c8c8c6132e9565b50613e2e848263ffffffff6132d716565b9350613e4183600163ffffffff6132d716565b9250613d68565b5050505050505050505050565b600080831515613e6857600091506114d0565b50828202828482811515613e7857fe5b0414612e7057600080fd5b81600d5481811515613e9157fe5b0615613ee9576040805160e560020a62461bcd0281526020600482015260336024820152600080516020614eea8339815191526044820152600080516020614e2a833981519152606482015290519081900360840190fd5b600160a060020a0384166000908152600160209081526040808320888452909152902054831115613f8a576040805160e560020a62461bcd02815260206004820152602b60248201527f6e6f7420656e6f756768207472616e6368652d73706563696669632066756e6460448201527f696e6720746f206275726e000000000000000000000000000000000000000000606482015290519081900360840190fd5b600e54613f9d908463ffffffff613c4316565b600e55600160a060020a038416600090815260208190526040902054613fc9908463ffffffff613c4316565b600160a060020a038516600090815260208181526040808320939093556001815282822088835290522054614004908463ffffffff613c4316565b507fa1c85a30dec08aa526dc5a3ca33087f723335ec5c1614ecf0036da150a6971c885338686866040518086815260200185600160a060020a0316600160a060020a0316815260200184600160a060020a0316600160a060020a0316815260200183815260200180602001828103825283818151815260200191508051906020019080838360005b838110156140a457818101518382015260200161408c565b50505050905090810190601f1680156140d15780820380516001836020036101000a031916815260200191505b50965050505050505060405180910390a17fea01d24fee0ecbb349ab449ea41d11599fd91ba758653579b30d38d63e2adedb338585856040518085600160a060020a0316600160a060020a0316815260200184600160a060020a0316600160a060020a0316815260200183815260200180602001828103825283818151815260200191508051906020019080838360005b8381101561417a578181015183820152602001614162565b50505050905090810190601f1680156141a75780820380516001836020036101000a031916815260200191505b509550505050505060405180910390a1600160a060020a03841660009081526020819052604090205415156141e1576141df84614c36565b505b601c5460ff1615611a305760408051600160a060020a0386168152600060208201528082018590529051600080516020614f0a8339815191529181900360600190a15050505050565b600080606060008086600d548181151561424057fe5b0615614298576040805160e560020a62461bcd0281526020600482015260336024820152600080516020614eea8339815191526044820152600080516020614e2a833981519152606482015290519081900360840190fd5b600160a060020a038916600090815260208190526040902054881115614308576040805160e560020a62461bcd02815260206004820152601a60248201527f6e6f7420656e6f7567682066756e64696e6720746f206275726e000000000000604482015290519081900360640190fd5b60009550600194505b8786101561471957600160a060020a0389166000908152600260209081526040918290208054835181840281018401909452808452909183018282801561437757602002820191906000526020600020905b815481526020019060010190808311614363575b50505050509350838585510381518110151561438f57fe5b6020908102909101015192506143ab888763ffffffff613c4316565b600160a060020a038a16600090815260016020908152604080832087845290915290205410614570576143f66143e7898863ffffffff613c4316565b600e549063ffffffff613c4316565b600e5561443161440c898863ffffffff613c4316565b600160a060020a038b166000908152602081905260409020549063ffffffff613c4316565b600160a060020a038a1660009081526020819052604090205561448d61445d898863ffffffff613c4316565b600160a060020a038b1660009081526001602090815260408083208884529091529020549063ffffffff613c4316565b507fa1c85a30dec08aa526dc5a3ca33087f723335ec5c1614ecf0036da150a6971c883338b8b8b6040518086815260200185600160a060020a0316600160a060020a0316815260200184600160a060020a0316600160a060020a0316815260200183815260200180602001828103825283818151815260200191508051906020019080838360005b8381101561452d578181015183820152602001614515565b50505050905090810190601f16801561455a5780820380516001836020036101000a031916815260200191505b50965050505050505060405180910390a1614719565b600160a060020a0389166000908152600160209081526040808320868452909152902054600e549092506145aa908363ffffffff613c4316565b600e55600160a060020a0389166000908152602081905260409020546145d6908363ffffffff613c4316565b600160a060020a038a16600090815260208181526040808320939093556001815282822086835290522054614611908363ffffffff613c4316565b50614622868363ffffffff6132d716565b955061463585600163ffffffff6132d716565b94507fa1c85a30dec08aa526dc5a3ca33087f723335ec5c1614ecf0036da150a6971c883338b8b8b6040518086815260200185600160a060020a0316600160a060020a0316815260200184600160a060020a0316600160a060020a0316815260200183815260200180602001828103825283818151815260200191508051906020019080838360005b838110156146d65781810151838201526020016146be565b50505050905090810190601f1680156147035780820380516001836020036101000a031916815260200191505b50965050505050505060405180910390a1614311565b7fea01d24fee0ecbb349ab449ea41d11599fd91ba758653579b30d38d63e2adedb338a8a8a6040518085600160a060020a0316600160a060020a0316815260200184600160a060020a0316600160a060020a0316815260200183815260200180602001828103825283818151815260200191508051906020019080838360005b838110156147b1578181015183820152602001614799565b50505050905090810190601f1680156147de5780820380516001836020036101000a031916815260200191505b509550505050505060405180910390a1600160a060020a03891660009081526020819052604090205415156148185761481689614c36565b505b601c5460ff161561485b5760408051600160a060020a038b168152600060208201528082018a90529051600080516020614f0a8339815191529181900360600190a15b505050505050505050565b600080600160a060020a03831615156148825760009150611ffd565b50503b1590565b60185460408051602080820185905281830193909352815180820383018152606090910191829052805160009384939182918401908083835b602083106148e15780518252601f1990920191602091820191016148c2565b5181516020939093036101000a6000190180199091169216919091179052604051920182900390912060185490945061492093509150600190506132d7565b506019548181151561492e57fe5b069392505050565b60008061494283614c7f565b156149505760009150611ffd565b5060148054600180820183557fce6d7b5282bd9a3661ae061feed1dbda4e52ab073b1f9285be6e155d9c38d4ec82018054600160a060020a031916600160a060020a03871690811790915560008181526005602090815260408083208690556004825291829020805460ff19169094179093559354845191825291810191909152825191927f33dda5dca20a95bec563f7c6e810061b24d464536df0636a17d2d041b8b0c66d92918290030190a150600192915050565b60015b601454811015614b4157601e6000601483815481101515614a2757fe5b6000918252602080832090910154600160a060020a0316835282019290925260400190205415614ac7576040805160e560020a62461bcd02815260206004820152602a60248201527f54686520726967687420746f20766f746520616c72656164792068617320626560448201527f656e206772616e74656400000000000000000000000000000000000000000000606482015290519081900360840190fd5b600080601483815481101515614ad957fe5b6000918252602080832090910154600160a060020a03168352820192909252604001812054601480549192601e9290919085908110614b1457fe5b6000918252602080832090910154600160a060020a03168352820192909252604001902055600101614a0a565b50565b60009081526003602052604090206002810154600190910154429101111590565b60008060185460405160200180807f72616e646f6d537472696e670000000000000000000000000000000000000000815250600c018281526020019150506040516020818303038152906040526040518082805190602001908083835b60208310614be15780518252601f199092019160209182019101614bc2565b5181516020939093036101000a60001901801990911692169190911790526040519201829003909120601854909450614c2093509150600190506132d7565b5060195481811515614c2e57fe5b0691505b5090565b600160a060020a0381166000908152600560205260408120546014805482908110614c5d57fe5b60009182526020909120018054600160a060020a031916905550600192915050565b6000614c8a82614866565b1515600114614ce3576040805160e560020a62461bcd02815260206004820152601560248201527f6e6f74206120726567756c617220616464726573730000000000000000000000604482015290519081900360640190fd5b50600160a060020a031660009081526004602052604090205460ff1690565b828054600181600116156101000203166002900490600052602060002090601f016020900481019282601f10614d4357805160ff1916838001178555614d70565b82800160010185558215614d70579182015b82811115614d70578251825591602001919060010190614d55565b50614c32929150614deb565b60408051808201825290600290829080388339509192915050565b8260028101928215614ddf579160200282015b82811115614ddf5782518254600160a060020a031916600160a060020a03909116178255602090920191600190910190614daa565b50614c32929150614e05565b61132691905b80821115614c325760008155600101614df1565b61132691905b80821115614c32578054600160a060020a0319168155600101614e0b560061742074686973206772616e756c617269747900000000000000000000000000726571756972656d656e74206f6e6c794f776e6572206f6620436f6d70616e7973656e646572206973206e6f7420617574686f72697a656420746f206f706572206d6f64696669657200000000000000000000000000000000000000000000006174652077697468205f66726f6d2773206163636f756e740000000000000000657263323020636f6d7061746962696c69747920686173206265656e20646973756e61626c6520746f206d6f6469667920746f6b656e2062616c616e63657320ddf252ad1be2c89b69c2b068fc378daa952ba7f163c4a11628f55a4df523b3efa165627a7a72305820cf320817fdfbeff3151c881fc020fbdabb82133f61b923b296989d5aa965a58a0029",
  "source": "pragma solidity ^0.4.24;\n\nimport \"./ConvertLib.sol\";\nimport \"./SafeMath.sol\";\nimport \"./EquityTokenFactory.sol\";\nimport \"./EquityToken.sol\";\nimport \"./EquityTokenTransaction.sol\";\n\ncontract EquityTokenTransactionHelper is EquityTokenTransaction {\n\n//-----TokenTransactions------------------------------------------------------------------------------------------------------------------\n  /* This section determines transaction protocolls of the issued equity token\n        - this section contains the public but forwarding send functions!\n        -\n        */\n\n    ///@dev fires an event after percentage of dividend is determined and transfered    \n    event Dividend(uint _txpercentage);\n\n    ///@notice native ERC777 send function\n    function send(address _to, uint _txamount) public returns(bool success_) {\n        _doSend(msg.sender, _to, _txamount, \"\", msg.sender, \"\");\n        return true;\n    }\n\n    function send(address _to, uint _txamount, bytes _userData) public returns(bool success_) {\n        _doSend(msg.sender, _to, _txamount, _userData, msg.sender, \"\");\n        return true;\n    }\n  \n    ///@notice Send _amount of tokens on behalf of the address _from to the address _to.\n    ///@param _userData Data generated by the user to be sent to the recipient\n    ///@param _operatorData Data generated by the operator to be sent to the recipient\n    ///@notice ERC777 mandatory\n    function operatorSend(address _from, address _to, uint _txamount, bytes _userData, bytes _operatorData) public returns(bool success_) {\n        require((isOperatorFor(msg.sender, _from)), \"sender is not authorized to operate with _from's account\");\n        _doSend(_from, _to, _txamount, _userData, msg.sender, _operatorData);\n        return true;\n    }\n\n    ///@return returning a trancheId allows to further distinct equity-tranches into sub-tranches by token holder\n    /// this enables token governance on company AND on token holder level (sub-tranches)\n    ///@notice native EIP1410 send function\n    function sendByTranche(uint _trancheId, address _to, uint _txamount) external returns(uint) {\n        uint receiverTrancheId_ = _doSend(_trancheId, msg.sender, _to, _txamount, \"\", msg.sender, \"\");\n        return receiverTrancheId_;\n    }\n    function sendByTranche(uint _trancheId, address _to, uint _txamount, bytes _userData) external returns(uint) {\n        uint receiverTrancheId_ = _doSend(_trancheId, msg.sender, _to, _txamount, _userData, msg.sender, \"\");\n        return receiverTrancheId_;\n    }\n\n    ///@notice Send _amount of tokens on behalf of the address _from to the address _to\n    ///@notice EIP1410 mandatory for backward interoperability with ERC777\n    function operatorSendByTranche(uint _trancheId, address _from, address _to, uint _txamount, bytes _userData, bytes _operatorData) external returns(uint) {\n        require((isOperatorFor(msg.sender, _from)), \"sender is not authorized to operate with _from's account\");\n        uint receiverTrancheId_ = _doSend(_trancheId, _from, _to, _txamount, _userData, msg.sender, _operatorData);\n        return receiverTrancheId_;\n    }\n\n    ///@dev transfers of security might fail to multiple reasons (e.g. identity of sender and receiver, trading limits, meta state of token)\n    ///@dev relies on EIP1066 for Ethereum Standard Codes (ESC) and ERC770 for tranching\n    ///@dev only possible to read error code of 'doSend -> require' statement with assembly { call } for more elaborated error messages (see Ethereum documentation)\n    ///@return ESC (byte), optional specific reason for failure (bytes32), (NOT IMPLEMENTED) destinantion tranche of the token beeing transfered (uint)\n    ///@notice EIP1400 proposal\n    function canSend(uint _trancheId, address _from, address _to, uint _txamount, bytes _userData) external returns(byte, bytes32, uint) {\n        uint receiverTrancheId_ = _doSend(_trancheId, _from, _to, _txamount, _userData, msg.sender, \"\");\n        if(receiverTrancheId_ > 0) {\n        return (hex\"01\", \"success\", receiverTrancheId_);}\n        else {\n        return (hex\"00\", \"failure\", receiverTrancheId_);}\n    }\n\n    ///@dev transfers token from A to B and fires event, additionally updates the TotalDistribution array (shareholder book)\n    ///@notice ERC20 mandatory\n    ///@dev with _preventLocking parameter, should return _doSend(msg.sender, _to, _txamount, \"\", msg.sender, \"\", false) false here!\n    function transfer(address _to, uint _txamount) public isERC20 returns(bool success_) {\n        _doSend(msg.sender, _to, _txamount, \"\", msg.sender, \"\");\n        return true;\n    }\n\n    ///@dev transfers token from A to B and fires event, additionally updates the TotalDistribution array (shareholder book); transferFrom should be used for withdrawing workflow\n    ///@notice ERC20 mandatory\n    function transferFrom(address _from, address _to, uint _txamount) public isERC20 returns(bool success_) {\n        require((_txamount <= allowed[_from][msg.sender]), \"no approval for transaction\");\n\n        //@security cannot be after doSend because of tokensReceived re-entry\n        allowed[_from][msg.sender] = allowed[_from][msg.sender].sub(_txamount);\n        _doSend(_from, _to, _txamount, \"\", msg.sender, \"\");\n        return true;\n    }\n\n    ///@dev pays a dividend to all owner of the shares depending on determined percentage of owners portfolio value\n    // dividend is uint (no decimals allowed) -> owners balance has to be divided by 100, to calculate in %\n    ///@notice starts with index 1 in array, as 0 is contract deployer = companyowner in most cases\n    ///@notice would be also possible with PAYABLE to pay in ether and withdraw() to send ether, but with stocks more elegant\n    ///@notice uses default tranches to pay for dividend\n    function payDividend(uint _txpercentage) external onlyOwnerOfCom {\n        uint _totaldividend;\n        for (uint i = 1; i < TotalDistribution.length; i++) {\n            uint _temp = _txpercentage.mul(OwnerToBalance[TotalDistribution[i]]/100);\n            _totaldividend = _totaldividend.add(_temp);\n        }\n        require((OwnerToBalance[msg.sender] >= _totaldividend), \"insufficient funding to pay dividend\");\n        for (uint j = 1; j < TotalDistribution.length; j++) {\n            uint _txamount = _txpercentage.mul(OwnerToBalance[TotalDistribution[j]]/100);\n            _doSend(msg.sender, TotalDistribution[j], _txamount, \"\", msg.sender, \"\");\n        }\n        emit Dividend(_txpercentage);\n    }\n    \n//-----TokenTransactions------------------------------------------------------------------------------------------------------------------    \n} ",
  "sourcePath": "D:\\BlockMarket\\solidity_eto-master\\contracts\\EquityTokenTransactionHelper.sol",
  "compiler": {
    "name": "solc",
    "version": "0.4.24+commit.e67f0147.Emscripten.clang"
  },
  "schemaVersion": "3.4.13",
  "updatedAt": "2025-05-02T09:23:05.289Z",
  "devdoc": {
    "methods": {
      "approve(address,uint256)": {
        "details": "sender can approve an amount to be withdrawn by spender"
      },
      "balanceOf(address)": {
        "details": "balance for any owner"
      },
      "balanceOfByTranche(address,uint256)": {
        "details": "balance for any owner for specific tranche"
      },
      "canSend(uint256,address,address,uint256,bytes)": {
        "details": "transfers of security might fail to multiple reasons (e.g. identity of sender and receiver, trading limits, meta state of token)relies on EIP1066 for Ethereum Standard Codes (ESC) and ERC770 for tranchingonly possible to read error code of 'doSend -> require' statement with assembly { call } for more elaborated error messages (see Ethereum documentation)",
        "return": "ESC (byte), optional specific reason for failure (bytes32), (NOT IMPLEMENTED) destinantion tranche of the token beeing transfered (uint)"
      },
      "createToken(bytes32,bytes32,uint256)": {
        "details": "creates new token shell (status pending), safes information in storage",
        "params": {
          "_granularity": "ensures, that granularity of shares is always a positive natural figure, cannot be changed ever"
        }
      },
      "decimals()": {
        "details": "number of decimals token uses, divide token amount by number of decimals to get user representation"
      },
      "delegate(address)": {
        "details": "possibility to delegate your vote to another voter"
      },
      "getAllAddressesEquityToken()": {
        "details": "getter for TotalDistribution array",
        "return": "array with all addresses (owner)"
      },
      "getDefaultTranches(address)": {
        "details": "mandatory for backward interoperability with ERC777 and ERC20"
      },
      "getInfosEquityToken()": {
        "details": "returns Infos of equity token, as struct is not returnable in current solidity version"
      },
      "granularity()": {
        "details": "smallest part of token not divisible"
      },
      "isOperatorFor(address,address)": {
        "return": "true if _operator is authorized for _tokenHolder"
      },
      "operatorSend(address,address,uint256,bytes,bytes)": {
        "params": {
          "_operatorData": "Data generated by the operator to be sent to the recipient",
          "_userData": "Data generated by the user to be sent to the recipient"
        }
      },
      "sendAdHocMessage(string)": {
        "details": "possibility to broadcast adHocMessages for any size"
      },
      "sendByTranche(uint256,address,uint256)": {
        "return": "returning a trancheId allows to further distinct equity-tranches into sub-tranches by token holder this enables token governance on company AND on token holder level (sub-tranches)"
      },
      "setDocument(bytes32,string,bytes32)": {
        "details": "manage documents associated with token, using IPFS encrypted peer-to-peer filesharing"
      },
      "totalSupply()": {
        "details": "total amount of a token "
      },
      "tranchesOf(address)": {
        "details": "tranches of a tokenholder"
      },
      "transfer(address,uint256)": {
        "details": "transfers token from A to B and fires event, additionally updates the TotalDistribution array (shareholder book)with _preventLocking parameter, should return _doSend(msg.sender, _to, _txamount, \"\", msg.sender, \"\", false) false here!"
      },
      "transferFrom(address,address,uint256)": {
        "details": "transfers token from A to B and fires event, additionally updates the TotalDistribution array (shareholder book); transferFrom should be used for withdrawing workflow"
      },
      "uploadDocument(bytes32,string,bytes32)": {
        "details": "manage documents associated with investor"
      },
      "vote(uint256)": {
        "details": "give your vote for specific proposal"
      },
      "winningProposal()": {
        "details": "computes the winning proposal, gets proposal name from array and returns, fires event"
      }
    }
  },
  "userdoc": {
    "methods": {
      "allowance(address,address)": {
        "notice": "ERC20 mandatory"
      },
      "approve(address,uint256)": {
        "notice": "ERC20 mandatory"
      },
      "authorizeAdvocate(address)": {
        "notice": "authorize a third party _operator to manage (send) msg.sender's tokens. msg.sender always operator himself, thus requirementERC777 mandatory"
      },
      "authorizeOperator(address)": {
        "notice": "authorize a third party _operator to manage (send) msg.sender's tokens. msg.sender always operator himself, thus requirementERC777 mandatory"
      },
      "authorizeRequest(address)": {
        "notice": "advocate can approve investor to another level of accreditation; 0 = no investor, 1 = approved investor, 2 = advocate"
      },
      "balanceOf(address)": {
        "notice": "ERC20 mandatory, ERC777 mandatory"
      },
      "balanceOfByTranche(address,uint256)": {
        "notice": "EIP1410 proposal"
      },
      "burn(address,uint256,bytes)": {
        "notice": "process to burn equity_burn function can be used by Company AND private token holder, burn is a shell and important to fullfil onlyOwner requirementcompliant with ERC777 & EIP1410"
      },
      "burnByTranche(uint256,address,uint256,bytes)": {
        "notice": "burn function can be used by Company AND private token holder, important to fullfil onlyOwner requirement"
      },
      "canSend(uint256,address,address,uint256,bytes)": {
        "notice": "EIP1400 proposal"
      },
      "clearRequest(bytes32)": {
        "notice": "advocate can clear a companies request, changing status pending into active token"
      },
      "decimals()": {
        "notice": "ERC20 optional, ERC777 mandatory to be 18"
      },
      "defaultOperators()": {
        "notice": "ERC777 mandatory"
      },
      "disableERC20()": {
        "notice": "disables the ERC20 interface. "
      },
      "enableERC20()": {
        "notice": "enables the ERC20 interface."
      },
      "getBalanceOfInEth(address)": {
        "notice": "convert balance of token in ETH or other currencies"
      },
      "getDefaultTranches(address)": {
        "notice": "gets the tranches of a token holder, in general the default tranche for a transaction is the latest issued tranche an owner posseses"
      },
      "getProposals()": {
        "notice": "for EVM could be possible to work with fixed array e.g. 3 proposals"
      },
      "granularity()": {
        "notice": "ERC777 mandatory"
      },
      "isControllable()": {
        "notice": "provides transparency wether defaultOperators can be adjusted by company: if government address is set company changed it and is thus not controllable (return false)"
      },
      "isOperatorFor(address,address)": {
        "notice": "check whether the _operator address is allowed to manage the tokens held by _tokenHolder address.ERC777 mandatory"
      },
      "mint(uint256,bytes,bytes)": {
        "notice": "process to mint new equitycompliant with ERC777 & EIP1410"
      },
      "name()": {
        "notice": "event quaterlyUpdate(uint _revenue, uint _revenueforecast);ERC20 optional, ERC777 mandatory"
      },
      "operatorBurn(address,uint256,bytes)": {
        "notice": "ERC777 mandatory"
      },
      "operatorBurnByTranche(uint256,address,uint256,bytes)": {
        "notice": "EIP1400 mandatory"
      },
      "operatorSend(address,address,uint256,bytes,bytes)": {
        "notice": "Send _amount of tokens on behalf of the address _from to the address _to.ERC777 mandatory"
      },
      "operatorSendByTranche(uint256,address,address,uint256,bytes,bytes)": {
        "notice": "Send _amount of tokens on behalf of the address _from to the address _toEIP1410 mandatory for backward interoperability with ERC777"
      },
      "payDividend(uint256)": {
        "notice": "starts with index 1 in array, as 0 is contract deployer = companyowner in most caseswould be also possible with PAYABLE to pay in ether and withdraw() to send ether, but with stocks more elegantuses default tranches to pay for dividend"
      },
      "revokeOperator(address)": {
        "notice": "revoke a third party _operator's rights to manage (send) msg.sender's tokens.ERC777 mandatory, EIP1400 & EIP1410 in discussionit may be that regulations require an issuer or a trusted third party to retain the power thus it can be that revoking an operator MUST NOT be allowed"
      },
      "send(address,uint256)": {
        "notice": "native ERC777 send function"
      },
      "sendByTranche(uint256,address,uint256)": {
        "notice": "native EIP1410 send function"
      },
      "setDocument(bytes32,string,bytes32)": {
        "notice": "EIP1400 proposal"
      },
      "startBallot(bytes32[])": {
        "notice": "create a new ballot, only possible for owner of company"
      },
      "stopIssuance()": {
        "notice": "owner can stop issuance, not revertable!EIP1400 mandatory"
      },
      "symbol()": {
        "notice": "ERC20 optional, ERC777 mandatory"
      },
      "totalSupply()": {
        "notice": "ERC20 mandatory, ERC777 mandatory"
      },
      "tranchesOf(address)": {
        "notice": "EIP1410 proposal"
      },
      "transfer(address,uint256)": {
        "notice": "ERC20 mandatory"
      },
      "transferFrom(address,address,uint256)": {
        "notice": "ERC20 mandatory"
      }
    }
  }
}